:100000000C9423010C9454010C9454010C9454014D
:100010000C9454010C9454010C9454010C9454010C
:100020000C9454010C9488100C9488100C94881033
:100030000C9454010C9454010C9454010C945401EC
:100040000C9454010C9454010C9454010C945401DC
:100050000C9454010C9454010C9454010C943E10D3
:100060000C9454010C9414100C94EA0F0C94540149
:100070000C9454010C9454010C9454010C945401AC
:100080000C9454010C9454010C9454010C9454019C
:100090000C9454010C9454010C9454010C9492103F
:1000A0000C9454010C9454010C9454010C9454017C
:1000B0000C9454010C9454010C9454010C9454016C
:1000C0000C9454010C9454010C9454010C94C00FE2
:1000D0000C94960F0C9454010C946C0F0C94420FDA
:1000E0000C9454010C940C020C947C030C94910914
:1000F0000C9426030C9489020C943D030C94720317
:100100000C94B2110C9478030C9452030C94D60204
:100110000C94600B0C94EB090C9449030C94410370
:100120000C942B030C9460030C942F020C941B0270
:100130000C9445030C946A030C944C030C946403D4
:100140000C9456030C9482030C94C6010C943D024B
:100150000C946E030C945C03000022002500280020
:100160002B002E00310034000201000005010801BF
:100170000B0105050505070508080808020202022B
:100180000A0A080804040404010101010101010133
:100190000303030303030303040707070C0C0C0CFE
:1001A0000C0C0C0C020202020606060606060606E7
:1001B0000B0B0B0B0B0B0B0B010210202008081074
:1001C00020401020408002010201080402010102C7
:1001D00004081020408080402010080402018004A0
:1001E00002018040201008040201080402010102FB
:1001F0000408102040800102040810204080000004
:100200000A0B02090C0D0E08070304010000000090
:1002100000000000000000000000000000000000DE
:10022000000000000000000000001211100000009B
:1002300000000000000000000000000000000000BE
:1002400000000000B21111241FBECFEFD1E2DEBFCB
:10025000CDBF00E00CBF2AE0A8E5B4E001C01D92CC
:10026000AB32B207E1F714E0A0E0B2E0ECE6F0E375
:1002700000E00BBF02C007900D92A835B107D9F777
:1002800011E0C3E2D1E000E006C021970109802F10
:10029000FE010E940818C232D10780E00807A9F7C2
:1002A0000E948A120C9434180C9400002091D007FC
:1002B0003091D1072115310541F0009731F040917F
:1002C000D307411104C0FC01108280E00895E09141
:1002D000D507E20FF32FF11D2081FC0120838091CF
:1002E000D50790E001966091D20770E00E94D21786
:1002F0008093D5078091D30781508093D30781E005
:100300000895CF93DF93EC019A01AB01E889F98955
:1003100082E08083211581EE38074105510581F186
:1003200060E079E08DE390E00E94E617215031090A
:10033000410951095695479537952795EC85FD85D7
:100340001082EE85FF852083188EEC89FD8986E07A
:100350008083EA89FB89808180618083EA89FB89C7
:10036000808188608083EA89FB89808180688083BE
:10037000EA89FB8980818F7D8083DF91CF91089509
:10038000E889F989108220E1D9CF0895AF92BF9210
:10039000CF92DF92EF92FF920F931F93CF93DF9351
:1003A0006C017B018B01040F151FEB015E01AE1880
:1003B000BF08C017D10759F06991D601ED91FC91A2
:1003C0000190F081E02DC6011995892B79F7C501BF
:1003D000DF91CF911F910F91FF90EF90DF90CF9021
:1003E000BF90AF900895FC01A089B1898C91A68936
:1003F000B78982FD0FC09C91818D8F5F8F73228D95
:10040000821749F0A18DAE0FBF2FB11D5D969C9351
:10041000818F08958C910895FC01538D448D252F73
:1004200030E0842F90E0821B930B541710F0CF968E
:10043000089501970895FC01918D828D981761F0C0
:10044000A28DAE0FBF2FB11D5D968C91928D9F5FD7
:100450009F73928F90E008958FEF9FEF0895FC01B6
:10046000918D828D981731F0828DE80FF11D858D69
:1004700090E008958FEF9FEF0895FC01918D228DFC
:10048000892F90E0805C9F4F821B91098F73992781
:10049000089589ED97E00E943D0221E0892B09F43F
:1004A00020E0822F089586E798E00E943D0221E037
:1004B000892B09F420E0822F089583E199E00E94BE
:1004C0003D0221E0892B09F420E0822F0895FC01F0
:1004D000A48DA80FB92FB11DA35ABF4F2C91848DA5
:1004E00090E001968F739927848FA689B7892C9302
:1004F000A089B1898C91837080648C93938D848D55
:10050000981306C00288F389E02D80818F7D808357
:100510000895EF92FF920F931F93CF93DF93EC0117
:1005200081E0888F9B8D8C8D98131AC0E889F9899A
:10053000808185FF15C09FB7F894EE89FF8960839D
:10054000E889F98980818370806480839FBF81E01E
:1005500090E0DF91CF911F910F91FF90EF90089560
:10056000F62E0B8D10E00F5F1F4F0F731127E02E3B
:100570008C8D8E110CC00FB607FCFACFE889F98973
:10058000808185FFF5CFCE010E946702F1CFEB8D10
:10059000EC0FFD2FF11DE35AFF4FF0829FB7F89447
:1005A0000B8FEA89FB8980818062CFCFCF93DF9365
:1005B000EC01888D8823B9F0AA89BB89E889F9897B
:1005C0008C9185FD03C0808186FD0DC00FB607FCB0
:1005D000F7CF8C9185FFF2CF808185FFEDCFCE01E3
:1005E0000E946702E9CFDF91CF910895282F30E074
:1005F000F901E250FE4F9491F901E854FE4F449105
:100600002E583E4FF9012491222309F435C0992335
:1006100011F191509231F8F4E92FF0E08827EC5E67
:10062000FC4F8F4F0C9408184503490326033D03E4
:1006300041032B034C03520356035C036003640322
:100640006A036E032B03720378037C03809180009E
:100650008F7780938000E22FF0E0EE0FFF1FE85AC3
:10066000FE4FA591B4918FB7F894EC91611148C0F9
:1006700040954E234C938FBF0895809180008F7DCD
:10068000E8CF80918000877FE4CF84B58F7784BDE9
:10069000E2CF84B58F7DFBCF8091B0008F778093C0
:1006A000B000D9CF8091B0008F7DF9CF80919000BC
:1006B0008F7780939000CFCF809190008F7DF9CF7E
:1006C00080919000877FF5CF8091A0008F778093F5
:1006D000A000C1CF8091A0008F7DF9CF8091A000B4
:1006E000877FF5CF809120018F7780932001B3CF52
:1006F000809120018F7DF9CF80912001877FF5CFF8
:100700004E2BB8CF6091580481E06827609358045D
:100710008DE00C94F60290917B00977F90937B0084
:100720008653806480937C0080917A0080648093FB
:100730007A0080917A0086FDFCCF809178009091BC
:10074000790008953FB7F8948091190790911A079E
:10075000A0911B07B0911C0726B5A89B05C02F3F91
:1007600019F00196A11DB11D3FBFBA2FA92F982FD7
:100770008827BC01CD01620F711D811D911D42E0D2
:10078000660F771F881F991F4A95D1F708958F929A
:100790009F92AF92BF92CF92DF92EF92FF924B0166
:1007A0005C010E94A2036B017C010E94A2036C19F0
:1007B0007D098E099F09683E734081059105A8F364
:1007C00021E0821A9108A108B10888EEC80E83E0E2
:1007D000D81EE11CF11C81149104A104B10429F775
:1007E000FF90EF90DF90CF90BF90AF909F908F9051
:1007F00008952FB7F89460911507709116078091AE
:100800001707909118072FBF08958F929F92AF926C
:10081000BF92EF92FF920F931F93CF93DF9300D07D
:100820001F92CDB7DEB719821A821B821C8284E622
:1008300090E0A0E0B0E08093DD079093DE07A09306
:10084000DF07B093E0078E010F5F1F4F7E0185E049
:10085000E80EF11C0E94F9036093E1077093E20730
:100860008093E3079093E40789ED97E00E941B02D1
:1008700097FF38C00E94F9038090E1079090E2074B
:10088000A090E307B090E407681979098A099B09E9
:100890008090DD079090DE07A090DF07B090E00722
:1008A000681579058A059B05F8F28981813051F434
:1008B0008A818F3F39F48B818F3F21F481E09C81C5
:1008C0009F3F09F080E00F900F900F900F90DF9105
:1008D000CF911F910F91FF90EF90BF90AF909F909D
:1008E0008F900895F80181938F01EE16FF0609F0AD
:1008F000B1CFDBCF20910C05211109C021E020935D
:100900000C053091B0092091B1093CBD2DBD60E0CE
:10091000FC0184810C94F60261E0FC0184810E9458
:10092000F60280910C05811110920C0508958EBD80
:1009300000000DB407FEFDCF8EB508958FEF0C9427
:1009400097040F931F93CF93DF93EC010E94F90359
:100950008B010E949E048F3F69F00E94F903601B87
:10096000710B6C177D07A8F380E0DF91CF911F9189
:100970000F91089581E0F9CFCF92DF92EF92FF922D
:100980000F931F93CF93DF93EC01162F69017A0128
:100990008E81882389F08F8198859C012F5F3F4F3E
:1009A00038872F838230924018F40E949E04F3CF40
:1009B000CE010E948C041E82CE010E947A048CE239
:1009C00091E00E94A104812F80640E94970408E1B5
:1009D00010E0D701C601002E04C0B695A7959795E3
:1009E00087950A94D2F70E94970408501109083F8E
:1009F0008FEF180771F78FEF0E94970410E00E94A5
:100A00009E048A8787FF04C01F3F11F01F5FF7CF46
:100A1000DF91CF911F910F91FF90EF90DF90CF90DA
:100A20000895CF92DF92EF92FF920F93CF93DF93CF
:100A3000EC01690182E1411551056105710599F0EB
:100A40008B85833039F089E0440F551F661F771F6F
:100A50008A95D1F79A01AB0168E1CE010E94BC04EE
:100A6000882319F084E08D832DC08EEF0E949704B7
:100A700076018EEFD81AF70181917F010E949704C9
:100A8000EC14FD04C1F78FEF0E9497048FEF0E94D2
:100A900097040E949E048A878F71853071F401113A
:100AA00016C0CE010E948C0481E0DF91CF910F919E
:100AB000FF90EF90DF90CF90089581E18D83CE017C
:100AC0000E948C04CE010E948C0480E0EECF88E569
:100AD00092E00E94A104811102C085E1C4CF20E010
:100AE00030E0A9016DE0CE010E94BC04882311F022
:100AF00084E1B9CF0E949E048111FACFD2CF0F9327
:100B000040910E0550910F056091100570911105EF
:100B1000411551056105710589F0082F22E135E085
:100B200090E080E00E941105882349F010920E05A4
:100B300010920F05109210051092110581E00F918F
:100B400008950F93CF93C82F80910D05811105C093
:100B5000C1E08C2FCF910F910895409100025091E8
:100B6000010260910202709103020C2F22E135E034
:100B700090E080E00E941105811102C0C0E0E9CF41
:100B8000CC2331F381E00E947F058823B9F31092D2
:100B90000D05DFCFAF92BF92CF92DF92EF92FF921F
:100BA0001F93CF93DF936B017C01142F8091000280
:100BB00090910102A0910202B09103028C159D0553
:100BC000AE05BF0509F4ADC081E00E94A1058823F0
:100BD000E1F1809106008823A1F0809100009091BE
:100BE0000100A0910200B0910300C816D906EA06E0
:100BF000FB0639F48091070090910800892B09F4D5
:100C00004FC0C0920000D0920100E0920200F0922A
:100C1000030080910B00A7019601833039F099E021
:100C2000220F331F441F551F9A95D1F761E190E0C1
:100C300080E00E94BC04882391F083E0809305004B
:100C400090E080E00E948C0480E0DF91CF911F91C2
:100C5000FF90EF90DF90CF90BF90AF9008950E94EB
:100C6000F903EB010E949E0480930A008F3F79F400
:100C70000E94F9036C1B7D0B6D32714098F38FE07D
:100C80008093050090E080E00E948C04D9CF8E3FD5
:100C9000C1F5109208001092070081E080930600D1
:100CA000C2E1D5E082E1A82E87E0B82E0E949E0422
:100CB0008993AC16BD06D1F780910700909108008A
:100CC0009E5F9093080080930700209109002223E3
:100CD00019F081159240E8F0809106008823C9F050
:100CE00080910700909108009C012F5F3F4F309347
:100CF0000800209307008230924028F40E949E044E
:100D0000EFCF8DE0BDCF90E080E00E948C04109288
:100D10000600C0920002D0920102E0920202F0921C
:100D2000030240910D05412B40930D0581E08DCFCD
:100D30004F925F926F927F928F929F92AF92BF92EB
:100D4000CF92DF92EF92FF920F931F93CF93DF9397
:100D5000EC01423051056105710590F480E0DF91AE
:100D6000CF911F910F91FF90EF90DF90CF90BF90A8
:100D7000AF909F908F907F906F905F904F9008956D
:100D800089859A85AB85BC850196A11DB11D841707
:100D90009507A607B70710F3CB88DC88ED88FE8897
:100DA0008F89803109F042C0BB27A72F962F852F4E
:100DB000480159012A013B01C80ED91EEA1EFB1E3B
:100DC0008091000290910102A0910202B091030271
:100DD000C816D906EA06FB0699F58F898031C1F558
:100DE000B301A201552766277727440F551F4E5E92
:100DF0005A4FFA019182808280910D058160809323
:100E00000D058A89823080F08D819E81AF81B88501
:100E10008C0D9D1DAE1DBF1D80930E0590930F057B
:100E2000A0931005B093110581E099CFDB01CA01B1
:100E3000E7E0B695A79597958795EA95D1F7B8CF4E
:100E400040E0C701B6010E94CA058111C6CF86CF16
:100E5000B301A2014F77552766277727440F551F07
:100E6000440F551F4E5E5A4FFA0180829182A28232
:100E7000B382C2CF8F929F92AF92BF92CF92DF92F6
:100E8000EF92FF920F931F93CF93DF93FC01818525
:100E90009285A385B4850196A11DB11D8417950780
:100EA000A607B70770F480E0DF91CF911F910F91F3
:100EB000FF90EF90DF90CF90BF90AF909F908F907A
:100EC000089583889488A588B6888789803189F5B4
:100ED000BB27A72F962F852FE9016A017B018F0180
:100EE000BC01CD01680D791D8A1D9B1D80900002FB
:100EF00090900102A0900202B0900302861697061D
:100F0000A806B90601F5F8018789803111F5DD24BD
:100F1000EE24FF24F601EE0FFF1FEE5EFA4F8081F4
:100F20009181B0E0A0E088839983AA83BB8381E0AC
:100F3000BBCFDB01CA01C7E0B695A795979587950A
:100F4000CA95D1F7C9CF40E00E94CA058111DBCF15
:100F5000AACFE894C7F8DD24EE24FF24F601EE0FB3
:100F6000FF1FEE0FFF1FEE5EFA4F80819181A2817D
:100F7000B381BF70D8CF8F929F92AF92BF92CF9222
:100F8000DF92EF92FF920F931F93CF93DF93EC01C9
:100F90008D8181110EC080E0DF91CF911F910F9163
:100FA000FF90EF90DF90CF90BF90AF909F908F9089
:100FB00008950B891C892D893E890417150726077A
:100FC000370748F34A015B01823031F48A869B86F9
:100FD000AC86BD8681E0E0CF81149104A104B10408
:100FE00049F41E821F82188619861A861B861C8663
:100FF0001D86F0CF0A851B852C853D85EB8DFC8DEC
:10100000858590E00996B901A8014150510961090F
:101010007109082E04C076956795579547950A94EF
:10102000D2F775016401E1E0CE1AD108E108F108B8
:1010300004C0F694E794D794C7948A95D2F7C4165F
:10104000D506E606F70620F0012B022B032B11F53F
:101050008F89988DA98DBA8D8E839F83A887B98734
:101060008E010A5F1F4FC114D104E104F10409F499
:10107000ADCF4E815F816885798598018B8D9C8D80
:101080000E943A0791E0C91AD108E108F1088111DC
:10109000EACF81CFC41AD50AE60AF70AE1CF3F9218
:1010A0004F925F926F927F928F929F92AF92BF9278
:1010B000CF92DF92EF92FF920F931F93CF93DF9324
:1010C000CDB7DEB72C970FB6F894DEBF0FBECDBFFD
:1010D0005C01DC015B968D909C905C9716964D9020
:1010E0005D906D907C9019974114510461047104D6
:1010F00009F468C0BFEF4B1A5B0A6B0A7B0A312CFC
:10110000F40181859285A385B4859C01AD012F5F93
:101110003F4F4F4F5F4F29873A874B875C8773015B
:1011200062011D821E821F821886F40181859285CC
:10113000A385B4852D813E814F81588528173907B5
:101140004A075B0708F056C089859A85AB85BC8540
:101150008C159D05AE05BF0550F482E0C82ED12C3C
:10116000E12CF12C92E0492E512C612C712C9E0126
:101170002F5F3F4FB701A601C4010E943A078823A1
:10118000C9F189819A81AB81BC81892B8A2B8B2BF8
:1011900009F1260137019FEF491A590A690A790AAC
:1011A0002D813E814F8158852F5F3F4F4F4F5F4FBD
:1011B0002D833E834F8358873FEFC31AD30AE30A38
:1011C000F30AB3CFF40140805180628073803324EE
:1011D000339496CFC414D504E604F70409F70FEF4F
:1011E0001FEF2FEF3FE0B701A601C4010E94980650
:1011F000811119C080E02C960FB6F894DEBF0FBEA7
:10120000CDBFDF91CF911F910F91FF90EF90DF90B5
:10121000CF90BF90AF909F908F907F906F905F9096
:101220004F903F900895D50116964D915D916D9127
:101230007C911997411551056105710539F09701A8
:101240008601C4010E9498068823A1F2D501169652
:10125000CD92DD92ED92FC921997332051F0D70197
:10126000C6010196A11DB11DF40180839183A28363
:10127000B383F5018789908DA18DB28D892B8A2B3F
:101280008B2B39F48481C78AD08EE18EF28E8068F0
:101290008483F50184818062848381E0ACCF1F93D5
:1012A000CF93DF93EC01162F8C8187FF2AC06E85C8
:1012B0007F858889998941E00E94CA05882361F168
:1012C000EA8980E2E89FF0011124EE5EFA4F309740
:1012D00019F18D81823040F48B899C89AD89BE895A
:1012E000848F958FA68FB78F8F89988D938F828FDC
:1012F0008F89988DA98DBA8DB58BA48B8C818F77B2
:101300008C83111103C08C818F7E8C83812FDF91A0
:10131000CF911F910C94A10580E0DF91CF911F9197
:1013200008951F93CF93DF93EC018D81813031F0CD
:1013300090E080E0DF91CF911F9108958C8181FF33
:10134000F7CF82FD1BC090E080E00E947A040E94EB
:101350009E04182F90E080E00E948C041F3F41F70C
:101360008C8185FF1EC08D81882321F060E0CE0135
:101370000E944F098C818F7D8C83DACF4B895C89E9
:101380006D897E898A859B85AC85BD858417950787
:10139000A607B707C1F2CE010E94BB078111D3CFC8
:1013A000C7CF40910E0550910F05609110057091C7
:1013B0001105452B462B472B21F080E00E947F052D
:1013C000B7CF80618C832A853B85317080E092E0C5
:1013D000821B930BAFCF9F92AF92BF92CF92DF92BF
:1013E000EF92FF920F931F93CF93DF9300D01F9242
:1013F0001F92CDB7DEB78C016D83DC0115968C9101
:101400001597813009F0B9C014968C9181FFB5C051
:1014100082FD9FC0D8015B96ED91FC915C971A9676
:10142000AD90BD90CD90DC901D9794809A94B601BC
:10143000A50189E076956795579547958A95D1F7E7
:101440009422B1E0BB22992009F49FC0D8015B9699
:10145000ED91FC915C971696CD90DD90ED90FC900F
:101460001997B2E0CB1AD108E108F108858504C0CC
:10147000CC0CDD1CEE1CFF1C8A95D2F746855785E7
:1014800060897189C40ED51EE61EF71EC90CD11CD9
:10149000E11CF11CA114B10409F00AC1F801428554
:1014A00053856485758583899489A589B68948178C
:1014B00059076A077B0708F4FBC081E00E94A10579
:1014C000882309F45AC0C0920002D0920102E0922F
:1014D0000202F092030280910D05816080930D0558
:1014E000F501EE5EFA4F8D818083F8018285938548
:1014F000A485B5850196A11DB11D82879387A48718
:10150000B5874389548965897689481759076A07D9
:101510007B0738F42481838B948BA58BB68B206852
:101520002483D80114968C9183FD9FC081E090E0C4
:101530000F900F900F900F900F90DF91CF911F9110
:101540000F91FF90EF90DF90CF90BF90AF909F9062
:101550000895F80143895489658976898285938540
:10156000A485B585481759076A077B0709F452CF48
:10157000C8010E94BB0781114DCF81E090E0D801E6
:1015800013969C938E93129749C0D80116964D914D
:101590005D916D917C911997A114B10409F071C00E
:1015A000411551056105710589F557968D919D91FC
:1015B0000D90BC91A02D0097A105B10509F04FC079
:1015C000C8010E944F088823C1F2D8015B96ED91B3
:1015D000FC915C971696CD90DD90ED90FC9019975C
:1015E000B2E0CB1AD108E108F108858504C0CC0C23
:1015F000DD1CEE1CFF1C8A95D2F746855785608955
:101600007189C40ED51EE61EF71E48CF9E012F5FBE
:101610003F4FCF010E943A07811103C090E080E064
:1016200087CF89819A81AB81BC81F801238D348D6C
:10163000F901278948EF5FEF60E070E0203121F089
:1016400048EF5FEF6FEF7FE084179507A607B707B6
:1016500030F0C8010E944F088111F8CE8ECFF801FA
:1016600086839783A087B187F1CEF801858188238F
:1016700009F483CF61E0C8010E944F09811156CF60
:101680007CCF6A017B01B2E0CB1AD108E108F108F6
:10169000858504C0CC0CDD1CEE1CFF1C8A95D2F79E
:1016A0004685578560897189C40ED51EE61EF71ED2
:1016B00041E0C701B6010E94CA05811111CF5DCF7B
:1016C00008952091C204260F3327331F213231059C
:1016D000ECF42091E604FC0190E080E0243069F015
:1016E00082E00895A091C2042191AC014E555B4F58
:1016F000A40FB52FB11D2C930196861798F38091F6
:10170000C204680F6093C20480E0089581E00895E8
:101710008FEF9FEF08958FEF9FEF089580919B04C7
:1017200090E09195819591090895CF93DF93CB0136
:10173000EA01642F0E94610BCE01DF91CF910895E1
:10174000CF93DF931F92CDB7DEB7698361E0CE01FF
:1017500001960E94610B81E090E00F90DF91CF91A4
:10176000089590E080E008958091C1079091C207AC
:10177000DC01ED91FC910084F185E02D1995892B18
:10178000C9F183E199E00E941B022091D0073091BA
:10179000D1072115310541F34091D3079091D2072C
:1017A000491750F08091D7079091D80701969093F0
:1017B000D8078093D707D8CFE091D407E20FF32F53
:1017C000F11D80838091D40790E001966091D2074B
:1017D00070E00E94D2178093D4078091D3078F5F67
:1017E0008093D3079091D607981708F0BDCF8093C8
:1017F000D607BACF089580E090E0892B29F00E94A7
:101800005D0281110E94000080E090E0892B49F088
:1018100080E090E0892B29F00E94000081110E9455
:1018200000000E94530281110E94B40B80E090E0FE
:10183000892B29F00E94490281110C94000008951F
:101840000F931F93FB010081118122813381DC0101
:10185000A00FB11F6C9170E090E080E0962F882778
:101860007727662713964C911397642B11964C910A
:101870001197842B12964C91742B0C5F1F4F2F4F96
:101880003F4F00831183228333831F910F9108956B
:10189000DB014D915D916D917C911397FC01E40FFB
:1018A000F51F908181814E5F5F4F6F4F7F4F4D934A
:1018B0005D936D937C9313970895EF92FF920F932E
:1018C0001F93CF93DF939B012150310925303105C0
:1018D000A8F58A01EB017C0182E0FA018083618333
:1018E000AB01B701C80102960E942B18D7019701DE
:1018F0002C0F3D1F90E080E04D91E92FFF27E4275A
:10190000EE0FFF1FE45FFD4F40815181982F882724
:10191000842795272A173B0779F7FE013296E00FB7
:10192000F11F9083818383E08283CE010596DF914E
:10193000CF911F910F91FF90EF90089590E080E07C
:10194000F6CF0F931F93CF93DF93CDB7DEB72F97CB
:101950000FB6F894DEBF0FBECDBF93E39B871C8606
:101960008D877E876F87AE014F5F5F4F65E070E0C8
:10197000CE010B960E945D0C8C018091C107909165
:10198000C207DC01ED91FC910480F581E02D1995F1
:1019900080179107E0F08091C1079091C207A801DC
:1019A00041505109DC01ED91FC910280F381E02D61
:1019B000BE016F5F7F4F19952F960FB6F894DEBF6B
:1019C0000FBECDBFDF91CF911F910F9108958091F0
:1019D000BF079091C00701969093C0078093BF07FF
:1019E000EBCF0F931F93CF93DF93CDB7DEB72F9736
:1019F0000FB6F894DEBF0FBECDBF26E02B8720E0E8
:101A000030E04AE754E40E94FA150E9497179C8739
:101A10008D877E876F87AE014F5F5F4F65E070E017
:101A2000CE010B960E945D0C8C018091C1079091B4
:101A3000C207DC01ED91FC910480F581E02D199540
:101A400080179107D0F08091C1079091C207DC0107
:101A5000ED91FC910280F381E02DA801BE016F5F42
:101A60007F4F19952F960FB6F894DEBF0FBECDBFEE
:101A7000DF91CF911F910F9108958091BF079091B1
:101A8000C00701969093C0078093BF07EBCFCF921A
:101A9000DF92EF92FF920F931F93CF93DF93CDB717
:101AA000DEB7C554D1090FB6F894DEBF0FBECDBF67
:101AB0008E010F5F1F4F80E4F80111928A95E9F7BC
:101AC0008091D307823008F18091990481110AC076
:101AD00089E994E00E945601882321F080919904BD
:101AE0008230B1F780919A0481111FC08AE994E095
:101AF0000E945601882349F080919A0481508034D5
:101B0000A0F010929A0410929904CB5BDF4F0FB6AD
:101B1000F894DEBF0FBECDBFDF91CF911F910F9123
:101B2000FF90EF90DF90CF90089580919A0490E01D
:101B300002962091D3072817190639F334F3F12CB4
:101B4000E12C80919A048E151F0451F04CF0C801CD
:101B50008E0D9F1D0E945601FFEFEF1AFF0AF1CF75
:101B6000CE018F5B9F4F0E94560181E490E08C0F65
:101B70009D1F01960E94560120919A0430E0D801E1
:101B800090E080E0AD01401B510B4217530708F471
:101B900085C022962FAD229723963FAD239723270A
:101BA000322723272817390709F0ABCF26961FAE17
:101BB0002697CE018B5B9F4F0E94560126968FADD4
:101BC0002697833009F09DCF80919A0410929A0451
:101BD00010929904882309F498CF8981833309F0FE
:101BE00094CF6A817B818C819D810E94101855E081
:101BF000C52ED12CE12CF12C2596CCAEDDAEEEAE6F
:101C0000FFAE2597613A71058105910509F455C02C
:101C1000683271408140910509F077CFBE016F5B5A
:101C20007F4FC8010E94200CBE016F5B7F4FC8012F
:101C30000E94200CBE016F5B7F4FC8010E94480CC0
:101C400020916D0430916E0489010F5F1F4F109336
:101C50006E0400936D04A901475A5B4F7A01BC01E1
:101C6000990F880B990B0E949B1520E030E04AE702
:101C700054E40E94251720E030E048EC52E40E9432
:101C8000FA150E949E17F70160830431110508F4CC
:101C90003CCF10926E0410926D0437CF4D91E92F16
:101CA000FF27E427EE0FFF1FE45FFD4F40815181C6
:101CB000982F88278427952765CFBE016F5B7F4FBC
:101CC000C8010E94480CBE016F5B7F4FC8010E9493
:101CD000200CBE016F5B7F4FC8010E94480C209111
:101CE00097043091980479014FEFE41AF40AF092C6
:101CF0009804E0929704220F331F890101591B4F6A
:101D0000BC01990F880B990B0E949B1520E030E0D5
:101D100040E251E40E94251720E030E040E251E427
:101D20000E94FA150E949E17F80171836083F4E106
:101D3000EF16F10408F4E9CE10929804109297047B
:101D4000E4CECF93DF93EC0189ED97E00E943D0252
:101D5000892B29F089ED97E00E941B02F5CFFE0147
:101D600001900020E9F73197AF014C1B5D0BBE01DC
:101D700089ED97E00E94C6016FEF89ED97E00E9420
:101D800089026FEF89ED97E00E9489026FEF89ED7C
:101D900097E0DF91CF910C9489021F93CF93DF934B
:101DA00085ED8093BC0080919E0490919F04A0914A
:101DB000A004B091A1040796A11DB11D23E0B69522
:101DC000A795979587952A95D1F72091BC0024FD7A
:101DD00003C01092E60452C040919E0450919F04AB
:101DE0006091A0047091A104452B462B472B69F309
:101DF0000097A105B10541F025E32A95F1F7000010
:101E00000197A109B109E1CF80919D04C1E0C09380
:101E10009C04882399F1D091B8001091BA00809168
:101E2000BC008A7B8093BC0060E084E10E94F602E3
:101E300060E085E10E94F6021092E604C093E80497
:101E40001092E70461E084E10E94F60261E085E11E
:101E50000E94F6028091B9008E7F8093B900809134
:101E6000B9008D7F8093B90088E48093B80085E441
:101E70008093BC001093BA00D093B800DF91CF914B
:101E80001F9108951F920F920FB60F9211240BB657
:101E90000F922F933F934F935F936F937F938F9303
:101EA0009F93AF93BF93EF93FF9389ED97E00E94C9
:101EB0006702FF91EF91BF91AF919F918F917F91B9
:101EC0006F915F914F913F912F910F900BBE0F90AB
:101ED0000FBE0F901F9018951F920F920FB60F9282
:101EE00011240BB60F922F933F934F935F936F93F1
:101EF0007F938F939F93AF93BF93EF93FF9389ED5E
:101F000097E00E94F301FF91EF91BF91AF919F91F4
:101F10008F917F916F915F914F913F912F910F9092
:101F20000BBE0F900FBE0F901F9018951F920F922F
:101F30000FB60F9211240BB60F922F933F934F932E
:101F40005F936F937F938F939F93AF93BF93EF9321
:101F5000FF9386E798E00E946702FF91EF91BF919F
:101F6000AF919F918F917F916F915F914F913F9131
:101F70002F910F900BBE0F900FBE0F901F901895D2
:101F80001F920F920FB60F9211240BB60F922F9340
:101F90003F934F935F936F937F938F939F93AF93F1
:101FA000BF93EF93FF9386E798E00E94F301FF91C0
:101FB000EF91BF91AF919F918F917F916F915F91C1
:101FC0004F913F912F910F900BBE0F900FBE0F902E
:101FD0001F9018951F920F920FB60F9211240BB6F7
:101FE0000F922F933F934F935F936F937F938F93B2
:101FF0009F93AF93BF93EF93FF9383E199E00E9488
:102000006702FF91EF91BF91AF919F918F917F9167
:102010006F915F914F913F912F910F900BBE0F9059
:102020000FBE0F901F9018951F920F920FB60F9230
:1020300011240BB60F922F933F934F935F936F939F
:102040007F938F939F93AF93BF93EF93FF9383E11E
:1020500099E00E94F301FF91EF91BF91AF919F91A1
:102060008F917F916F915F914F913F912F910F9041
:102070000BBE0F900FBE0F901F9018951F920F92DE
:102080000FB60F9211242F933F938F939F93AF938B
:10209000BF938091150790911607A0911707B091F3
:1020A00018073091140723E0230F2D3758F50196B8
:1020B000A11DB11D20931407809315079093160757
:1020C000A0931707B09318078091190790911A07EA
:1020D000A0911B07B0911C070196A11DB11D809313
:1020E000190790931A07A0931B07B0931C07BF9181
:1020F000AF919F918F913F912F910F900FBE0F90B5
:102100001F90189526E8230F0296A11DB11DD2CF6E
:102110001F920F920FB60F9211240F900FBE0F90C7
:102120001F9018951F920F920FB60F9211240BB6A5
:102130000F922F933F934F935F936F937F938F9360
:102140009F93AF93BF93EF93FF938091B900887FE4
:10215000803609F44DC008F040C0883209F4A7C0A9
:1021600028F5803109F49BC0C8F4882309F4F7C02E
:10217000883009F494C0FF91EF91BF91AF919F9186
:102180008F917F916F915F914F913F912F910F9020
:102190000BBE0F900FBE0F901F901895883109F459
:1021A00086C0803241F78093E50414C0803409F47E
:1021B0009BC040F48033B9F38833E9F68093E5049B
:1021C00085ECAEC0803509F483C0883509F494C02D
:1021D000883489F60E94CD0ECECF883909F48AC0A2
:1021E00038F5883729F050F4883611F0803719F621
:1021F00083E08093E6041092E40455C0883809F423
:1022000079C0803919F0803809F0B5CF8091E404A5
:10221000803208F06FC0E091E40481E08E0F80937B
:10222000E4048091BB00F0E0EC53FB4F80833BC0A3
:10223000803B39F0D0F4803A09F477C0883A09F04D
:102240009ACF84E08093E6041092C3041092C204F3
:10225000F0E0E0E019958091C20481110FC081E0A7
:102260008093C2041092A20409C0803C09F4A8CF54
:10227000883C09F4A5CF883B09F07DCFE091C304E9
:1022800081E08E0F8093C304F0E0EE55FB4F808118
:102290008093BB009091C3048091C20429C08091B7
:1022A0000B058093BB0085EC8093BC0064CF9091BC
:1022B0000A0580910905981758F5E0910A0581E013
:1022C0008E0F80930A05F0E0E751FB4F8081E9CF44
:1022D000E0910A0581E08E0F80930A058091BB0092
:1022E000F0E0E751FB4F808390910A05809109054A
:1022F0009817C8F285E8D8CFE0910A0581E08E0FE3
:1023000080930A058091BB00F0E0E751FB4F80838A
:102310008091E80481115ECF81E08093E70484EA34
:102320008093BC001092E60426CF85EC8093BC001D
:102330001092E6048091E404803230F4E091E404E9
:10234000F0E0EC53FB4F10826091E40470E084EC09
:1023500094E0F0E0E0E019951092E4040CCF1092C4
:10236000E50438CFE9EDF7E01382128248EE53E03E
:1023700060E070E0448355836683778380E194E076
:102380009183808325E331E03587248724E331E09E
:102390003787268720E331E0318B208B21E331E042
:1023A000338B228B22E331E0358B248B26E331E023
:1023B000378B268B118E128E138E148EE6E7F8E083
:1023C000138212824483558366837783918380834B
:1023D00025ED30E03587248724ED30E037872687E8
:1023E00020ED30E0318B208B21ED30E0338B228BE0
:1023F00022ED30E0358B248B26ED30E0378B268BB9
:10240000118E128E138E148EE3E1F9E01382128284
:1024100044835583668377839183808385EC90E042
:102420009587848784EC90E09787868780EC90E09E
:10243000918B808B81EC90E0938B828B82EC90E08F
:10244000958B848B86EC90E0978B868B118E128E09
:10245000138E148EE0EBF9E080E580831182E2EBCD
:10246000F9E0158216821186138682E090E0A0E0E2
:10247000B0E084879587A687B78713A215A614A610
:1024800082E294E093A782A717A6EFE1FAE0108218
:1024900082E081838AE294E09383828315821482AE
:1024A000118610861386128617821682E3E1FAE0FF
:1024B000108283E0818382E394E093838283158298
:1024C0001482118610861386128617821682E7E020
:1024D000FAE0108286E0818389E394E0938382832B
:1024E0001582148211861086138612861782168230
:1024F000EBEFF9E0108281E081838FE394E0938336
:1025000082831582148211861086138612861782A2
:1025100016820895CF93DF93CDB7DEB72F970FB60E
:10252000F894DEBF0FBECDBF789484B5826084BDC1
:1025300084B5816084BD85B5826085BD85B58160C7
:1025400085BD80916E00816080936E001092810045
:102550008091810082608093810080918100816000
:1025600080938100809180008160809380008091C1
:10257000B10084608093B1008091B000816080934D
:10258000B0008091910082608093910080919100D1
:102590008160809391008091900081608093900091
:1025A0008091A10082608093A1008091A100816050
:1025B0008093A1008091A00081608093A000809111
:1025C00021018260809321018091210181608093AB
:1025D00021018091200181608093200180917A0007
:1025E000846080937A0080917A00826080937A0080
:1025F00080917A00816080937A0080917A0080686F
:1026000080937A001092C10040E855E260E070E0EB
:1026100089ED97E00E94810186E594E00E94A10E79
:1026200088E494E00E94A10E0E94050480E594E0F5
:102630000E94A10E0E94050482E893E09093040A90
:102640008093030A8BEF99E09093060A8093050A22
:1026500040E052EC61E070E083E199E00E9481018A
:1026600040E052EC61E070E086E798E00E94810172
:102670008DE197E09093D1078093D00780E8809315
:10268000D20786E798E09093C2078093C1077AE06B
:10269000E72EF12C10E000E087E30E948B03080F87
:1026A000191F63E070E080E090E00E94C70381E0C2
:1026B000E81AF10889F7C8016AE070E00E94D217B1
:1026C0006D5F7F4F70930702609306026AE0E62E0B
:1026D000F12C10E000E087E30E948B03080F191F24
:1026E00063E070E080E090E00E94C70391E0E91AA7
:1026F000F10889F7C8016AE070E00E94D2176D5FA7
:102700007F4F709305026093040245E0242E312C24
:102710005CE5852E53E0952EA12CB12CE090B307FB
:10272000F090B40787E30E948B03F701EE0FFF1FC1
:10273000E755F84F918380830091A7071091A80770
:102740008BE30E948B03F801EE0FFF1FE356F84F57
:10275000918380830F5F1F4F053011050CF01CC162
:102760001093A8070093A707AFEFEA1AFA0AB5E09B
:10277000EB16F1040CF015C1F092B407E092B30728
:102780008091AB079091AC072091A9073091AA07DF
:10279000820F931F2091AD073091AE07820F931FD8
:1027A0002091AF073091B007820F931FC0900602AF
:1027B000D09007020D2C000CEE08FF082091B10705
:1027C0003091B207820F931FB1010E94D217072EDA
:1027D000000C880B990B6C197D098E099F090E94CA
:1027E0009B1520E030E040E552E40E94FA152B01F1
:1027F0003C0164ED73E080E090E06C197D098E0986
:102800009F090E949B159B01AC01C301B2010E946C
:10281000251720E030E0A9010E94B9166093C30794
:102820007093C4078093C5079093C60780919D0756
:1028300090919E0720919F073091A007820F931FD0
:102840002091A1073091A207820F931F2091A30727
:102850003091A407820F931FC0900402D09005020C
:102860000D2C000CEE08FF082091A5073091A6075B
:10287000820F931FB1010E94D217072E000C880B04
:10288000990B6C197D098E099F090E949B1520E008
:1028900030E040E252E40E94FA152B013C01C501F0
:1028A000B4016C197D098E099F090E949B159B013B
:1028B000AC01C301B2010E94251720E030E0A9015C
:1028C0000E94B9166093C7077093C8078093C90721
:1028D0009093CA0789ED97E00E943D0218161906E9
:1028E0000CF074C06AE070E080E090E00E94C703E2
:1028F00089ED97E00E941B02182F853659F789ED64
:1029000097E00E943D0206972CF31093B50706EB63
:1029100017E089ED97E00E941B02F80181938F0177
:102920008CEB97E08E179F07A1F71092BC07809160
:10293000B9078F3F79F68091BA078F3F59F680919A
:10294000BB078F3F39F69091B7072091B607E8E0B3
:10295000F2E0A191B191109709F4BCCF8C912813AA
:10296000F8CF11968C9111979813F3CF4091B80737
:1029700050E070E060E04130510561057105B1F44F
:102980001496ED91FC911597309709F4A3CF169604
:102990008D919C9119959ECF1092A8071092A70730
:1029A000E3CE1092B4071092B307EACE452B462B24
:1029B000472B09F08FCF1896ED91FC91199730971E
:1029C00009F488CF1A968D919C91E4CF8091CC0721
:1029D00080FD14C08091D3079091CB0790FD74C007
:1029E00081110E94470D61EA70E080E090E00E9452
:1029F000A10C8091CB078F5F8093CB078091CC0790
:102A00009091CD07A091CE07B091CF070196A11D5F
:102A1000B11D84309105A105B10508F05DC080931A
:102A2000CC079093CD07A093CE07B093CF07C0906B
:102A3000C707D090C807E090C907F090CA0720E008
:102A400030E040E05FE3C701B6010E94CD171816E1
:102A50000CF055C097E09B8720E030E04AE754E453
:102A6000C701B6010E94FA150E9497179C878D87AF
:102A70007E876F87AE014F5F5F4F65E070E0CE01EC
:102A80000B960E945D0C8C018091C1079091C2074A
:102A9000DC01ED91FC910480F581E02D1995801702
:102AA000910718F18091C1079091C207DC01ED9167
:102AB000FC910280F381E02DA801BE016F5F7F4F82
:102AC00019950E94FB0B2ACE81110E94470D68E2E6
:102AD00071E081E090E08BCF1092CC071092CD078F
:102AE0001092CE071092CF07A2CF8091BF0790918E
:102AF000C00701969093C0078093BF07E2CFC090B4
:102B0000C307D090C407E090C507F090C60720E047
:102B100030E0A901C701B6010E94CD1718162CF4A8
:102B2000C701B6010E94F10CCCCF60E070E0CB0190
:102B3000F9CFE89409C097FB3EF490958095709585
:102B400061957F4F8F4F9F4F9923A9F0F92F96E9F9
:102B5000BB279395F695879577956795B795F1116E
:102B6000F8CFFAF4BB0F11F460FF1BC06F5F7F4F0B
:102B70008F4F9F4F16C0882311F096E911C077231D
:102B800021F09EE8872F762F05C0662371F096E826
:102B9000862F70E060E02AF09A95660F771F881FF5
:102BA000DAF7880F9695879597F90895990F000899
:102BB000550FAA0BE0E8FEEF16161706E807F9070F
:102BC000C0F012161306E407F50798F0621B730BAA
:102BD000840B950B39F40A2661F0232B242B252B2B
:102BE00021F408950A2609F4A140A6958FEF811DCE
:102BF000811D08950E940D160C947E160E94701679
:102C000038F00E94771620F0952311F00C94671687
:102C10000C946D1611240C94B2160E948F1670F34A
:102C2000959FC1F3950F50E0551F629FF001729F71
:102C3000BB27F00DB11D639FAA27F00DB11DAA1F80
:102C4000649F6627B00DA11D661F829F2227B00DCD
:102C5000A11D621F739FB00DA11D621F839FA00D58
:102C6000611D221F749F3327A00D611D231F849FA8
:102C7000600D211D822F762F6A2F11249F575040FF
:102C80009AF0F1F088234AF0EE0FFF1FBB1F661F7A
:102C9000771F881F91505040A9F79E3F510580F043
:102CA0000C9467160C94B2165F3FE4F3983ED4F38D
:102CB000869577956795B795F795E7959F5FC1F7E7
:102CC000FE2B880F911D9695879597F9089597F992
:102CD0009F6780E870E060E008959FEF80EC0895C2
:102CE00000240A94161617061806090608950024EB
:102CF0000A9412161306140605060895092E039465
:102D0000000C11F4882352F0BB0F40F4BF2B11F4D8
:102D100060FF04C06F5F7F4F8F4F9F4F089557FD37
:102D20009058440F551F59F05F3F71F04795880F39
:102D300097FB991F61F09F3F79F0879508951216D0
:102D400013061406551FF2CF4695F1DF08C016167C
:102D500017061806991FF1CF86957105610508942D
:102D60000895E894BB2766277727CB0197F9089544
:102D70005058BB27AA270E94D0160C947E160E949A
:102D8000701638F00E94771620F039F49F3F19F43E
:102D900026F40C946D160EF4E095E7FB0C94671680
:102DA000E92F0E948F1658F3BA176207730784073A
:102DB000950720F079F4A6F50C94B1160EF4E09581
:102DC0000B2EBA2FA02D0B01B90190010C01CA01E5
:102DD000A0011124FF27591B99F0593F50F4503E90
:102DE00068F11A16F040A22F232F342F4427585F82
:102DF000F3CF469537952795A795F0405395C9F79A
:102E00007EF41F16BA0B620B730B840BBAF0915051
:102E1000A1F0FF0FBB1F661F771F881FC2F70EC0F0
:102E2000BA0F621F731F841F48F4879577956795C3
:102E3000B795F7959E3F08F0B0CF9395880F08F0AF
:102E40009927EE0F9795879508950E9439170C944E
:102E50007E160E94771658F00E94701640F029F4F2
:102E60005F3F29F00C94671651110C94B2160C9424
:102E70006D160E948F1668F39923B1F3552391F3D1
:102E8000951B550BBB27AA2762177307840738F0D9
:102E90009F5F5F4F220F331F441FAA1FA9F335D036
:102EA0000E2E3AF0E0E832D091505040E695001CEA
:102EB000CAF72BD0FE2F29D0660F771F881FBB1FA4
:102EC000261737074807AB07B0E809F0BB0B802D82
:102ED000BF01FF2793585F4F3AF09E3F510578F0AE
:102EE0000C9467160C94B2165F3FE4F3983ED4F34B
:102EF000869577956795B795F7959F5FC9F7880F82
:102F0000911D9695879597F90895E1E0660F771FD3
:102F1000881FBB1F621773078407BA0720F0621B64
:102F2000730B840BBA0BEE1F88F7E09508950E948F
:102F30009E176894B1110C94B21608950E949716CA
:102F400088F09F5798F0B92F9927B751B0F0E1F06A
:102F5000660F771F881F991F1AF0BA95C9F714C01A
:102F6000B13091F00E94B116B1E008950C94B11601
:102F7000672F782F8827B85F39F0B93FCCF3869553
:102F800077956795B395D9F73EF4909580957095B0
:102F900061957F4F8F4F9F4F08950E94D61508F47B
:102FA0008FEF089597FB072E16F4009407D077FD56
:102FB00009D00E94171807FC05D03EF49095819522
:102FC0009F4F0895709561957F4F0895A1E21A2E45
:102FD000AA1BBB1BFD010DC0AA1FBB1FEE1FFF1FBD
:102FE000A217B307E407F50720F0A21BB30BE40B0D
:102FF000F50B661F771F881F991F1A9469F7609554
:103000007095809590959B01AC01BD01CF0108950D
:10301000EE0FFF1F881F8BBF0790F691E02D1994CC
:103020006927962769277827872778270895AA1B75
:10303000BB1B51E107C0AA1FBB1FA617B70710F0A3
:10304000A61BB70B881F991F5A95A9F780959095D5
:10305000BC01CD010895FB01DC0102C001900D927D
:0C30600041505040D8F70895F894FFCF7D
:10306C00FFFFFFFFAA00D200FB09000000002110A7
:10307C00422063308440A550C660E77008812991D6
:10308C004AA16BB18CC1ADD1CEE1EFF1311210027E
:10309C0073325222B5529442F772D6623993188326
:1030AC007BB35AA3BDD39CC3FFF3DEE3622443344A
:1030BC0020040114E664C774A44485546AA54BB576
:1030CC0028850995EEE5CFF5ACC58DD5533672261E
:1030DC0011163006D776F6669556B4465BB77AA7C6
:1030EC0019973887DFF7FEE79DD7BCC7C448E5586A
:1030FC008668A7784008611802282338CCC9EDD916
:10310C008EE9AFF9488969990AA92BB9F55AD44ABD
:10311C00B77A966A711A500A333A122AFDDBDCCB65
:10312C00BFFB9EEB799B588B3BBB1AABA66C877C89
:10313C00E44CC55C222C033C600C411CAEED8FFDB5
:10314C00ECCDCDDD2AAD0BBD688D499D977EB66E5D
:10315C00D55EF44E133E322E511E700E9FFFBEEF05
:10316C00DDDFFCCF1BBF3AAF599F788F8891A981C7
:10317C00CAB1EBA10CD12DC14EF16FE18010A100B1
:10318C00C230E3200450254046706760B9839893A1
:10319C00FBA3DAB33DC31CD37FE35EF3B102901201
:1031AC00F322D2323542145277625672EAB5CBA56D
:1031BC00A89589856EF54FE52CD50DC5E234C32451
:1031CC00A01481046674476424540544DBA7FAB741
:1031DC009987B8975FE77EF71DC73CD7D326F236A1
:1031EC009106B01657667676154634564CD96DC98D
:1031FC000EF92FE9C899E9898AB9ABA944586548F1
:10320C0006782768C018E1088238A3287DCB5CDBE0
:10321C003FEB1EFBF98BD89BBBAB9ABB754A545A40
:10322C00376A167AF10AD01AB32A923A2EFD0FEDAC
:10323C006CDD4DCDAABD8BADE89DC98D267C076C90
:10324C00645C454CA23C832CE01CC10C1FEF3EFF80
:10325C005DCF7CDF9BAFBABFD98FF89F176E367EE0
:10326C00554E745E932EB23ED10EF01E000000003F
:10327C008902C6010C02D6023D021B022F0200007D
:10328C000000EB09C6019109600B6E5F73706565F8
:10329C006400785F766F6C7400785F616D700062AB
:1032AC00745F6C6967687400626B636D643D3100B8
:0832BC0070616765203000001D
:00000001FF
