:100000000C9458000C9480000C9480000C94800098
:100010000C9480000C9480000C9480000C94800060
:100020000C9480000C9480000C9480000C940B06BF
:100030000C9480000C9480000C9480000C94800040
:100040000C9464040C9480000C940D040C94E7034D
:100050000C9480000C9480000C9480000C94800020
:100060000C94AE040C9480000000000025002800D1
:100070002B00040404040404040402020202020229
:10008000030303030303010204081020408001025C
:1000900004081020010204081020000000080002DB
:1000A0000100000304070000000000000000090D2B
:1000B00011241FBECFEFD8E0DEBFCDBF13E0A0E01C
:1000C000B1E0E2EDFFE102C005900D92A83DB1075D
:1000D000D9F725E0A8EDB3E001C01D92AA38B20718
:1000E000E1F710E0C8E5D0E004C02197FE010E94CE
:1000F000D30FC735D107C9F70E94660A0C94E70FE2
:100100000C940000E0917704F0917804309729F086
:100110001092700410926F0409940895CF93DF93A6
:10012000AC01E091FE03F091FF033097F1F0909164
:100130007204809171049817C0F090E0292F30E08C
:100140002617370754F4D901A252BC4FEA01C20F57
:10015000D31F88818C939F5FF1CF109272046093BC
:100160007104CB01DF91CF910994DF91CF91089574
:10017000CF92DF92EF92FF920F931F93CF93DF9373
:100180006C017A018B01C0E0D0E0CE15DF0589F06B
:10019000D8016D918D01D601ED91FC910190F08116
:1001A000E02DC6010995892B11F47E0102C021962C
:1001B000ECCFC701DF91CF911F910F91FF90EF908E
:1001C000DF90CF900895FC01538D448D252F30E0B2
:1001D000842F90E0821B930B541710F0CF96089554
:1001E00001970895FC01918D828D981761F0828DA1
:1001F000DF01A80FB11D5D968C91928D9F5F9F735B
:10020000928F90E008958FEF9FEF0895FC01918DFC
:10021000828D981731F0828DE80FF11D858D90E069
:1002200008958FEF9FEF0895FC01918D228D892F06
:1002300090E0805C9F4F821B91098F7399270895EE
:100240008FEA94E00E94140121E0892B09F420E058
:10025000822F0895FC01848DDF01A80FB11DA35AE0
:10026000BF4F2C91848D90E001968F739927848FD6
:10027000A689B7892C93A089B1898C9180648C93CD
:10028000938D848D981306C00288F389E02D8081B8
:100290008F7D80830895EF92FF920F931F93CF93EA
:1002A000DF93EC0181E0888F9B8D8C8D981305C0C6
:1002B000E889F989808185FD24C0F62E0B8D10E038
:1002C0000F5F1F4F0F731127E02E8C8DE8120CC0AB
:1002D0000FB607FCFACFE889F989808185FFF5CF51
:1002E000CE010E942A01F1CF8B8DFE01E80FF11D96
:1002F000E35AFF4FF0820B8FEA89FB89808180628D
:1003000007C0EE89FF896083E889F989808180646C
:10031000808381E090E0DF91CF911F910F91FF905A
:10032000EF900895CF93DF93EC01888D8823C9F077
:10033000EA89FB89808185FD05C0A889B9898C91EE
:1003400086FD0FC00FB607FCF5CF808185FFF2CF89
:10035000A889B9898C9185FFEDCFCE010E942A0131
:10036000E7CFDF91CF91089580E090E0892B29F0CD
:100370000E94200181110C940000089590E0FC017E
:10038000E656FF4F3491FC01EA57FF4F2491FC01E0
:10039000EE58FF4FE491EE2309F43BC0332339F1CB
:1003A000333091F038F43130A9F0323001F584B5B2
:1003B0008F7D12C0373091F03830A1F03430B9F46D
:1003C000809180008F7D03C0809180008F77809323
:1003D00080000DC084B58F7784BD09C08091B000C6
:1003E0008F7703C08091B0008F7D8093B000F0E0E4
:1003F000EE0FFF1FE859FF4FA591B4918FB7F89406
:10040000EC91611103C020952E2301C02E2B2C935B
:100410008FBF08958E3008F08E508770806480936F
:100420007C0080917A00806480937A0080917A00C9
:1004300086FDFCCF809178002091790090E0922B8E
:10044000089585ED8093BC008091BC0084FDFCCFB5
:1004500010926E04089540912004262F30E0240F5E
:10046000311D21323105DCF420916E042430C9F4B1
:10047000FC0180E090E0861758F43091200421912F
:10048000DC01A050BC4FA30FB11D2C930196F3CFFC
:1004900080912004680F6093200480E0089581E03B
:1004A000089582E008950895E091720480917104A6
:1004B000E81730F4F0E0E252FC4F808190E00895BC
:1004C0008FEF9FEF089590917204809171049817B7
:1004D00050F4E92FF0E0E252FC4F208130E09F5FC2
:1004E0009093720402C02FEF3FEFC90108958091ED
:1004F000710490E020917204821B91090895CF93BA
:10050000DF9300D0CDB7DEB7CB01642F49835A8388
:100510000E942B024981842F5A81952F0F900F90B2
:10052000DF91CF910895CF93DF931F92CDB7DEB7C0
:10053000698361E0CE0101960E942B0281E090E088
:100540000F90DF91CF910895089580E090E0089595
:100550000E94D90F6115710579F0FB01019000200F
:10056000E9F73197AF01461B570BDC01ED91FC9188
:100570000280F381E02D099480E090E008954F928D
:100580005F926F927F92EF92FF920F931F93CF93A0
:10059000DF93CDB7DEB7A1970FB6F894DEBF0FBEDD
:1005A000CDBF7C01FA01CB0119A2223008F42AE068
:1005B0008E010F5D1F4F422E512C612C712CBF01FB
:1005C000A30192010E949D0FF901CA010150110976
:1005D0006A3014F4605D01C0695CD8016C93232B10
:1005E000242B252B61F7B801C7010E94AA02A1960E
:1005F0000FB6F894DEBF0FBECDBFDF91CF911F9134
:100600000F91FF90EF907F906F905F904F900895C3
:100610000F931F93CF93DF93EC010E94AA028C01EA
:1006200068E273E0CE010E94AA02800F911FDF9161
:10063000CF911F910F910895CF92DF92EF92FF9289
:100640006C01990FEE08FF08F7FE14C0E091AF04AB
:10065000F091B0040190F081E02D6DE28FEA94E01A
:10066000099544275527BA014C195D096E097F0980
:100670002AE003C02AE0B701A6018FEA94E00E94B5
:10068000BF0268E273E08FEA94E00E94AA026091E0
:10069000A9048CE495E00E9493026091AA048CE482
:1006A00095E00E949302609199048CE495E00E9489
:1006B000930260919A048CE495E00E949302609109
:1006C0009B048CE495E00E94930260919C048CE46E
:1006D00095E00E9493026091A5048CE495E00E944D
:1006E00093026091A6048CE495E00E9493026091CD
:1006F000A7048CE495E00E9493026091A8048CE426
:1007000095E00E9493026091A1048CE495E00E9420
:1007100093026091A2048CE495E00E9493026091A0
:10072000A3048CE495E00E9493026091A4048CE4FD
:1007300095E00E94930260919D048CE495E00E94F4
:10074000930260919E048CE495E00E949302609174
:100750009F048CE495E00E9493026091A0048CE4D5
:1007600095E00E949302609189048CE495E00E94D8
:10077000930260918A048CE495E00E949302609158
:100780008B048CE495E00E94930260918C048CE4CD
:1007900095E00E949302609179048CE495E00E94B8
:1007A000930260917A048CE495E00E949302609138
:1007B0007B048CE495E00E94930260917C048CE4BD
:1007C00095E0FF90EF90DF90CF900C9493021F92F2
:1007D0000F920FB60F9211242F933F934F935F9375
:1007E0006F937F938F939F93AF93BF93EF93FF93F9
:1007F0008FEA94E00E942A01FF91EF91BF91AF919F
:100800009F918F917F916F915F914F913F912F9128
:100810000F900FBE0F901F9018951F920F920FB65A
:100820000F9211242F938F939F93EF93FF93E09157
:10083000BF04F091C0048081E091C504F091C6042A
:1008400082FD12C090818091C8048F5F8F732091C8
:10085000C904821751F0E091C804F0E0E155FB4F64
:10086000958F8093C80401C08081FF91EF919F9183
:100870008F912F910F900FBE0F901F9018953FB73B
:10088000F8948091680490916904A0916A04B091F1
:100890006B0426B5A89B05C02F3F19F00196A11D3A
:1008A000B11D3FBFBA2FA92F982F8827820F911D06
:1008B000A11DB11DBC01CD0142E0660F771F881F4D
:1008C000991F4A95D1F708951F920F920FB60F9274
:1008D00011242F933F938F939F93AF93BF93809156
:1008E000AB049091AC04A091AD04B091AE043091F2
:1008F000670423E0230F2D3720F40196A11DB11DBD
:1009000005C026E8230F0296A11DB11D20936704A0
:100910008093AB049093AC04A093AD04B093AE0469
:100920008091680490916904A0916A04B0916B046D
:100930000196A11DB11D8093680490936904A09352
:100940006A04B0936B04BF91AF919F918F913F91D7
:100950002F910F900FBE0F901F9018951F920F921E
:100960000FB60F9211242F933F934F935F936F9382
:100970007F938F939F93AF93BF93EF93FF93809158
:10098000B900887F803609F49CC068F5883209F484
:100990005BC090F4803109F454C038F4882309F422
:1009A000F6C0883009F44DC0F6C0883109F44CC057
:1009B000803209F45DC0EFC0803409F468C048F4A7
:1009C000803309F455C0883309F0E5C080934304AF
:1009D000D8C0803509F44FC0883509F45DC088342B
:1009E00009F0D9C0D6C0883909F4C7C0A8F488373F
:1009F00009F467C038F4883609F463C0803709F415
:100A000060C0C9C0883809F4B8C0803909F45FC033
:100A1000803809F0C0C05BC0803B09F486C038F460
:100A2000803A09F466C0883A09F47FC0B4C0803CBB
:100A300009F4A7C0883C09F4A4C0883B09F48AC023
:100A4000AAC08091660410C09091650480916404EE
:100A5000981770F5E091650481E08E0F809365042E
:100A6000F0E0EC5BFB4F80818093BB0085EC86C09F
:100A7000809343048EC0E091650481E08E0F8093E3
:100A800065048091BB00F0E0EC5BFB4F80839091AC
:100A90006504809164046EC0E091650481E08E0F6E
:100AA000809365048091BB00F0E0EC5BFB4F80839A
:100AB00080916D0481116DC081E080936C0484EAA3
:100AC00061C083E080936E0410924204CFCF809186
:100AD0004204803208F051C0E091420481E08E0F60
:100AE000809342048091BB00F0E0EE5DFB4F808379
:100AF000BDCF85EC8093BC0010926E0480914204BF
:100B0000803230F4E0914204F0E0EE5DFB4F108261
:100B10006091420470E0E0917304F091740482E209
:100B200094E009951092420436C084E080936E04EC
:100B30001092210410922004E0917504F091760443
:100B4000099580912004811105C081E080932004E3
:100B500010920004E091210481E08E0F8093210423
:100B6000F0E0E050FC4F80818093BB009091210425
:100B700080912004981708F479CF85E88093BC0011
:100B80000AC085EC8093BC0010926E0404C01092E1
:100B900043040E942102FF91EF91BF91AF919F9179
:100BA0008F917F916F915F914F913F912F910F9016
:100BB0000FBE0F901F901895CF92DF92EF92FF9289
:100BC0000F931F93FB010081118122813381DC018E
:100BD000A00FB11F13966C9113974C91C62ED12C78
:100BE000E12CF12CF42A11964C911197E42A1296DB
:100BF0004C91C701B601742B0C5F1F4F2F4F3F4F15
:100C000000831183228333831F910F91FF90EF9014
:100C1000DF90CF9008951F920F920FB60F9211247C
:100C20000F931F932F933F934F935F936F937F93F4
:100C30008F939F93AF93BF93CF93DF93EF93FF93E4
:100C4000C091DC03D091DD0385E10E940A02FE0120
:100C5000EE0FFF1FE157FB4F918380830091DA0372
:100C60001091DB0380E10E940A02F801EE0FFF1FE2
:100C7000E158FB4F918380830F5F1F4F05301105B3
:100C80002CF41093DB030093DA0304C01092DB030F
:100C90001092DA032196C530D1052CF4D093DD03F0
:100CA000C093DC0304C01092DD031092DC0380913A
:100CB000D8039091D90301969093D9038093D803D8
:100CC000FF91EF91DF91CF91BF91AF919F918F9164
:100CD0007F916F915F914F913F912F911F910F9154
:100CE0000F900FBE0F901F901895EF92FF920F93E9
:100CF0001F93CF93DF932091880530918905232B93
:100D000049F18B01EC017C01809188059091890566
:100D100097012C1B3D0B0217130794F0F70141912B
:100D20007F0150E060E070E02AE00E94BF0265EDC4
:100D300073E080918805909189050E94AA02E4CF12
:100D40006AE273E0DF91CF911F910F91FF90EF90D6
:100D50000C940803DF91CF911F910F91FF90EF90BA
:100D600008958F929F92AF92BF92CF92DF92EF92AF
:100D7000FF920E943F044B015C0183E0C82ED12CFE
:100D8000E12CF12C0E943F04DC01CB018819990968
:100D9000AA09BB09883E9340A105B10558F021E09E
:100DA000C21AD108E108F10888EE880E83E0981E87
:100DB000A11CB11CC114D104E104F10419F7FF9086
:100DC000EF90DF90CF90BF90AF909F908F9008955D
:100DD000CF92DF92EF92FF920F931F93CF93DF9307
:100DE000CDB7DEB7DA950FB6F894DEBF0FBECDBF34
:100DF0008B01DC019C01260F371FE12CF12CA2177F
:100E0000B30779F04D91EF2DFF27E427EE0FFF1F79
:100E1000EC5FFE4F40815181FE2CEE24E426F52646
:100E2000EECF013021E012073CF422E029830A834F
:100E300032E0C32ED12C07C023E029831A830B8311
:100E400023E0C22ED12CA801BC0181E090E08C0FE0
:100E50009D1F8C0D9D1D0E94DE0F0C0D1D1DE1E0E0
:100E6000F0E0EC0FFD1FE00FF11FF082FE01E00F3C
:100E7000F11FE282780183E0E80EF11CFE01E00F31
:100E8000F11F83E08383E1E0F0E0EC0FFD1FEE0D46
:100E9000FF1D10828091880590918905009749F087
:100EA0006BE273E00E94AA02B701CE0101960E9494
:100EB00075068091860590918705DC01ED91FC9186
:100EC0000280F381E02DA701BE016F5F7F4F09957E
:100ED000C701D3950FB6F894DEBF0FBECDBFDF912B
:100EE000CF911F910F91FF90EF90DF90CF900895D9
:100EF000CF93DF93CDB7DEB727970FB6F894DEBF59
:100F00000FBECDBF22E2298327E72A8326E02B8369
:100F100020E030E04AE754E40E94F80E0E942F0ED1
:100F20009C838D837E836F8367E070E0CE010196A2
:100F30000E94E80665E070E0CE0103960E94E80694
:100F400027960FB6F894DEBF0FBECDBFDF91CF91CD
:100F500008952F923F924F925F926F927F928F925D
:100F60009F92AF92BF92CF92DF92EF92FF920F9338
:100F70001F93CF93DF93CDB7DEB7C150D2400FB6EA
:100F8000F894DEBF0FBECDBF84E0CF5FDD4F888316
:100F9000C150D24061E070E0CE018F5F9D4F0E9452
:100FA000E8068FB7F8944091AB045091AC0460917F
:100FB000AD047091AE048FBF1A012B0124E6220EFE
:100FC000311C411C511C712C612CB12CC12CDD2415
:100FD000D39400E010E02FB7F8948091AB04909187
:100FE000AC04A091AD04B091AE042FBF821593055F
:100FF000A405B50508F06EC0B110C5C1EE24E39498
:10100000F12CEC0EFD1EE00EF11E809186059091F4
:101010008705DC01ED91FC910084F185E02D0995B7
:10102000892BC9F20F5F1F4F80918605909187052C
:10103000DC01ED91FC910284F385E02D0995F70127
:10104000808302301105F9F42981223039F0809132
:10105000880590918905233051F00EC08A8190E077
:101060006C01F5E0CF0ED11C782E692E11C00097CF
:1010700079F06FE373E004C0009751F060E773E02C
:101080000E94080305C00F3F110511F008F0A3CF1F
:101090000C151D05B9F4D7018C91833091F4E1E072
:1010A000F0E0EC0FFD1FE00FF11F1082809188052A
:1010B00090918905009751F062E873E00E9408035F
:1010C00005C06801BFEFEB1AFB0A9FCF6801BB2484
:1010D000B39481CFB11057C1809188059091890553
:1010E000009721F16AE973E00E9408031FC0809114
:1010F000880590918905009709F4C7C161EB73E0F9
:101100000E94AA028090880590908905A70160E05E
:1011100070E02AE0C4010E94BF0268E273E0C401EB
:101120000E94AA02E016F10609F480C180E090E076
:10113000C8970CF426C1CF5FDE4F8881C150D140E3
:10114000843009F01EC1CE5FDE4F8881C250D1408D
:1011500080935805CD5FDE4F8881C350D140809386
:101160005905CC5FDE4F8881C450D14080935A0529
:1011700084E090E0A0E0B0E089839A83AB83BC83F5
:10118000CB5FDE4F8881C550D14080935B0501E085
:1011900011E00C0F1D1F0F5F1F4FBE016F5F7F4FD0
:1011A000C8010E94DC050E94670E20E030E048EC98
:1011B00052E40E94BD0D60935C0570935D058093C1
:1011C0005E0590935F05BE016F5F7F4FC8010E946F
:1011D000DC050E94670E20E030E048EC52E40E94FB
:1011E000BD0D6093600570936105809362059093D7
:1011F000630589819A81AB81BC816C017D01E8E046
:10120000CE0ED11CE11CF11CE3E0F1E0EC0FFD1F60
:10121000EC0DFD1D6081E2E0F1E0EC0FFD1FEC0D37
:10122000FD1D208170E0722B0A96A11DB11D8983DE
:101230009A83AB83BC83072E000C880B990B0E940A
:10124000670E20E030E04AE754E40E94BD0D609351
:101250006405709365058093660590936705BE01EC
:101260006F5F7F4FC8010E94DC0560936805709333
:10127000690580936A0590936B0589819A81AB819A
:10128000BC81E3E0F1E0EC0FFD1FE80FF91F608186
:10129000E2E0F1E0EC0FFD1FE80FF91F208170E0A4
:1012A000722B0296A11DB11D89839A83AB83BC83E7
:1012B000072E000C880B990B0E94670E20E030E08F
:1012C00040E251E40E94BD0D60936C0570936D0582
:1012D00080936E0590936F05BE016F5F7F4FC801CD
:1012E0000E94DC050E94670E20E030E44CE156E4E9
:1012F0000E94BD0D60937005709371058093720517
:1013000090937305BE016F5F7F4FC8010E94DC059B
:101310000E94670E20E030E44CE156E40E94BD0DCF
:1013200060937405709375058093760590937705A7
:1013300089819A81AB81BC810896A11DB11D8983E9
:101340009A83AB83BC83BE016F5F7F4FC8010E944D
:10135000DC05609378057093790580937A05909306
:101360007B05BE016F5F7F4FC8010E94DC05609363
:101370007C0570937D0580937E0590937F0581E0C9
:101380008BC080E089C0EEEFFFEFEC0FFD1FEC0D8E
:10139000FD1D008110E0102F0027EFEFFFEFEC0F95
:1013A000FD1FEC0DFD1D8081080F111D809188052A
:1013B000909189050097A1F062EA73E00E94AA0269
:1013C000E0908805F0908905A80160E070E02AE0CF
:1013D000C7010E94BF0268E273E0C7010E94AA022F
:1013E0008A80912C5E01B1E0AB0EBB1EA401BE0150
:1013F0006D5F7F4FC5010E94DE0FD501E12CF12CFE
:10140000CD018A199B098815990508F070CE8D9138
:10141000EF2DFF27E827EE0FFF1FEC5FFE4F8081C7
:101420009181FE2CEE24E826F926EACF80918805EA
:1014300090918905009769F16CEB73E00E94AA0214
:10144000B601CE0101960E94750668E273E08091B4
:101450008805909189050E94AA0267EC73E080914B
:101460008805909189050E94AA026A8170E0615006
:101470007109C5010E94750668E273E080918805D4
:10148000909189050E94AA0204C0E016F10609F0B5
:101490004DCE872D962D4CCECF5FDD4F0FB6F894F5
:1014A000DEBF0FBECDBFDF91CF911F910F91FF9097
:1014B000EF90DF90CF90BF90AF909F908F907F90F4
:1014C0006F905F904F903F902F900895CF93DF9350
:1014D000CDB7DEB727970FB6F894DEBF0FBECDBFEE
:1014E000789484B5826084BD84B5816084BD85B5FF
:1014F000826085BD85B5816085BD80916E0081600B
:1015000080936E00109281008091810082608093B0
:1015100081008091810081608093810080918000B2
:101520008160809380008091B10084608093B100DD
:101530008091B00081608093B00080917A008460D7
:1015400080937A0080917A00826080937A00809103
:101550007A00816080937A0080917A00806880931D
:101560007A001092C1001092AA041092A904E0918E
:10157000BF04F091C00482E08083E091BB04F0914D
:10158000BC041082E091BD04F091BE0480E1808330
:101590001092C704E091C304F091C40486E08083F4
:1015A000E091C104F091C204808180618083E09168
:1015B000C104F091C204808188608083E091C104FD
:1015C000F091C204808180688083E091C104F09131
:1015D000C20480818F7D80838FEA94E09093870599
:1015E00080938605F89410928000109281001092EA
:1015F00085001092840084EF91E09093890080939D
:1016000088008091810088608093810080918100B2
:1016100085608093810080916F00826080936F006D
:1016200078944AE0E42EF12C00E010E085E10E947D
:101630000A02080F191F0E94B10621E0E21AF10800
:10164000A9F7C8016AE070E00E94890F6D5F7F4FC3
:1016500070930301609302013AE0E32EF12C00E065
:1016600010E085E10E940A02080F191F0E94B106CE
:1016700081E0E81AF108A9F7C8016AE070E00E9469
:10168000890F6D5F7F4F709301016093000180E1CE
:101690008093BA0082E890E090937604809375047A
:1016A0008EE890E090937404809373041092720417
:1016B000109271041092700410926F0410926E04D4
:1016C00081E080936D0410926C0461E082E10E94DD
:1016D000BE0161E083E10E94BE018091B9008E7F6E
:1016E0008093B9008091B9008D7F8093B90088E420
:1016F0008093B80085E48093BC008CE193E09093E4
:1017000078048093770405E010E08CE5882E83E070
:10171000982EA12CB12C97E7292E27E0322E80910C
:10172000A9049091AA0401969093AA048093A90415
:1017300061E08DE00E94BE010E94A907882309F4A0
:1017400042C08091600590916105A0916205B091C1
:1017500063058093A5049093A604A093A704B09377
:10176000A8048091700590917105A0917205B091C7
:1017700073058093A1049093A204A093A304B09353
:10178000A40480916C0590916D05A0916E05B091B7
:101790006F0580939D0490939E04A0939F04B09343
:1017A000A004609168057091690580916A05909127
:1017B0006B050E94670E6093990470939A0480935E
:1017C0009B0490939C0460E08DE00E94BE01F8941D
:1017D00020918F0430919004809191049091920413
:1017E000820F931F2091930430919404820F931FD2
:1017F0002091950430919604820F931F20919704B5
:1018000030919804820F931FB8010E94890F709342
:101810008E0460938D04C0900201D09003010D2CC2
:10182000000CEE08FF08CB01770FAA0BBB0BBC0125
:10183000CD016C197D098E099F090E94670E20E079
:1018400030E040E552E40E94F80E2B013C0164EDCB
:1018500073E080E090E06C197D098E099F090E9479
:10186000670E9B01AC01C301B2010E94BD0D20E0D7
:1018700030E0A9010E94510D6093890470938A049D
:1018800080938B0490938C0420917F04309180048A
:101890008091810490918204820F931F2091830490
:1018A00030918404820F931F209185043091860427
:1018B000820F931F2091870430918804820F931F19
:1018C000B8010E94890F70937E0460937D04C090DC
:1018D0000001D09001010D2C000CEE08FF08CB0197
:1018E000770FAA0BBB0BBC01CD016C197D098E09CA
:1018F0009F090E94670E20E030E040E252E40E941F
:10190000F80E2B013C01C501B4016C197D098E094B
:101910009F090E94670E9B01AC01C301B2010E94A6
:10192000BD0D20E030E0A9010E94510D60937904C3
:1019300070937A0480937B0490937C04789420E0E5
:1019400030E040E05FE36091790470917A04809127
:101950007B0490917C040E94F30E1816BCF520E0E5
:1019600030E040E251E46091990470919A048091D2
:101970009B0490919C040E94F30E18160CF03FC03B
:10198000F8946091790470917A0480917B0490912D
:101990007C0422E229832A823B8220E030E04AE76D
:1019A00054E40E94F80E0E942F0E9C838D837E8348
:1019B0006F8367E070E0CE0101960E94E80665E063
:1019C00070E0CE0103960E94E8061FC020E030E0E0
:1019D000A9016091890470918A0480918B0490918F
:1019E0008C040E94F30E181654F4F8946091890444
:1019F00070918A0480918B0490918C0404C0F894B7
:101A000060E070E0CB010E94780778940E94B401F6
:101A100086CEEFEAF4E01382128288EE93E0A0E033
:101A2000B0E084839583A683B78328E033E03183D5
:101A3000208325EC30E03587248724EC30E037879D
:101A4000268720EC30E0318B208B21EC30E0338B8B
:101A5000228B22EC30E0358B248B26EC30E0378B68
:101A6000268B118E128E138E148EECE4F5E0138209
:101A7000128284839583A683B7838AE193E091835E
:101A80008083E8E5F5E017A616A611AA10AA8FE74D
:101A900090E091A780A793A782A715A614A6089502
:101AA0005058BB27AA270E94680D0C94B90E0E94BB
:101AB000AB0E38F00E94B20E20F039F49F3F19F4BB
:101AC00026F40C94A80E0EF4E095E7FB0C94A20EFD
:101AD000E92F0E94CA0E58F3BA17620773078407EA
:101AE000950720F079F4A6F50C94EC0E0EF4E09531
:101AF0000B2EBA2FA02D0B01B90190010C01CA01C8
:101B0000A0011124FF27591B99F0593F50F4503E72
:101B100068F11A16F040A22F232F342F4427585F64
:101B2000F3CF469537952795A795F0405395C9F77C
:101B30007EF41F16BA0B620B730B840BBAF0915034
:101B4000A1F0FF0FBB1F661F771F881FC2F70EC0D3
:101B5000BA0F621F731F841F48F4879577956795A6
:101B6000B795F7959E3F08F0B0CF9395880F08F092
:101B70009927EE0F9795879508950E94D10D0C94A3
:101B8000B90E0E94B20E58F00E94AB0E40F029F43C
:101B90005F3F29F00C94A20E51110C94ED0E0C94A1
:101BA000A80E0E94CA0E68F39923B1F3552391F34E
:101BB000951B550BBB27AA2762177307840738F0BC
:101BC0009F5F5F4F220F331F441FAA1FA9F335D019
:101BD0000E2E3AF0E0E832D091505040E695001CCD
:101BE000CAF72BD0FE2F29D0660F771F881FBB1F87
:101BF000261737074807AB07B0E809F0BB0B802D65
:101C0000BF01FF2793585F4F3AF09E3F510578F090
:101C10000C94A20E0C94ED0E5F3FE4F3983ED4F3C7
:101C2000869577956795B795F7959F5FC9F7880F64
:101C3000911D9695879597F90895E1E0660F771FB6
:101C4000881FBB1F621773078407BA0720F0621B47
:101C5000730B840BBA0BEE1F88F7E09508950E9472
:101C6000360E6894B1110C94ED0E08950E94D20EB8
:101C700088F09F5798F0B92F9927B751B0F0E1F04D
:101C8000660F771F881F991F1AF0BA95C9F714C0FD
:101C9000B13091F00E94EC0EB1E008950C94EC0E7E
:101CA000672F782F8827B85F39F0B93FCCF3869536
:101CB00077956795B395D9F73EF490958095709593
:101CC00061957F4F8F4F9F4F0895E89409C097FB10
:101CD0003EF490958095709561957F4F8F4F9F4F03
:101CE0009923A9F0F92F96E9BB279395F695879547
:101CF00077956795B795F111F8CFFAF4BB0F11F40A
:101D000060FF1BC06F5F7F4F8F4F9F4F16C08823B0
:101D100011F096E911C0772321F09EE8872F762FE6
:101D200005C0662371F096E8862F70E060E02AF027
:101D30009A95660F771F881FDAF7880F9695879513
:101D400097F9089597F99F6780E870E060E008953B
:101D50009FEF80EC089500240A94161617061806C3
:101D60000906089500240A9412161306140605069F
:101D70000895092E0394000C11F4882352F0BB0F30
:101D800040F4BF2B11F460FF04C06F5F7F4F8F4F93
:101D90009F4F089557FD9058440F551F59F05F3FCE
:101DA00071F04795880F97FB991F61F09F3F79F07D
:101DB00087950895121613061406551FF2CF4695FF
:101DC000F1DF08C0161617061806991FF1CF869581
:101DD0007105610508940895E894BB276627772765
:101DE000CB0197F908950E94650F08F48FEF0895CD
:101DF0000E940B0F0C94B90E0E94AB0E38F00E949B
:101E0000B20E20F0952311F00C94A20E0C94A80EA3
:101E100011240C94ED0E0E94CA0E70F3959FC1F32D
:101E2000950F50E0551F629FF001729FBB27F00D88
:101E3000B11D639FAA27F00DB11DAA1F649F6627DD
:101E4000B00DA11D661F829F2227B00DA11D621F2C
:101E5000739FB00DA11D621F839FA00D611D221FE6
:101E6000749F3327A00D611D231F849F600D211DCA
:101E7000822F762F6A2F11249F5750409AF0F1F04D
:101E800088234AF0EE0FFF1FBB1F661F771F881FB6
:101E900091505040A9F79E3F510580F00C94A20E3E
:101EA0000C94ED0E5F3FE4F3983ED4F3869577955E
:101EB0006795B795F795E7959F5FC1F7FE2B880F5C
:101EC000911D9695879597F90895990F0008550FDC
:101ED000AA0BE0E8FEEF16161706E807F907C0F0B0
:101EE00012161306E407F50798F0621B730B840BB8
:101EF000950B39F40A2661F0232B242B252B21F492
:101F000008950A2609F4A140A6958FEF811D811D31
:101F1000089597FB072E16F4009407D077FD09D09B
:101F20000E94BF0F07FC05D03EF4909581959F4F0E
:101F30000895709561957F4F0895A1E21A2EAA1B0E
:101F4000BB1BFD010DC0AA1FBB1FEE1FFF1FA21769
:101F5000B307E407F50720F0A21BB30BE40BF50B66
:101F6000661F771F881F991F1A9469F760957095EF
:101F7000809590959B01AC01BD01CF010895AA1BEE
:101F8000BB1B51E107C0AA1FBB1FA617B70710F064
:101F9000A61BB70B881F991F5A95A9F78095909596
:101FA000BC01CD010895EE0FFF1F0590F491E02DC7
:101FB000099481E090E0F8940C94E70FFB01DC01B8
:101FC00002C001900D9241505040D8F70895F89406
:021FD000FFCF41
:101FD200AA00D20000002110422063308440A550A4
:101FE200C660E770088129914AA16BB18CC1ADD15D
:101FF200CEE1EFF13112100273325222B552944205
:10200200F772D662399318837BB35AA3BDD39CC3AC
:10201200FFF3DEE36224433420040114E664C77450
:10202200A44485546AA54BB528850995EEE5CFF5FC
:10203200ACC58DD55336722611163006D776F666A4
:102042009556B4465BB77AA719973887DFF7FEE74C
:102052009DD7BCC7C448E5588668A7784008611870
:1020620002282338CCC9EDD98EE9AFF9488969999C
:102072000AA92BB9F55AD44AB77A966A711A500A44
:10208200333A122AFDDBDCCBBFFB9EEB799B588BEC
:102092003BBB1AABA66C877CE44CC55C222C033C90
:1020A200600C411CAEED8FFDECCDCDDD2AAD0BBD3C
:1020B200688D499D977EB66ED55EF44E133E322EE4
:1020C200511E700E9FFFBEEFDDDFFCCF1BBF3AAF8C
:1020D200599F788F8891A981CAB1EBA10CD12DC1EA
:1020E2004EF16FE18010A100C230E3200450254080
:1020F20046706760B9839893FBA3DAB33DC31CD3E0
:102102007FE35EF3B1029012F322D23235421452CF
:1021120077625672EAB5CBA5A89589856EF54FE52B
:102122002CD50DC5E234C324A0148104667447641F
:1021320024540544DBA7FAB79987B8975FE77EF77F
:102142001DC73CD7D326F2369106B016576676766F
:10215200154634564CD96DC90EF92FE9C899E9894B
:102162008AB9ABA94458654806782768C018E108BF
:102172008238A3287DCB5CDB3FEB1EFBF98BD89B1F
:10218200BBAB9ABB754A545A376A167AF10AD01A0F
:10219200B32A923A2EFD0FED6CDD4DCDAABD8BAD6B
:1021A200E89DC98D267C076C645C454CA23C832C5F
:1021B200E01CC10C1FEF3EFF5DCF7CDF9BAFBABFBF
:1021C200D98FF89F176E367E554E745E932EB23EAF
:1021D200D10EF01E000000004B01B800E300920196
:1021E2001401F20006010000000093027F02A50222
:1021F20053027702630254020D0A005541525420E1
:102202007061636B6167652073656E643A20004D8F
:10221200657373616765206973206C6172676572AB
:10222200207468616E2032353620627974657320BD
:102232002D206E6F7420737570706F7274656400F8
:10224200556E76616C696420737461727420626980
:102252007400456E64206F66206D657373616765F7
:102262002072656163686564210054696D656F75EC
:1022720074005352432072656365697665643A203F
:10228200005352432063616C633A200052656365D8
:10229200697665643A20005061796C6F6164203A16
:0822A200202020202020000074
:107800000C94343C0C94513C0C94513C0C94513CE1
:107810000C94513C0C94513C0C94513C0C94513CB4
:107820000C94513C0C94513C0C94513C0C94513CA4
:107830000C94513C0C94513C0C94513C0C94513C94
:107840000C94513C0C94513C0C94513C0C94513C84
:107850000C94513C0C94513C0C94513C0C94513C74
:107860000C94513C0C94513C11241FBECFEFD8E036
:10787000DEBFCDBF11E0A0E0B1E0ECE9FFE702C060
:1078800005900D92A230B107D9F712E0A2E0B1E065
:1078900001C01D92AD30B107E1F70E942D3D0C945F
:1078A000CC3F0C94003C982F959595959595959582
:1078B000905D8F708A307CF0282F295A8091C0000B
:1078C00085FFFCCF9093C6008091C00085FFFCCF60
:1078D0002093C6000895282F205DF0CF982F809127
:1078E000C00085FFFCCF9093C6000895EF92FF92F1
:1078F0000F931F93EE24FF2487018091C00087FD22
:1079000017C00894E11CF11C011D111D81E4E8164B
:1079100082E4F8068FE0080780E0180770F3E09132
:107920000401F091050109958091C00087FFE9CF1E
:107930008091C6001F910F91FF90EF9008950E94D3
:10794000763C982F8091C00085FFFCCF9093C600B5
:1079500091362CF490330CF09053892F089597555D
:10796000892F08951F930E949F3C182F0E949F3CCF
:107970001295107F810F1F9108951F93182F882350
:1079800021F00E94763C1150E1F71F9108951F935A
:10799000182F0E94763C803249F0809103018F5F5E
:1079A000809303018530C1F01F9108958091C0003C
:1079B00085FFFCCF84E18093C6008091C00085FFE5
:1079C000FCCF1093C6008091C00085FFFCCF80E102
:1079D0008093C6001F910895E0910401F091050184
:1079E00009951F9108950E94763C803241F0809164
:1079F00003018F5F80930301853081F008958091AA
:107A0000C00085FFFCCF84E18093C6008091C00058
:107A100085FFFCCF80E18093C6000895E0910401CA
:107A2000F09105010995089540E951E08823A1F0FE
:107A30002D9A28EE33E0FA013197F1F721503040CA
:107A4000D1F72D9828EE33E0FA013197F1F7215064
:107A50003040D1F7815061F708953F924F925F9285
:107A60006F927F928F929F92AF92BF92CF92DF924E
:107A7000EF92FF920F931F93CF93DF93000080E16B
:107A80008093C4001092C50088E18093C10086E015
:107A90008093C2005098589A259A81E00E94143D24
:107AA00024E1F22E9EE1E92E85E9D82E0FE0C02ECA
:107AB00010E1B12EAA24A394B1E49B2EA6E58A2E50
:107AC000F2E57F2EE0E26E2E79E4572E63E5462E36
:107AD00050E5352E0E94763C8033B1F18133B9F107
:107AE000803409F46FC0813409F476C0823409F41B
:107AF00085C0853409F488C0803531F1823521F1A3
:107B0000813511F1853509F485C0863509F48DC0BC
:107B1000843609F496C0843709F403C1853709F423
:107B200072C1863709F466C0809103018F5F80932C
:107B30000301853079F6E0910401F0910501099582
:107B40000E94763C803351F60E94F33CC3CF0E94E2
:107B5000763C803249F78091C00085FFFCCFF092DF
:107B6000C6008091C00085FFFCCF9092C600809136
:107B7000C00085FFFCCF8092C6008091C00085FFC9
:107B8000FCCF7092C6008091C00085FFFCCF609250
:107B9000C6008091C00085FFFCCF5092C600809146
:107BA000C00085FFFCCF4092C6008091C00085FFD9
:107BB000FCCF3092C6008091C00085FFFCCFB09210
:107BC000C60088CF0E94763C863808F4BDCF0E945C
:107BD000763C0E94F33C7ECF0E94763C803809F4CC
:107BE0009CC0813809F40BC1823809F43CC1883942
:107BF00009F48FC080E00E94C73C6CCF84E10E94F2
:107C0000BD3C0E94F33C66CF85E00E94BD3C0E94D3
:107C1000F33C60CF0E94763C809306010E94763C44
:107C2000809307010E94F33C55CF0E94763C80333D
:107C300009F41DC183E00E94BD3C80E00E94C73C66
:107C400049CF0E94763C809309020E94763C809343
:107C5000080280910C028E7F80930C020E94763C79
:107C6000853409F415C18091080290910902892B8D
:107C700089F000E010E00E94763CF801E85FFE4FDA
:107C800080830F5F1F4F80910802909109020817AF
:107C9000190788F30E94763C803209F045CF809125
:107CA0000C0280FF01C16091060170910701660F0F
:107CB000771F7093070160930601A0910802B091AD
:107CC00009021097C9F0E8E0F1E09B01AD014E0F09
:107CD0005F1FF999FECF32BD21BD819180BDFA9A17
:107CE000F99A2F5F3F4FE417F50799F76A0F7B1F4B
:107CF00070930701609306018091C00085FFFCCF5F
:107D0000F092C6008091C00085FFFCCFB092C60003
:107D1000E1CE83E00E94C73CDDCE82E00E94C73CFA
:107D2000D9CE0E94763C809309020E94763C8093D3
:107D300008028091060190910701880F991F909386
:107D40000701809306010E94763C853409F4A6C0A1
:107D500080910C028E7F80930C020E94763C8032D0
:107D600009F0B8CE8091C00085FFFCCFF092C6002C
:107D7000609108027091090261157105B9F140E046
:107D800050E080910C02A82FA170B82FB27011C0E2
:107D9000BB2309F45CC0E0910601F0910701319624
:107DA000F0930701E09306014F5F5F4F46175707B7
:107DB000E8F4AA2369F3F999FECF209106013091E6
:107DC000070132BD21BDF89A90B58091C00085FFB2
:107DD000FCCF9093C6002F5F3F4F30930701209355
:107DE00006014F5F5F4F4617570718F38091C00099
:107DF00085FDE5CE8091C00085FFF8CFE0CE81E023
:107E00000E94C73C67CE0E94763C803209F08CCE3F
:107E10008091C00085FFFCCFF092C6008091C00029
:107E200085FFFCCFE092C6008091C00085FFFCCFAB
:107E3000D092C6008091C00085FFFCCFC092C600E2
:107E40008091C00085FFFCCFB092C60043CEE09188
:107E50000601F091070194918091C00085FFFCCF4D
:107E60009093C6009CCF80E10E94C73C33CE0E9415
:107E7000763C0E94763C182F0E94763C112309F430
:107E800083C0113009F484C08FE00E94C73C22CE29
:107E900080910C02816080930C02E5CE80910C02EF
:107EA000816080930C0259CF809107018823880F4D
:107EB000880B8A2180930B02809106019091070123
:107EC000880F991F90930701809306018091080203
:107ED00080FF09C080910802909109020196909359
:107EE000090280930802F894F999FECF1127E091D6
:107EF0000601F0910701C8E0D1E08091080290915D
:107F00000902103091F40091570001700130D9F34B
:107F100003E000935700E89500915700017001308D
:107F2000D9F301E100935700E89509901990009169
:107F3000570001700130D9F301E000935700E89534
:107F40001395103498F011270091570001700130FB
:107F5000D9F305E000935700E895009157000170B0
:107F60000130D9F301E100935700E895329602976A
:107F700009F0C7CF103011F00296E5CF112480919F
:107F8000C00085FFB9CEBCCE8EE10E94C73CA2CD19
:0C7F900085E90E94C73C9ECDF894FFCF0D
:027F9C00800063
:040000030000780081
:00000001FF
