:020000040000FA
:100000000C9437010C9468010C9468010C946801FD
:100010000C9468010C9468010C9468010C946801BC
:100020000C9468010C94AD0E0C94AD0E0C94AD0EB6
:100030000C9468010C9468010C9468010C9468019C
:100040000C9468010C9468010C9468010C9468018C
:100050000C9468010C9468010C9468010C94630E74
:100060000C9468010C94390E0C940F0E0C946801DA
:100070000C9468010C9468010C9468010C9468015C
:100080000C9468010C9468010C9468010C9468014C
:100090000C9468010C9468010C9468010C94B70EE0
:1000A0000C9468010C9468010C9468010C9468012C
:1000B0000C9468010C9468010C9468010C9468011C
:1000C0000C9468010C9468010C9468010C94E50D83
:1000D0000C94BB0D0C9468010C94910D0C94670D5D
:1000E0000C9468010C94C60B0C9465030C942602C6
:1000F0000C9479030C949D0B0C94AC0B0C94690339
:100100000C9443030C9453030C9438030C94BF0BCE
:100110000C94DB0F0C9434030C945B030C94AF0130
:100120000C94E2090C9457030C941D030C94BC012D
:100130000C943C030C944D030C9449030C948809D3
:100140000C94B0010C94E20B0C9422030C94CD029D
:100150000C946F030C94BD010C9403020C94570B88
:100160000C9440030C94AE010C9434020C94800265
:100170000C94D10B0C9473030C9461030C94120235
:1001800000002200250028002B002E003100340042
:1001900002010000050108010B0105050505070521
:1001A00008080808020202020A0A080804040404F3
:1001B000010101010101010103030303030303031F
:1001C000040707070C0C0C0C0C0C0C0C02020202AE
:1001D00006060606060606060B0B0B0B0B0B0B0B97
:1001E0000102102020080810204010204080020149
:1001F000020108040201010204081020408080402E
:10020000201008040201800402018040201008042C
:1002100002010804020101020408102040800102CA
:1002200004081020408000000A0B02090C0D0E0883
:1002300007030401000000000000000000000000AF
:1002400000000000000000000000000000000000AE
:10025000000012111000000000000000000000006B
:10026000000000000000000000000000DB0F11246F
:100270001FBECFEFD1E2DEBFCDBF00E00CBF2AE052
:10028000AAE6B4E001C01D92A732B207E1F714E07C
:10029000A0E0B2E0E2E7FCE200E00BBF02C00790A2
:1002A0000D92AA36B107D9F711E0C7E3D1E000E01B
:1002B00006C021970109802FFE010E941216C63345
:1002C000D10780E00807A9F70E94BF100C943716E9
:1002D0000C940000CF93DF93EC019A01AB01E88905
:1002E000F98982E08083211581EE380741055105A7
:1002F00081F160E079E08DE390E00E94F0152150FB
:100300003109410951095695479537952795EC854F
:10031000FD851082EE85FF852083188EEC89FD898E
:1003200086E08083EA89FB89808180618083EA8915
:10033000FB89808188608083EA89FB89808180686D
:100340008083EA89FB8980818F7D8083DF91CF91D3
:100350000895E889F989108220E1D9CF0895089598
:10036000E0919D07F0919E07309729F010929A072F
:1003700010929907199408950895AF92BF92CF9261
:10038000DF92EF92FF920F931F93CF93DF936C0155
:100390007B018B01040F151FEB015E01AE18BF0836
:1003A000C017D10759F06991D601ED91FC910190E8
:1003B000F081E02DC6011995892B79F7C501DF91F0
:1003C000CF911F910F91FF90EF90DF90CF90BF9052
:1003D000AF900895FC01A089B1898C91A689B78955
:1003E00082FD0FC09C91818D8F5F8F73228D82174C
:1003F00049F0A18DAE0FBF2FB11D5D969C93818FEB
:1004000008958C910895FC01538D448D252F30E083
:10041000842F90E0821B930B541710F0CF96089511
:1004200001970895FC01918D828D981761F0A28D3E
:10043000AE0FBF2FB11D5D968C91928D9F5F9F7304
:10044000928F90E008958FEF9FEF0895FC01918DBA
:10045000828D981731F0828DE80FF11D858D90E027
:1004600008958FEF9FEF0895FC01918D228D892FC4
:1004700090E0805C9F4F821B91098F7399270895AC
:1004800089EC97E00E94340221E0892B09F420E0F6
:10049000822F089586E698E00E94340221E0892B9D
:1004A00009F420E0822F089583E099E00E9434024D
:1004B00021E0892B09F420E0822F0895FC01A48D0E
:1004C000A80FB92FB11DA35ABF4F2C91848D90E076
:1004D00001968F739927848FA689B7892C93A08959
:1004E000B1898C91837080648C93938D848D9813E3
:1004F00006C00288F389E02D80818F7D8083089576
:10050000EF92FF920F931F93CF93DF93EC0181E063
:10051000888F9B8D8C8D98131AC0E889F98980810A
:1005200085FF15C09FB7F894EE89FF896083E8893D
:10053000F98980818370806480839FBF81E090E02F
:10054000DF91CF911F910F91FF90EF900895F62EBC
:100550000B8D10E00F5F1F4F0F731127E02E8C8D56
:100560008E110CC00FB607FCFACFE889F98980819B
:1005700085FFF5CFCE010E945E02F1CFEB8DEC0F2F
:10058000FD2FF11DE35AFF4FF0829FB7F8940B8FB8
:10059000EA89FB8980818062CFCFCF93DF93EC0122
:1005A000888D8823B9F0AA89BB89E889F9898C915B
:1005B00085FD03C0808186FD0DC00FB607FCF7CF17
:1005C0008C9185FFF2CF808185FFEDCFCE010E9417
:1005D0005E02E9CFDF91CF910895282F30E0F90135
:1005E000EA5DFD4F9491F901E052FE4F4491265689
:1005F0003E4FF9012491222309F435C0992311F1CA
:1006000091509231F8F4E92FF0E08827E55FFC4F34
:100610008F4F0C9412163C0340031D033403380320
:100620002203430349034D03530357035B03610351
:100630006503220369036F037303809180008F7742
:1006400080938000E22FF0E0EE0FFF1FE058FE4F96
:10065000A591B4918FB7F894EC91611148C0409581
:100660004E234C938FBF0895809180008F7DE8CFFB
:1006700080918000877FE4CF84B58F7784BDE2CFFF
:1006800084B58F7DFBCF8091B0008F778093B000D1
:10069000D9CF8091B0008F7DF9CF809190008F7776
:1006A00080939000CFCF809190008F7DF9CF809183
:1006B0009000877FF5CF8091A0008F778093A00076
:1006C000C1CF8091A0008F7DF9CF8091A000877F5E
:1006D000F5CF809120018F7780932001B3CF809157
:1006E00020018F7DF9CF80912001877FF5CF4E2BA0
:1006F000B8CF60916A0481E0682760936A048DE056
:100700000C94ED0290917B00977F90937B00865331
:10071000806480937C0080917A00806480937A006A
:1007200080917A0086FDFCCF8091780090917900CD
:1007300008953FB7F8948091080790910907A09118
:100740000A07B0910B0726B5A89B05C02F3F19F0EB
:100750000196A11DB11D3FBFBA2FA92F982F882741
:10076000BC01CD01620F711D811D911D42E0660F1C
:10077000771F881F991F4A95D1F708958F929F92EE
:10078000AF92BF92CF92DF92EF92FF924B015C014A
:100790000E9499036B017C010E9499036C197D09E9
:1007A0008E099F09683E734081059105A8F321E0F9
:1007B000821A9108A108B10888EEC80E83E0D81EFD
:1007C000E11CF11C81149104A104B10429F7FF90EC
:1007D000EF90DF90CF90BF90AF909F908F90089553
:1007E0002FB7F89460910407709105078091060770
:1007F000909107072FBF08958F929F92AF92BF925B
:10080000EF92FF920F931F93CF93DF9300D01F922D
:10081000CDB7DEB719821A821B821C8284E690E073
:10082000A0E0B0E08093CD079093CE07A093CF07D0
:10083000B093D0078E010F5F1F4F7E0185E0E80E59
:10084000F11C0E94F0036093D1077093D20780934C
:10085000D3079093D40789EC97E00E94120297FF88
:1008600038C00E94F0038090D1079090D207A090EA
:10087000D307B090D407681979098A099B09809039
:10088000CD079090CE07A090CF07B090D007681505
:1008900079058A059B05F8F28981813051F48A81B6
:1008A0008F3F39F48B818F3F21F481E09C819F3F02
:1008B00009F080E00F900F900F900F90DF91CF9193
:1008C0001F910F91FF90EF90BF90AF909F908F90EE
:1008D0000895F80181938F01EE16FF0609F0B1CF5C
:1008E000DBCF2091FB04211109C021E02093FB0400
:1008F0003091A0092091A1093CBD2DBD60E0FC0113
:1009000084810C94ED0261E0FC0184810E94ED027F
:100910008091FB0481111092FB0408958EBD0000AC
:100920000DB407FEFDCF8EB508958FEF0C948E04A5
:100930000F931F93CF93DF93EC010E94F0038B0181
:100940000E9495048F3F69F00E94F003601B710BB9
:100950006C177D07A8F380E0DF91CF911F910F9175
:10096000089581E0F9CFCF92DF92EF92FF920F933B
:100970001F93CF93DF93EC01162F69017A018E81CB
:10098000882389F08F8198859C012F5F3F4F38879E
:100990002F838230924018F40E949504F3CFCE0149
:1009A0000E9483041E82CE010E9471048CE291E0B9
:1009B0000E949804812F80640E948E0408E110E058
:1009C000D701C601002E04C0B695A79597958795C7
:1009D0000A94D2F70E948E0408501109083F8FEF45
:1009E000180771F78FEF0E948E0410E00E949504A3
:1009F0008A8787FF04C01F3F11F01F5FF7CFDF9189
:100A0000CF911F910F91FF90EF90DF90CF900895BD
:100A1000CF92DF92EF92FF920F93CF93DF93EC018F
:100A2000690182E1411551056105710599F08B85D8
:100A3000833039F089E0440F551F661F771F8A9570
:100A4000D1F79A01AB0168E1CE010E94B30488237B
:100A500019F084E08D832DC08EEF0E948E04760104
:100A60008EEFD81AF70181917F010E948E04EC1459
:100A7000FD04C1F78FEF0E948E048FEF0E948E0459
:100A80000E9495048A878F71853071F4011116C018
:100A9000CE010E94830481E0DF91CF910F91FF90FE
:100AA000EF90DF90CF90089581E18D83CE010E9479
:100AB0008304CE010E94830480E0EECF88E592E0BB
:100AC0000E949804811102C085E1C4CF20E030E08B
:100AD000A9016DE0CE010E94B304882311F084E1E6
:100AE000B9CF0E9495048111FACFD2CF0F934091D4
:100AF000FD045091FE046091FF04709100054115C2
:100B000051056105710589F0082F21E035E090E07D
:100B100080E00E940805882349F01092FD0410929D
:100B2000FE041092FF041092000581E00F910895D9
:100B30000F93CF93C82F8091FC04811105C0C1E0B1
:100B40008C2FCF910F910895409100025091010296
:100B500060910202709103020C2F21E035E090E0D9
:100B600080E00E940805811102C0C0E0E9CFCC23DB
:100B700031F381E00E9476058823B9F31092FC04DA
:100B8000DFCFAF92BF92CF92DF92EF92FF921F938F
:100B9000CF93DF936B017C01142F80910002909121
:100BA0000102A0910202B09103028C159D05AE05D1
:100BB000BF0509F4ADC081E00E9498058823E1F1EA
:100BC000809106008823A1F080910000909101009F
:100BD000A0910200B0910300C816D906EA06FB06F0
:100BE00039F48091070090910800892B09F44FC0D7
:100BF000C0920000D0920100E0920200F092030047
:100C000080910B00A7019601833039F099E0220F03
:100C1000331F441F551F9A95D1F761E190E080E0A2
:100C20000E94B304882391F083E08093050090E054
:100C300080E00E94830480E0DF91CF911F91FF90BC
:100C4000EF90DF90CF90BF90AF9008950E94F00397
:100C5000EB010E94950480930A008F3F79F40E9473
:100C6000F0036C1B7D0B6D32714098F38FE0809325
:100C7000050090E080E00E948304D9CF8E3FC1F54B
:100C8000109208001092070081E080930600C1E0F6
:100C9000D5E081E0A82E87E0B82E0E9495048993C4
:100CA000AC16BD06D1F780910700909108009E5FB9
:100CB000909308008093070020910900222319F0E7
:100CC00081159240E8F0809106008823C9F0809158
:100CD0000700909108009C012F5F3F4F3093080060
:100CE000209307008230924028F40E949504EFCFB1
:100CF0008DE0BDCF90E080E00E948304109206005A
:100D0000C0920002D0920102E0920202F09203022D
:100D10004091FC04412B4093FC0481E08DCF4F9225
:100D20005F926F927F928F929F92AF92BF92CF927B
:100D3000DF92EF92FF920F931F93CF93DF93EC011B
:100D4000423051056105710590F480E0DF91CF914B
:100D50001F910F91FF90EF90DF90CF90BF90AF90D9
:100D60009F908F907F906F905F904F9008958985AE
:100D70009A85AB85BC850196A11DB11D8417950789
:100D8000A607B70710F3CB88DC88ED88FE888F892B
:100D9000803109F042C0BB27A72F962F852F48012D
:100DA00059012A013B01C80ED91EEA1EFB1E809183
:100DB000000290910102A0910202B0910302C816B4
:100DC000D906EA06FB0699F58F898031C1F5B30192
:100DD000A201552766277727440F551F4F5F5A4FAB
:100DE000FA01918280828091FC0481608093FC04EE
:100DF0008A89823080F08D819E81AF81B8858C0D8B
:100E00009D1DAE1DBF1D8093FD049093FE04A09315
:100E1000FF04B093000581E099CFDB01CA01E7E050
:100E2000B695A79597958795EA95D1F7B8CF40E005
:100E3000C701B6010E94C1058111C6CF86CFB3019B
:100E4000A2014F77552766277727440F551F440F78
:100E5000551F4F5F5A4FFA0180829182A282B3825E
:100E6000C2CF8F929F92AF92BF92CF92DF92EF92BA
:100E7000FF920F931F93CF93DF93FC01818592859F
:100E8000A385B4850196A11DB11D84179507A607FA
:100E9000B70770F480E0DF91CF911F910F91FF9021
:100EA000EF90DF90CF90BF90AF909F908F9008957C
:100EB00083889488A588B6888789803189F5BB277F
:100EC000A72F962F852FE9016A017B018F01BC01B5
:100ED000CD01680D791D8A1D9B1D809000029090A8
:100EE0000102A0900202B090030286169706A8069F
:100EF000B90601F5F8018789803111F5DD24EE246A
:100F0000FF24F601EE0FFF1FEF5FFA4F8081918102
:100F1000B0E0A0E088839983AA83BB8381E0BBCF44
:100F2000DB01CA01C7E0B695A79597958795CA9545
:100F3000D1F7C9CF40E00E94C1058111DBCFAACF14
:100F4000E894C7F8DD24EE24FF24F601EE0FFF1F1E
:100F5000EE0FFF1FEF5FFA4F80819181A281B38175
:100F6000BF70D8CF8F929F92AF92BF92CF92DF92F5
:100F7000EF92FF920F931F93CF93DF93EC018D813C
:100F800081110EC080E0DF91CF911F910F91FF90F2
:100F9000EF90DF90CF90BF90AF909F908F9008958B
:100FA0000B891C892D893E890417150726073707E9
:100FB00048F34A015B01823031F48A869B86AC8615
:100FC000BD8681E0E0CF81149104A104B10449F40D
:100FD0001E821F82188619861A861B861C861D860D
:100FE000F0CF0A851B852C853D85EB8DFC8D858595
:100FF00090E00996B901A8014150510961097109B0
:10100000082E04C076956795579547950A94D2F7B0
:1010100075016401E1E0CE1AD108E108F10804C0CD
:10102000F694E794D794C7948A95D2F7C416D50658
:10103000E606F70620F0012B022B032B11F58F8912
:10104000988DA98DBA8D8E839F83A887B9878E01CD
:101050000A5F1F4FC114D104E104F10409F4ADCFBC
:101060004E815F816885798598018B8D9C8D0E946A
:10107000310791E0C91AD108E108F1088111EACFDE
:1010800081CFC41AD50AE60AF70AE1CF3F924F9200
:101090005F926F927F928F929F92AF92BF92CF9208
:1010A000DF92EF92FF920F931F93CF93DF93CDB711
:1010B000DEB72C970FB6F894DEBF0FBECDBF5C0134
:1010C000DC015B968D909C905C9716964D905D90A0
:1010D0006D907C901997411451046104710409F4D6
:1010E00068C0BFEF4B1A5B0A6B0A7B0A312CF40114
:1010F00081859285A385B4859C01AD012F5F3F4F0B
:101100004F4F5F4F29873A874B875C877301620196
:101110001D821E821F821886F40181859285A38517
:10112000B4852D813E814F815885281739074A079C
:101130005B0708F056C089859A85AB85BC858C1500
:101140009D05AE05BF0550F482E0C82ED12CE12CE0
:10115000F12C92E0492E512C612C712C9E012F5FB5
:101160003F4FB701A601C4010E9431078823C9F18E
:1011700089819A81AB81BC81892B8A2B8B2B09F1C8
:10118000260137019FEF491A590A690A790A2D8108
:101190003E814F8158852F5F3F4F4F4F5F4F2D83CB
:1011A0003E834F8358873FEFC31AD30AE30AF30AFB
:1011B000B3CFF40140805180628073803324339434
:1011C00096CFC414D504E604F70409F70FEF1FEF18
:1011D0002FEF3FE0B701A601C4010E948F068111E5
:1011E00019C080E02C960FB6F894DEBF0FBECDBFBD
:1011F000DF91CF911F910F91FF90EF90DF90CF90F3
:10120000BF90AF909F908F907F906F905F904F9026
:101210003F900895D50116964D915D916D917C9109
:101220001997411551056105710539F0970186013E
:10123000C4010E948F068823A1F2D5011696CD9293
:10124000DD92ED92FC921997332051F0D701C6013F
:101250000196A11DB11DF40180839183A283B38304
:10126000F5018789908DA18DB28D892B8A2B8B2BCF
:1012700039F48481C78AD08EE18EF28E80688483AF
:10128000F50184818062848381E0ACCF1F93CF938A
:10129000DF93EC01162F8C8187FF2AC06E857F8536
:1012A0008889998941E00E94C105882361F1EA8912
:1012B00080E2E89FF0011124EF5FFA4F309719F1B7
:1012C0008D81823040F48B899C89AD89BE89848F61
:1012D000958FA68FB78F8F89988D938F828F8F89E7
:1012E000988DA98DBA8DB58BA48B8C818F778C83CB
:1012F000111103C08C818F7E8C83812FDF91CF9160
:101300001F910C94980580E0DF91CF911F91089573
:101310001F93CF93DF93EC018D81813031F090E00A
:1013200080E0DF91CF911F9108958C8181FFF7CFED
:1013300082FD1BC090E080E00E9471040E94950431
:10134000182F90E080E00E9483041F3F41F78C81BA
:1013500085FF1EC08D81882321F060E0CE010E94B0
:1013600046098C818F7D8C83DACF4B895C896D89AE
:101370007E898A859B85AC85BD8584179507A607E0
:10138000B707C1F2CE010E94B2078111D3CFC7CFF8
:101390004091FD045091FE046091FF04709100059E
:1013A000452B462B472B21F080E00E947605B7CFD6
:1013B00080618C832A853B85317080E092E0821BBE
:1013C000930BAFCF9F92AF92BF92CF92DF92EF92EB
:1013D000FF920F931F93CF93DF9300D01F921F9222
:1013E000CDB7DEB78C016D83DC0115968C91159716
:1013F000813009F0B9C014968C9181FFB5C082FD8F
:101400009FC0D8015B96ED91FC915C971A96AD90C8
:10141000BD90CD90DC901D9794809A94B601A50163
:1014200089E076956795579547958A95D1F79422E7
:10143000B1E0BB22992009F49FC0D8015B96ED91E1
:10144000FC915C971696CD90DD90ED90FC901997ED
:10145000B2E0CB1AD108E108F108858504C0CC0CB4
:10146000DD1CEE1CFF1C8A95D2F7468557856089E6
:101470007189C40ED51EE61EF71EC90CD11CE11CD5
:10148000F11CA114B10409F00AC1F8014285538589
:101490006485758583899489A589B6894817590714
:1014A0006A077B0708F4FBC081E00E949805882347
:1014B00009F45AC0C0920002D0920102E0920202E6
:1014C000F09203028091FC0481608093FC04F5019A
:1014D000EF5FFA4F8D818083F80182859385A48523
:1014E000B5850196A11DB11D82879387A487B58715
:1014F0004389548965897689481759076A077B07A4
:1015000038F42481838B948BA58BB68B206824833D
:10151000D80114968C9183FD9FC081E090E00F90DC
:101520000F900F900F900F90DF91CF911F910F911F
:10153000FF90EF90DF90CF90BF90AF909F90089575
:10154000F801438954896589768982859385A485C4
:10155000B585481759076A077B0709F452CFC801B8
:101560000E94B20781114DCF81E090E0D80113961F
:101570009C938E93129749C0D80116964D915D9118
:101580006D917C911997A114B10409F071C04115B6
:1015900051056105710589F557968D919D910D90C5
:1015A000BC91A02D0097A105B10509F04FC0C8015D
:1015B0000E9446088823C1F2D8015B96ED91FC9108
:1015C0005C971696CD90DD90ED90FC901997B2E067
:1015D000CB1AD108E108F108858504C0CC0CDD1CCC
:1015E000EE1CFF1C8A95D2F7468557856089718964
:1015F000C40ED51EE61EF71E48CF9E012F5F3F4F3B
:10160000CF010E943107811103C090E080E087CFB5
:1016100089819A81AB81BC81F801238D348DF901D8
:10162000278948EF5FEF60E070E0203121F048EF5C
:101630005FEF6FEF7FE084179507A607B70730F0DD
:10164000C8010E9446088111F8CE8ECFF80186832A
:101650009783A087B187F1CEF8018581882309F4AB
:1016600083CF61E0C8010E944609811156CF7CCF2B
:101670006A017B01B2E0CB1AD108E108F108858547
:1016800004C0CC0CDD1CEE1CFF1C8A95D2F74685ED
:10169000578560897189C40ED51EE61EF71E41E08C
:1016A000C701B6010E94C105811111CF5DCF089518
:1016B0002091B104260F3327331F21323105ECF47A
:1016C0002091D504FC0190E080E0243069F082E0B4
:1016D0000895A091B1042191AC014F565B4FA40F26
:1016E000B52FB11D2C930196861798F38091B10404
:1016F000680F6093B10480E0089581E0089510922E
:10170000D50481E08093D7041092D60461E084E18F
:101710000E94ED0261E085E10E94ED02E9EBF0E05C
:1017200080818E7F808380818D7F808388E4809319
:10173000B80085E48093BC000895E0919C078091F7
:101740009B07E81730F4F0E0E559FB4F808190E00B
:1017500008958FEF9FEF089590919C0780919B07CC
:101760002FEF3FEF981748F4E92FF0E0E559FB4FD2
:10177000208130E09F5F90939C07C901089580917C
:101780009B0790919C07891B990B0895CF93DF933A
:10179000CB01EA01642F0E94580BCE01DF91CF915B
:1017A0000895CF93DF931F92CDB7DEB7698361E0D1
:1017B000CE0101960E94580B81E090E00F90DF91DE
:1017C000CF91089590E080E008958091B3079091C3
:1017D000B407DC01ED91FC910084F185E02D1995B1
:1017E000892BC9F183E099E00E94120220918C07B5
:1017F00030918D072115310541F340918F0790916C
:101800008E07491750F080919307909194070196A5
:101810009093940780939307D8CFE0919007E20FBD
:10182000F32FF11D80838091900790E001966091E5
:101830008E0770E00E94DC158093900780918F07DF
:101840008F5F80938F0790919207981708F0BDCF14
:1018500080939207BACF089580E090E0892B29F019
:101860000E94540281110E94000080E090E0892BC8
:1018700049F080E090E0892B29F00E94000081115E
:101880000E9400000E944A0281110E94E50B80E044
:1018900090E0892B29F00E94400281110C940000F5
:1018A0000895CF93DF93EC0189EC97E00E94340216
:1018B000892B29F089EC97E00E941202F5CFFE01F6
:1018C00001900020E9F73197AF014C1B5D0BBE0181
:1018D00089EC97E00E94BD016FEF89EC97E00E94D0
:1018E00080026FEF89EC97E00E9480026FEF89EC35
:1018F00097E0DF91CF910C948002CF93DF9385ED39
:101900008093BC0080918D0490918E04A0918F04EF
:10191000B09190040796A11DB11D23E0B695A7953F
:10192000979587952A95D1F72091BC0024FD03C097
:101930001092D50436C040918D0450918E04609170
:101940008F0470919004452B462B472B69F3009729
:10195000A105B10541F025E32A95F1F700000197B3
:10196000A109B109E1CF80918C0491E090938B049F
:101970008823B9F0C091B800D091BA008091BC0022
:101980008A7B8093BC0060E084E10E94ED0260E00D
:1019900085E10E94ED020E947F0BD093BA00C093B4
:1019A000B800DF91CF910895EF92FF920F931F93AC
:1019B000CF93DF937C018B01EA0182E08883698306
:1019C000AB01B701CE0102960E942E16C801029605
:1019D000A7010E0D1F1DB0E0A0E02B2F33274017ED
:1019E000510771F4C80FD91F2883A98323E02A83E4
:1019F0000396DF91CF911F910F91FF90EF90089583
:101A0000FA016191AF01BA2FAA27F901E627EE0F7B
:101A1000FF1FE45FFD4F0190F081E02DAE27BF274F
:101A2000DCCF0F931F93CF93DF93CDB7DEB72F9704
:101A30000FB6F894DEBF0FBECDBF26E02B8720E0A7
:101A400030E04AE754E40E9404140E94A1159C87E8
:101A50008D877E876F87AE014F5F5F4F65E070E0D7
:101A6000CE010B960E94D40C8C018091B30790910B
:101A7000B407DC01ED91FC910480F581E02D19950E
:101A800080179107D0F08091B3079091B407DC01E3
:101A9000ED91FC910280F381E02DA801BE016F5F02
:101AA0007F4F19952F960FB6F894DEBF0FBECDBFAE
:101AB000DF91CF911F910F9108958091B10790917F
:101AC000B20701969093B2078093B107EBCF1F92B4
:101AD0000F920FB60F9211240BB60F922F933F93D4
:101AE0004F935F936F937F938F939F93AF93BF9326
:101AF000EF93FF9389EC97E00E945E02FF91EF91D4
:101B0000BF91AF919F918F917F916F915F914F9115
:101B10003F912F910F900BBE0F900FBE0F901F9013
:101B200018951F920F920FB60F9211240BB60F92B9
:101B30002F933F934F935F936F937F938F939F93D5
:101B4000AF93BF93EF93FF9389EC97E00E94EA0174
:101B5000FF91EF91BF91AF919F918F917F916F9185
:101B60005F914F913F912F910F900BBE0F900FBE41
:101B70000F901F9018951F920F920FB60F9211247D
:101B80000BB60F922F933F934F935F936F937F9377
:101B90008F939F93AF93BF93EF93FF9386E698E065
:101BA0000E945E02FF91EF91BF91AF919F918F9143
:101BB0007F916F915F914F913F912F910F900BBE4D
:101BC0000F900FBE0F901F9018951F920F920FB697
:101BD0000F9211240BB60F922F933F934F935F9365
:101BE0006F937F938F939F93AF93BF93EF93FF93E5
:101BF00086E698E00E94EA01FF91EF91BF91AF91D4
:101C00009F918F917F916F915F914F913F912F9114
:101C10000F900BBE0F900FBE0F901F9018951F9244
:101C20000F920FB60F9211240BB60F922F933F9382
:101C30004F935F936F937F938F939F93AF93BF93D4
:101C4000EF93FF9383E099E00E945E02FF91EF9192
:101C5000BF91AF919F918F917F916F915F914F91C4
:101C60003F912F910F900BBE0F900FBE0F901F90C2
:101C700018951F920F920FB60F9211240BB60F9268
:101C80002F933F934F935F936F937F938F939F9384
:101C9000AF93BF93EF93FF9383E099E00E94EA0133
:101CA000FF91EF91BF91AF919F918F917F916F9134
:101CB0005F914F913F912F910F900BBE0F900FBEF0
:101CC0000F901F9018951F920F920FB60F9211242C
:101CD0002F933F938F939F93AF93BF93809104076C
:101CE00090910507A0910607B0910707309103076F
:101CF00023E0230F2D3758F50196A11DB11D209328
:101D000003078093040790930507A0930607B093F9
:101D100007078091080790910907A0910A07B091E1
:101D20000B070196A11DB11D809308079093090729
:101D3000A0930A07B0930B07BF91AF919F918F912A
:101D40003F912F910F900FBE0F901F90189526E88E
:101D5000230F0296A11DB11DD2CF1F920F920FB675
:101D60000F9211240F900FBE0F901F9018951F9285
:101D70000F920FB60F9211240BB60F922F933F9331
:101D80004F935F936F937F938F939F93AF93BF9383
:101D9000EF93FF938091B900887F803609F44DC09E
:101DA00008F040C0883209F4A9C028F5803109F450
:101DB0009DC0C8F4882309F4FBC0883009F496C09C
:101DC000FF91EF91BF91AF919F918F917F916F9113
:101DD0005F914F913F912F910F900BBE0F900FBECF
:101DE0000F901F901895883109F488C0803241F710
:101DF0008093D40414C0803409F49DC040F480332F
:101E0000B9F38833E9F68093D40485ECB0C080350B
:101E100009F485C0883509F496C0883489F60E9493
:101E20007D0CCECF883909F48CC038F5883729F07D
:101E300050F4883611F0803719F683E08093D5048A
:101E40001092D30457C0883809F47BC0803919F048
:101E5000803809F0B5CF8091D304803208F071C08A
:101E6000E091D30481E08E0F8093D3048091BB0076
:101E7000F0E0ED54FB4F80833DC0803B39F0E0F44F
:101E8000803A09F479C0883A09F09ACF84E08093C7
:101E9000D5041092B2041092B104E0919707F0912A
:101EA000980719958091B10481110FC081E080934A
:101EB000B1041092910409C0803C09F4A6CF883C7B
:101EC00009F4A3CF883B09F07BCFE091B20481E015
:101ED0008E0F8093B204F0E0EF56FB4F8081809329
:101EE000BB009091B2048091B10429C08091FA04A2
:101EF0008093BB0085EC8093BC0062CF9091F90485
:101F00008091F804981758F5E091F90481E08E0F5C
:101F10008093F904F0E0E852FB4F8081E9CFE09133
:101F2000F90481E08E0F8093F9048091BB00F0E00A
:101F3000E852FB4F80839091F9048091F804981740
:101F4000C8F285E8D8CFE091F90481E08E0F809344
:101F5000F9048091BB00F0E0E852FB4F8083809150
:101F6000D70481115CCF81E08093D60484EA80930A
:101F7000BC001092D50424CF85EC8093BC00109255
:101F8000D5048091D304803230F4E091D304F0E0A2
:101F9000ED54FB4F10826091D30470E0E0919507FF
:101FA000F091960783EB94E019951092D30408CF33
:101FB0001092D40434CFE9ECF7E01382128288EE59
:101FC00093E0A0E0B0E084839583A683B78320E10B
:101FD00034E03183208345E351E05587448744E36F
:101FE00051E05787468740E351E0518B408B41E3F6
:101FF00051E0538B428B42E351E0558B448B46E3D7
:1020000051E0578B468B118E128E138E148EE6E69E
:10201000F8E01382128284839583A683B783318389
:10202000208345ED50E05587448744ED50E05787C5
:10203000468740ED50E0518B408B41ED50E0538B93
:10204000428B42ED50E0558B448B46ED50E0578B70
:10205000468B118E128E138E148EE3E0F9E01382FC
:10206000128284839583A683B7833183208325ECF2
:1020700030E03587248724EC30E03787268720EC52
:1020800030E0318B208B21EC30E0338B228B22EC43
:1020900030E0358B248B26EC30E0378B268B118E8D
:1020A000128E138E148EE0EAF9E020E5208311826F
:1020B000E2EAF9E0158216821186138642E050E0CA
:1020C00060E070E0448755876687778713A215A67E
:1020D00014A622E234E033A722A717A6EBEEF9E01C
:1020E0001382128284839583A683B7838EE294E061
:1020F00091838083EBE1FAE0108282E081838CE3BC
:1021000094E093838283158214821186108613864D
:10211000128617821682EFE0FAE0108283E0818354
:1021200084E494E09383828315821482118610865E
:102130001386128617821682E3E0FAE0108286E0A8
:1021400081838BE494E093838283158214821186C9
:1021500010861386128617821682E7EFF9E0108246
:1021600081E0818381E594E09383828315821482E8
:102170001186108613861286178216820895CF93D1
:10218000DF93CDB7DEB72F970FB6F894DEBF0FBE43
:10219000CDBF789484B5826084BD84B5816084BDF0
:1021A00085B5826085BD85B5816085BD80916E00F5
:1021B000816080936E001092810080918100826026
:1021C0008093810080918100816080938100809163
:1021D00080008160809380008091B1008460809352
:1021E000B1008091B00081608093B0008091910037
:1021F0008260809391008091910081608093910032
:10220000809190008160809390008091A100826015
:102210008093A1008091A10081608093A1008091B2
:10222000A00081608093A000809121018260809352
:102230002101809121018160809321018091200101
:1022400081608093200180917A00846080937A007D
:1022500080917A00826080937A0080917A00816018
:1022600080937A0080917A00806880937A0010923F
:10227000C10040E855E260E070E089EC97E00E9420
:102280006A0188E694E00E94510C8AE594E00E947D
:10229000510C0E94FC0382E694E00E94510C0E94C3
:1022A000FC0389E793E09093000A8093FF0987EF8E
:1022B00099E09093020A8093010A40E052EC61E0B9
:1022C00070E083E099E00E946A0140E052EC61E036
:1022D00070E086E698E00E946A018CE097E09093B7
:1022E0008D0780938C0780E880938E0786E698E0C0
:1022F0009093B4078093B3077AE0E72EF12C10E0B7
:1023000000E087E30E948203080F191F63E070E07A
:1023100080E090E00E94BE0381E0E81AF10889F7AE
:10232000C8016AE070E00E94DC156D5F7F4F70931A
:102330000702609306026AE0E62EF12C10E000E04E
:1023400087E30E948203080F191F63E070E080E0BA
:1023500090E00E94BE0391E0E91AF10889F7C801F4
:102360006AE070E00E94DC156D5F7F4F709305029C
:102370006093040210929C0710929B0710929A0798
:10238000109299070E947F0B80EB91E09093980741
:10239000809397078CEB91E0909396078093950735
:1023A00080E18093BA008FEA91E090939E0780933A
:1023B0009D0745E0242E312C54ED852E53E0952EBB
:1023C000A12CB12CE090A507F090A60787E30E940E
:1023D0008203F701EE0FFF1FE154F84F91838083D2
:1023E0000091A3071091A4078BE30E948203F801D8
:1023F000EE0FFF1FEB54F84F918380830F5F1F4F49
:10240000053011050CF0BEC01093A4070093A3077C
:10241000AFEFEA1AFA0AB5E0EB16F1040CF0B7C018
:10242000F092A607E092A5078091A1079091A207DC
:1024300001969093A2078093A10780919F079091A6
:10244000A00701969093A00780939F0789EC97E0DF
:102450000E943402181619060CF49EC08091B5072C
:102460009091B6072091B7073091B807820F931F5C
:102470002091B9073091BA07820F931F2091BB07B3
:102480003091BC07820F931FC0900402D0900502C8
:102490000D2C000CEE08FF082091BD073091BE07FF
:1024A000820F931FB1010E94DC15072E000C880BD0
:1024B000990B6C197D098E099F090E94A51320E0D4
:1024C00030E040E252E40E9404142B013C016CE530
:1024D00073E080E090E06C197D098E099F090E94ED
:1024E000A5139B01AC01C301B2010E942F1520E08E
:1024F00030E0A9010E94C3146B017C0120E030E0B0
:1025000040E05FE30E94D71518160CF0BEC097E0BC
:102510009B8720E030E04AE754E4C701B6010E94FF
:1025200004140E94A1159C878D877E876F87AE015A
:102530004F5F5F4F65E070E0CE010B960E94D40CB8
:102540008C018091B3079091B407DC01ED91FC916F
:102550000480F581E02D19958017910708F48BC050
:102560008091B3079091B407DC01ED91FC9102805A
:10257000F381E02DA801BE016F5F7F4F19950E9486
:102580002C0C20CF1092A4071092A30741CF1092D9
:10259000A6071092A50748CF6AE070E080E090E0BF
:1025A0000E94BE0389EC97E00E941202182F853624
:1025B00009F04CCF89EC97E00E94340206970CF4A6
:1025C00045CF1093A70708EA17E089EC97E00E942F
:1025D0001202F80181938F018EEA97E08E179F0710
:1025E000A1F71092AE078091AB078F3F09F02ECF75
:1025F0008091AC078F3F09F029CF8091AD078F3FC5
:1026000009F024CF9091A9072091A807E8E0F2E013
:10261000A191B191109709F419CF8C912813F8CF9B
:1026200011968C9111979813F3CF4091AA0750E01F
:1026300070E060E0413051056105710561F4149668
:10264000ED91FC911597309709F400CF16968D9176
:102650009C911995FBCE452B462B472B09F0F6CEC6
:102660001896ED91FC911997309709F4EFCE1A96D0
:102670008D919C91EECF8091B1079091B207019618
:102680009093B2078093B1077ACFC0900602D090A2
:1026900007020D2C000CEE08FF088091BF079091F7
:1026A000C0072091C1073091C207820F931F20916C
:1026B000C3073091C407820F931F2091C507309143
:1026C000C607820F931F2091C7073091C807820F5A
:1026D000931FB1010E94DC15072E000C880B990B8B
:1026E0006C197D098E099F090E94A51320E030E036
:1026F00040E552E40E9404142B013C01C501B401E1
:102700006C197D098E099F090E94A5139B01AC01DC
:10271000C301B2010E942F1520E030E0A9010E9400
:10272000C3146B017C0120E030E0A9010E94D715A1
:1027300018162CF4C701B6010E94110D20CF60E0DD
:1027400070E0CB01F9CFE89409C097FB3EF4909577
:102750008095709561957F4F8F4F9F4F9923A9F07A
:10276000F92F96E9BB279395F69587957795679509
:10277000B795F111F8CFFAF4BB0F11F460FF1BC04D
:102780006F5F7F4F8F4F9F4F16C0882311F096E9E0
:1027900011C0772321F09EE8872F762F05C066238E
:1027A00071F096E8862F70E060E02AF09A95660F47
:1027B000771F881FDAF7880F9695879597F9089500
:1027C000990F0008550FAA0BE0E8FEEF1616170642
:1027D000E807F907C0F012161306E407F50798F0AA
:1027E000621B730B840B950B39F40A2661F0232BC3
:1027F000242B252B21F408950A2609F4A140A6953F
:102800008FEF811D811D08950E9417140C94881468
:102810000E947A1438F00E94811420F0952311F060
:102820000C9471140C94771411240C94BC140E9411
:10283000991470F3959FC1F3950F50E0551F629F57
:10284000F001729FBB27F00DB11D639FAA27F00D09
:10285000B11DAA1F649F6627B00DA11D661F829F30
:102860002227B00DA11D621F739FB00DA11D621F15
:10287000839FA00D611D221F749F3327A00D611D32
:10288000231F849F600D211D822F762F6A2F112414
:102890009F5750409AF0F1F088234AF0EE0FFF1F47
:1028A000BB1F661F771F881F91505040A9F79E3F9E
:1028B000510580F00C9471140C94BC145F3FE4F348
:1028C000983ED4F3869577956795B795F795E795F4
:1028D0009F5FC1F7FE2B880F911D9695879597F9FD
:1028E000089597F99F6780E870E060E008959FEF92
:1028F00080EC089500240A94161617061806090697
:10290000089500240A941216130614060506089565
:10291000092E0394000C11F4882352F0BB0F40F4ED
:10292000BF2B11F460FF04C06F5F7F4F8F4F9F4F2D
:10293000089557FD9058440F551F59F05F3F71F0AF
:102940004795880F97FB991F61F09F3F79F0879516
:102950000895121613061406551FF2CF4695F1DF9F
:1029600008C0161617061806991FF1CF869571052F
:10297000610508940895E894BB2766277727CB0163
:1029800097F908955058BB27AA270E94DA140C948F
:1029900088140E947A1438F00E94811420F039F4CF
:1029A0009F3F19F426F40C9477140EF4E095E7FB9E
:1029B0000C947114E92F0E94991458F3BA17620706
:1029C00073078407950720F079F4A6F50C94BB14DF
:1029D0000EF4E0950B2EBA2FA02D0B01B90190013A
:1029E0000C01CA01A0011124FF27591B99F0593F7E
:1029F00050F4503E68F11A16F040A22F232F342FC6
:102A00004427585FF3CF469537952795A795F04013
:102A10005395C9F77EF41F16BA0B620B730B840B28
:102A2000BAF09150A1F0FF0FBB1F661F771F881FE0
:102A3000C2F70EC0BA0F621F731F841F48F4879538
:102A400077956795B795F7959E3F08F0B0CF93952A
:102A5000880F08F09927EE0F9795879508950E94A3
:102A600043150C9488140E94811458F00E947A1423
:102A700040F029F45F3F29F00C94711451110C942B
:102A8000BC140C9477140E94991468F39923B1F341
:102A9000552391F3951B550BBB27AA276217730784
:102AA000840738F09F5F5F4F220F331F441FAA1F18
:102AB000A9F335D00E2E3AF0E0E832D091505040D4
:102AC000E695001CCAF72BD0FE2F29D0660F771F82
:102AD000881FBB1F261737074807AB07B0E809F068
:102AE000BB0B802DBF01FF2793585F4F3AF09E3FED
:102AF000510578F00C9471140C94BC145F3FE4F30E
:102B0000983ED4F3869577956795B795F7959F5F2F
:102B1000C9F7880F911D9695879597F90895E1E07B
:102B2000660F771F881FBB1F621773078407BA07DA
:102B300020F0621B730B840BBA0BEE1F88F7E09535
:102B400008950E94A8156894B1110C94BC140895BE
:102B50000E94A11488F09F5798F0B92F9927B75178
:102B6000B0F0E1F0660F771F881F991F1AF0BA9531
:102B7000C9F714C0B13091F00E94BB14B1E00895C0
:102B80000C94BB14672F782F8827B85F39F0B93FB2
:102B9000CCF3869577956795B395D9F73EF49095E4
:102BA0008095709561957F4F8F4F9F4F08950E943C
:102BB000E01308F48FEF089597FB072E16F40094A6
:102BC00007D077FD09D00E941A1607FC05D03EF405
:102BD000909581959F4F0895709561957F4F0895C9
:102BE000A1E21A2EAA1BBB1BFD010DC0AA1FBB1F11
:102BF000EE1FFF1FA217B307E407F50720F0A21B83
:102C0000B30BE40BF50B661F771F881F991F1A94EF
:102C100069F760957095809590959B01AC01BD0119
:102C2000CF010895EE0FFF1F881F8BBF0790F6910D
:102C3000E02D1994AA1BBB1B51E107C0AA1FBB1FA3
:102C4000A617B70710F0A61BB70B881F991F5A9538
:102C5000A9F780959095BC01CD010895FB01DC0199
:102C600002C001900D9241505040D8F70895F89459
:102C7000FFCFFFFFFFFFAA00D200F709000000000E
:102C80002110422063308440A550C660E77008815F
:102C900029914AA16BB18CC1ADD1CEE1EFF13112D6
:102CA000100273325222B5529442F772D6623993AF
:102CB00018837BB35AA3BDD39CC3FFF3DEE3622426
:102CC000433420040114E664C774A44485546AA5FF
:102CD0004BB528850995EEE5CFF5ACC58DD55336B6
:102CE000722611163006D776F6669556B4465BB74F
:102CF0007AA719973887DFF7FEE79DD7BCC7C44886
:102D0000E5588668A7784008611802282338CCC99E
:102D1000EDD98EE9AFF9488969990AA92BB9F55A15
:102D2000D44AB77A966A711A500A333A122AFDDBEE
:102D3000DCCBBFFB9EEB799B588B3BBB1AABA66CE5
:102D4000877CE44CC55C222C033C600C411CAEED3E
:102D50008FFDECCDCDDD2AAD0BBD688D499D977EF5
:102D6000B66ED55EF44E133E322E511E700E9FFF8E
:102D7000BEEFDDDFFCCF1BBF3AAF599F788F889144
:102D8000A981CAB1EBA10CD12DC14EF16FE1801028
:102D9000A100C230E3200450254046706760B9832B
:102DA0009893FBA3DAB33DC31CD37FE35EF3B10278
:102DB0009012F322D2323542145277625672EAB53B
:102DC000CBA5A89589856EF54FE52CD50DC5E234C8
:102DD000C324A01481046674476424540544DBA70B
:102DE000FAB79987B8975FE77EF71DC73CD7D32618
:102DF000F2369106B01657667676154634564CD99B
:102E00006DC90EF92FE9C899E9898AB9ABA9445867
:102E1000654806782768C018E1088238A3287DCB6A
:102E20005CDB3FEB1EFBF98BD89BBBAB9ABB754AB7
:102E3000545A376A167AF10AD01AB32A923A2EFDFA
:102E40000FED6CDD4DCDAABD8BADE89DC98D267C07
:102E5000076C645C454CA23C832CE01CC10C1FEF4A
:102E60003EFF5DCF7CDF9BAFBABFD98FF89F176E57
:102E7000367E554E745E932EB23ED10EF01E00008B
:102E800000008002BD010302CD02340212022602BC
:102E900000000000E209BD018809570B0000000096
:102EA000D10BC60BE20BAE01BF0BAC0B9D0B6E5FE3
:102EB000737065656400785F766F6C7400785F612D
:102EC0006D700062745F6C6967687400626B636D3B
:0C2ED000643D3100706167652030000037
:10E000000D9489F10D94B2F10D94B2F10D94B2F129
:10E010000D94B2F10D94B2F10D94B2F10D94B2F1F0
:10E020000D94B2F10D94B2F10D94B2F10D94B2F1E0
:10E030000D94B2F10D94B2F10D94B2F10D94B2F1D0
:10E040000D94B2F10D94B2F10D94B2F10D94B2F1C0
:10E050000D94B2F10D94B2F10D94B2F10D94B2F1B0
:10E060000D94B2F10D94B2F10D94B2F10D94B2F1A0
:10E070000D94B2F10D94B2F10D94B2F10D94B2F190
:10E080000D94B2F10D94B2F10D94B2F10D94B2F180
:10E090000D94B2F10D94B2F10D94B2F10D94B2F170
:10E0A0000D94B2F10D94B2F10D94B2F10D94B2F160
:10E0B0000D94B2F10D94B2F10D94B2F10D94B2F150
:10E0C0000D94B2F10D94B2F10D94B2F10D94B2F140
:10E0D0000D94B2F10D94B2F10D94B2F10D94B2F130
:10E0E0000D94B2F141546D656761323536300041AF
:10E0F000726475696E6F206578706C6F72657220DE
:10E1000073746B3530305632206279204D4C530099
:10E11000426F6F746C6F616465723E004875683F52
:10E1200000436F6D70696C6564206F6E203D200048
:10E130004350552054797065202020203D20005FF9
:10E140005F4156525F415243485F5F3D2000415658
:10E1500052204C696243205665723D20004743437C
:10E160002056657273696F6E203D20004350552024
:10E1700049442020202020203D20004C6F7720663D
:10E18000757365202020203D20004869676820665F
:10E190007573652020203D200045787420667573D6
:10E1A00065202020203D20004C6F636B2066757336
:10E1B000652020203D20004D617220203720323024
:10E1C000313300312E362E3800342E332E350056A2
:10E1D00023202020414444522020206F7020636F70
:10E1E00064652020202020696E73747275637469E1
:10E1F0006F6E2061646472202020496E74657272B3
:10E20000757074006E6F20766563746F7200726A49
:10E210006D702020006A6D70200057686174207056
:10E220006F72743A00506F7274206E6F7420737541
:10E2300070706F72746564004D7573742062652030
:10E2400061206C6574746572002000577269747483
:10E25000696E672045450052656164696E672045B7
:10E26000450045452065727220636E743D00504F35
:10E27000525400303D5A65726F2061646472003FF1
:10E280003D43505520737461747300403D454550C3
:10E29000524F4D207465737400423D426C696E6B41
:10E2A000204C454400453D44756D70204545505215
:10E2B0004F4D00463D44756D7020464C415348001B
:10E2C000483D48656C70004C3D4C69737420492F83
:10E2D0004F20506F72747300513D51756974005234
:10E2E0003D44756D702052414D00563D73686F7707
:10E2F00020696E7465727275707420566563746FF0
:10E30000727300593D506F727420626C696E6B00BD
:10E310002A0011241FBECFEFD1E2DEBFCDBF01E046
:10E320000CBF12E0A0E0B2E0EEE1FDEF03E00BBFB6
:10E3300002C007900D92A030B107D9F712E0A0E01B
:10E34000B2E001C01D92AE30B107E1F70F9460F367
:10E350000D948DFE01E20EBF0FEF0DBF11241FBE05
:10E360000D9460F30D9400F020E030E040ED57E0B4
:10E3700005C0FA013197F1F72F5F3F4F2817390792
:10E38000C0F308959C01260F311DC901A0E0B0E043
:10E390002F5F3F4FABBFFC018791882361F08093D3
:10E3A000C6008091C00086FFFCCF8091C0008064D1
:10E3B0008093C000EACF08958DE08093C6008091DD
:10E3C000C00086FFFCCF8091C00080648093C000B5
:10E3D0008AE08093C6008091C00086FFFCCF8091C8
:10E3E000C00080648093C00008950F94C2F10F9420
:10E3F000DCF10895FC019081992359F09093C600B7
:10E400008091C00086FFFCCF8091C0008064809323
:10E41000C0003196992379F70895282F982F929567
:10E420009F70892F805D8A3308F0895F8093C600D2
:10E430008091C00086FFFCCF8091C00080648093F3
:10E44000C000822F8F70982F905D9A3308F0995FEB
:10E450009093C6008091C00086FFFCCF8091C000E1
:10E4600080648093C00008959C01FB01853691056E
:10E470001CF46330710594F0C90164E670E00F94F8
:10E480002EFE605D7F4F6093C6008091C00086FFC6
:10E49000FCCF8091C00080648093C0002B30310598
:10E4A00014F43297B4F0C90164E670E00F942EFEC4
:10E4B0006AE070E00F942EFE605D7F4F6093C600AF
:10E4C0008091C00086FFFCCF8091C0008064809363
:10E4D000C000C9016AE070E00F942EFEC0968093E0
:10E4E000C6008091C00086FFFCCF8091C000806490
:10E4F0008093C00008951F93182F8EE692EE60E07F
:10E500000F94C2F11093C6008091C00086FFFCCF2B
:10E510008091C00080648093C0000F94DCF11F9153
:10E5200008952F923F924F925F926F927F928F92B7
:10E530009F92AF92BF92CF92DF92EF92FF920F9392
:10E540001F93DF93CF93CDB7DEB762970FB6F894E2
:10E55000DEBF0FBECDBF382E622ECA01DB015C01CB
:10E560006D01772420E2222E2E010894411C511CBB
:10E570008BC081E0A81680E0B80681E0C80680E084
:10E58000D80628F0C601AA27BB270F940DF2BB2797
:10E59000AD2D9C2D8B2D0F940DF28A2D0F940DF225
:10E5A0002092C6008091C00086FFFCCF8091C00001
:10E5B00080648093C0009DE29093C6008091C0006B
:10E5C00086FFFCCF8091C00080648093C0002092C1
:10E5D000C6008091C00086FFFCCF8091C00080649F
:10E5E0008093C00019828601750188249924A1E0D6
:10E5F0003A1651F03A1620F0B2E03B1661F409C029
:10E600000BBFF701779007C0C7010F9477FE782EF4
:10E6100002C0F7017080872D0F940DF22092C60082
:10E620008091C00086FFFCCF8091C0008064809301
:10E63000C000872D8052F401EF70F0708F3520F408
:10E64000E40DF51D708204C0E40DF51D8EE280839B
:10E650000894E11CF11C011D111D0894811C911CE2
:10E6600090E18916910409F0C2CF80E190E0A0E02A
:10E67000B0E0A80EB91ECA1EDB1E198AC2010F9493
:10E68000FAF10F94DCF16A94662009F072CF629679
:10E690000FB6F894DEBF0FBECDBFCF91DF911F91B3
:10E6A0000F91FF90EF90DF90CF90BF90AF909F9031
:10E6B0008F907F906F905F904F903F902F90089534
:10E6C0002F923F924F925F926F927F928F929F9282
:10E6D000AF92BF92CF92DF92EF92FF920F931F9370
:10E6E000DF93CF93CDB7DEB7CD53D1400FB6F894BB
:10E6F000DEBF0FBECDBF01E20EBF0FEF0DBF94B75F
:10E70000F894A89514BE80916000886180936000A1
:10E7100010926000789493FF05C0E0910002F091A0
:10E7200001021995279A2F9A8091C00082608093E8
:10E73000C00080E18093C40088E18093C1000000A4
:10E74000EE24FF24870144E0A42EB12CCC24DD2448
:10E7500024C0C5010197F1F70894E11CF11C011DCB
:10E76000111D21E2E2162EE4F20620E0020720E06D
:10E77000120718F031E0C32ED12CC801B70127ECE5
:10E780003BE140E050E00F9441FE611571058105C9
:10E79000910519F485B1805885B98091C00087FD35
:10E7A00003C0C114D104A9F2A6014F5F5F4FC25E3E
:10E7B000DE4F59834883CE51D140C25EDE4F8881FF
:10E7C0009981CE51D140019711F00D9410FEC05D9A
:10E7D000DE4F19821882C053D14060E0C15DDE4F28
:10E7E0001882CF52D14088249924C35DDE4F19820C
:10E7F0001882CD52D140C05EDE4F188219821A8233
:10E800001B82C052D140CE5CDE4F188219821A8220
:10E810001B82C253D140EE24FF2487010BBFF701B6
:10E8200007911691C45CDE4F19830883CC53D14005
:10E830000D940BFEC25EDE4F28813981CE51D1404E
:10E840002130310509F52091C600C25EDE4F1982E4
:10E850001882CE51D14022C02F5F3F4F4F4F5F4FA4
:10E86000213082E138078AE7480780E0580780F0C6
:10E87000C45CDE4FE881F981CC53D140EF5FFF4F9C
:10E8800019F0EE27FF27099420E030E040E050E047
:10E890008091C00087FFE0CF2091C600C35DDE4FAE
:10E8A00048815981CD52D1404F5F5F4FC35DDE4FEC
:10E8B00059834883CD52D140213209F063C64A3092
:10E8C000510508F05FC60894811C911C53E0851621
:10E8D000910409F059C600E010E018C081E280936D
:10E8E000C6008091C00086FFFCCF8091C00080648C
:10E8F0008093C0002F5F3F4F2931310579F70F9486
:10E90000DCF10F5F1F4F0530110519F020E030E0FA
:10E91000E5CF10920A0210920B0210920C02109294
:10E920000D02109206021092070210920802109235
:10E930000902109202021092030210920402109235
:10E9400005028FEE90EE60E00F94F5F180E191EE1C
:10E9500060E00F94C2F18091C00087FFFCCF9091DE
:10E96000C600903608F09F759032B8F09093C600BC
:10E970008091C00086FFFCCF8091C00080648093AE
:10E98000C000A0E2A093C6008091C00086FFFCCF2B
:10E990008091C00080648093C000983409F4D7C18E
:10E9A0009934B8F4923409F459C1933458F490333B
:10E9B00019F1903308F4E3C59F33A1F1903409F0C5
:10E9C000DEC5BDC0953409F470C1963409F0D7C5D1
:10E9D00098C1923509F42BC2933538F49C3409F46C
:10E9E000F5C1913509F0CBC518C2963509F445C279
:10E9F000993509F0C4C567C483E792EE62E00F94CD
:10EA0000F5F110920602109207021092080210927D
:10EA1000090210920A0210920B0210920C0210923C
:10EA20000D0213C18FE792EE62E00F94F5F18FEEC5
:10EA300090EE60E00F94F5F181E291EE60E00F94CA
:10EA4000C2F187EB91EE60E00F94F5F180E391EE77
:10EA500060E00F94C2F184EE90EE60E00F94F5F167
:10EA60008FE391EE60E00F94C2F186E090E061E008
:10EA700070E00F9434F20F94DCF18DE591EE60E0DC
:10EA80000F94C2F189EC91EE60E00F94F5F18EE401
:10EA900091EE60E00F94C2F183EC91EE60E00F9490
:10EAA000F5F18CE691EE60E00F94C2F18EE10F94E7
:10EAB0000DF288E90F940DF281E00F940DF20F949E
:10EAC000DCF18BE791EE60E00F94C2F119E0E0E039
:10EAD000F0E010935700E4918E2F0F940DF20F94F5
:10EAE000DCF18AE891EE60E00F94C2F1E3E0F0E03F
:10EAF00010935700E4918E2F0F940DF20F94DCF1D8
:10EB000089E991EE60E00F94C2F1E2E0F0E0109349
:10EB10005700E4918E2F0F940DF20F94DCF188EAE8
:10EB200091EE60E00F94C2F1E1E0F0E01093570045
:10EB30001491812F0F940DF20F94DCF107CF8BE825
:10EB400092EE62E00F94F5F18BE492EE60E00F94A8
:10EB5000F5F10F94DCF100E010E019C0C8016F2D51
:10EB60000F947FFEFF2031F489E492EE60E00F9471
:10EB7000C2F10BC0F092C6008091C00086FFFCCFAE
:10EB80008091C00080648093C0000F5F1F4FC80158
:10EB900081519F41A0E0B0E0ABBFFC01F790BAE229
:10EBA000FB1621F0E2E000301E07C1F60F94DCF105
:10EBB0000F94DCF187E592EE60E00F94F5F10F948D
:10EBC000DCF1CC24DD2400E010E01EC0C8010F946D
:10EBD00077FEF82E882331F489E492EE60E00F94FA
:10EBE000C2F10BC08093C6008091C00086FFFCCFAD
:10EBF0008091C00080648093C000FE1419F00894D6
:10EC0000C11CD11C0F5F1F4FC80181519F41A0E063
:10EC1000B0E0ABBFFC01E790FAE2EF1621F022E092
:10EC20000030120799F60F94DCF10F94DCF182E6C4
:10EC300092EE60E00F94C2F1C60161E070E00F94C3
:10EC400034F20F94DCF10F94DCF110920202109276
:10EC50000302109204021092050278CE89E992EE26
:10EC600062E00F94F5F1279A2F9A16C02F9880E052
:10EC700090E0E0EDF7E03197F1F7019684369105E9
:10EC8000C1F72F9A80E090E0E0EDF7E03197F1F7DF
:10EC9000019684369105C1F78091C00087FFE6CFC9
:10ECA0008091C00087FFFCCF64C485EA92EE62E0E9
:10ECB0000F94F5F140910202509103026091040219
:10ECC0007091050281E020E10F9491F2809102029F
:10ECD00090910302A0910402B091050280509F4FD1
:10ECE000AF4FBF4F8093020290930302A0930402A0
:10ECF000B093050280509041A040B04008F426CE69
:10ED0000A4CF83EB92EE62E00F94F5F140910602FE
:10ED100050910702609108027091090280E020E1A1
:10ED20000F9491F28091060290910702A09108023F
:10ED3000B091090280509F4FAF4FBF4F80930602A2
:10ED400090930702A0930802B0930902FFCD80ECD4
:10ED500092EE62E00F94F5F183E792EE60E00F949B
:10ED6000F5F18FE792EE60E00F94F5F18BE892EE0B
:10ED700060E00F94F5F189E992EE60E00F94F5F10F
:10ED800085EA92EE60E00F94F5F183EB92EE60E09D
:10ED90000F94F5F180EC92EE60E00F94F5F187ECC2
:10EDA00092EE60E00F94F5F188ED92EE60E00F9442
:10EDB000F5F18FED92EE60E00F94F5F18AEE92EEB0
:10EDC00060E00F94F5F183E093EEBDCD87EC92EE19
:10EDD00062E00F94F5F181E40F947BF282E40F94EA
:10EDE0007BF283E40F947BF284E40F947BF285E45E
:10EDF0000F947BF286E40F947BF287E40F947BF20E
:10EE000088E40F947BF28AE40F947BF28BE40F94F6
:10EE10007BF28CE40F947BF299CD88ED92EE62E068
:10EE20000F94F5F1772473948824992409C48FED05
:10EE300092EE62E00F94F5F140910A0250910B02BC
:10EE400060910C0270910D0282E020E10F9491F22A
:10EE500080910A0290910B02A0910C02B0910D02D8
:10EE600080509F4FAF4FBF4F80930A0290930B0289
:10EE7000A0930C02B0930D0269CD8AEE92EE62E08F
:10EE80000F94F5F184EE90EE60E00F94F5F18FECC5
:10EE900091EE60E00F94F5F1662477244301CC5D98
:10EEA000DE4F19821882C452D140D401C301B695F5
:10EEB000A79597958795CA5DDE4F88839983AA8326
:10EEC000BB83C652D140CC5DDE4FA881B981C4520C
:10EED000D1401196CC5DDE4FB983A883C452D14096
:10EEE000CD0162E070E00F9434F2B0E2B093C6005E
:10EEF0008091C00086FFFCCF8091C0008064809329
:10EF0000C000EDE2E093C6008091C00086FFFCCF18
:10EF10008091C00080648093C000F0E2F093C6004E
:10EF20008091C00086FFFCCF8091C00080648093F8
:10EF3000C000CA5DDE4FE880F9800A811B81C6529D
:10EF4000D140BB27A12F902F8F2D0F940DF2CA5DBA
:10EF5000DE4F8881C652D1400F940DF2B0E2FB2EF5
:10EF6000F092C6008091C00086FFFCCF8091C00067
:10EF700080648093C0000DE30093C6008091C000C0
:10EF800086FFFCCF8091C00080648093C00010E2B7
:10EF90001093C6008091C00086FFFCCF8091C00016
:10EFA00080648093C0008BBEF3012791C65DDE4F65
:10EFB0002883CA52D140A22EBB24CC24DD2408943D
:10EFC000611C711C811C911C8BBEF3018791282E42
:10EFD0003324442455240894611C711C811C911C09
:10EFE0008BBEF3013791C55DDE4F3883CB52D140E4
:10EFF0000894611C711C811C911C8BBEF30147910C
:10F00000C45DDE4F4883CC52D140ADEFEA2EAFEF66
:10F01000FA2EAFEF0A2FAFEF1A2F6E0C7F1C801E57
:10F02000911E142D032DF22CEE24EA0CFB1C0C1D5A
:10F030001D1D0F940DF220E22093C6008091C000A8
:10F0400086FFFCCF8091C00080648093C000C65DC5
:10F05000DE4F8881CA52D1400F940DF230E23093D6
:10F06000C6008091C00086FFFCCF8091C000806404
:10F070008093C000C45DDE4F8881CC52D1400F9494
:10F080000DF240E24093C6008091C00086FFFCCFA5
:10F090008091C00080648093C000C55DDE4F888190
:10F0A000CB52D1400F940DF250E25093C6008091A4
:10F0B000C00086FFFCCF8091C00080648093C000B8
:10F0C0008FEFE8168FEFF80680E0080780E018075A
:10F0D00031F484E092EE60E00F94C2F1DFC0D80119
:10F0E000C7018070907CA070B0708050904CA040A0
:10F0F000B040D1F52FEF3FE340E050E0E222F322B1
:10F1000004231523CA5DDE4FA880B980CA80DB8046
:10F11000C652D140AE0CBF1CC01ED11EAA0CBB1CD7
:10F12000CC1CDD1C8EE092EE60E00F94C2F1BB2798
:10F13000A12F902F8F2D0F940DF28E2D0F940DF285
:10F1400030E23093C6008091C00086FFFCCF8091F2
:10F15000C00080648093C0004EE34093C60080915D
:10F16000C00086FFFCCF87C08EE09EEFA0E0B0E03D
:10F17000E822F9220A231B239CE0E91694E9F90608
:10F1800090E0090790E0190709F088C0C45DDE4FE0
:10F19000A881CC52D140EA2EFF2400E010E0102FCD
:10F1A0000F2DFE2CEE24C55DDE4FB881CB52D14031
:10F1B000EB0EF11C011D111DD601C501817090706F
:10F1C000A070B070DC0199278827E80EF91E0A1F8D
:10F1D0001B1F20EF30E040E050E0A222B322C42207
:10F1E000D52241E1AA0CBB1CCC1CDD1C4A95D1F7F1
:10F1F000EA0CFB1C0C1D1D1D81E090E0A0E0B0E0BE
:10F20000282239224A225B2235E1220C331C441C7D
:10F21000551C3A95D1F7E20CF31C041D151D57013E
:10F220006801AA0CBB1CCC1CDD1C85E192EE60E0E1
:10F230000F94C2F1C801AA27BB270F940DF2BB2778
:10F24000A12F902F8F2D0F940DF28E2D0F940DF274
:10F2500090E29093C6008091C00086FFFCCF809121
:10F26000C00080648093C000AEE3A093C60080918C
:10F27000C00086FFFCCF8091C00080648093C000F6
:10F28000C601AA27BB270F940DF2BB27AD2D9C2DDD
:10F290008B2D0F940DF28A2D0F940DF20F94DCF14B
:10F2A000CC5DDE4FE881F981C452D140F99709F471
:10F2B0004DCBF4E0EF2EF12C012D112D6E0C7F1CA7
:10F2C000801E911EF2CD83E093EE62E00F94F5F183
:10F2D0008AE192EE60E00F94C2F18091C00087FF56
:10F2E000FCCF1091C6001F751093C6008091C0001E
:10F2F00086FFFCCF8091C00080648093C0000F9493
:10F30000DCF1812F81548A3108F036C1163409F4BA
:10F3100095C0173490F4133409F44EC0143430F40B
:10F320001134F1F0123409F01DC130C0143409F465
:10F3300059C0153409F016C16BC01A3409F4C4C0A1
:10F340001B3438F4173409F48FC0183409F00AC19B
:10F35000A1C01B3409F4D2C01C3409F003C1E8C0B9
:10F360008FEF81B90DC082B1809582B980E090E0C5
:10F37000E0EDF7E03197F1F70196883C9105C1F790
:10F380008091C00087FFEFCF12B8EFC08FEF84B934
:10F390000DC085B1809585B980E090E0E0EDF7E0A3
:10F3A0003197F1F70196883C9105C1F78091C00033
:10F3B00087FFEFCF15B8D9C08FEF87B90DC088B1DF
:10F3C000809588B980E090E0E0EDF7E03197F1F7C3
:10F3D0000196883C9105C1F78091C00087FFEFCF6F
:10F3E00018B8C3C08FEF8AB90DC08BB180958BB9A7
:10F3F00080E090E0E0EDF7E03197F1F70196883C8E
:10F400009105C1F78091C00087FFEFCF1BB8ADC059
:10F410008FEF8DB90DC08EB180958EB980E090E0F0
:10F42000E0EDF7E03197F1F70196883C9105C1F7DF
:10F430008091C00087FFEFCF1EB897C08FEF80BBD1
:10F440000DC081B3809581BB80E090E0E0EDF7E0F6
:10F450003197F1F70196883C9105C1F78091C00082
:10F4600087FFEFCF11BA81C08FEF83BB0DC084B38C
:10F47000809584BB80E090E0E0EDF7E03197F1F714
:10F480000196883C9105C1F78091C00087FFEFCFBE
:10F4900014BA6BC08FEF809301010FC080910201FD
:10F4A00080958093020180E090E0E0EDF7E03197F5
:10F4B000F1F70196883C9105C1F78091C00087FF64
:10F4C000EDCF1092020151C08FEF809304010FC065
:10F4D0008091050180958093050180E090E0E0ED4A
:10F4E000F7E03197F1F70196883C9105C1F78091DB
:10F4F000C00087FFEDCF1092050137C08FEF8093DA
:10F5000007010FC08091080180958093080180E079
:10F5100090E0E0EDF7E03197F1F70196883C910536
:10F52000C1F78091C00087FFEDCF109208011DC088
:10F530008FEF80930A010FC080910B01809580931B
:10F540000B0180E090E0E0EDF7E03197F1F70196F4
:10F55000883C9105C1F78091C00087FFEDCF1092E4
:10F560000B0103C085E292EEEEC98091C00087FFD7
:10F57000FCCF8091C600EAC988E392EEE4C98CE131
:10F5800091EEE1C988249924933011F1943028F444
:10F59000913089F09230B8F408C0953061F195301F
:10F5A000F0F0963009F048C043C02B3109F042C951
:10F5B00091E06BE13FC96227C15DDE4F2883CF52E6
:10F5C000D14092E037C9B22FA0E0622793E032C960
:10F5D000822F90E0A82BB92B622794E02BC92E3004
:10F5E00009F039C3622795E0C05DDE4F19821882A9
:10F5F000C053D1401FC9E1E0F0E0EC0FFD1FC05D3A
:10F60000DE4F08811981C053D140E00FF11F2083E4
:10F610000F5F1F4FC05DDE4F19830883C053D14079
:10F6200062270A171B0709F005C9D80196E002C92D
:10F63000261709F010C303C0973009F0FBC87724E0
:10F640009981933109F412C19431C8F4963009F4C8
:10F65000D8C0973050F4923009F406C1933009F4C1
:10F660006DC0913009F059C253C0913109F477C08F
:10F67000923108F0BBC0903109F04FC2F5C098310B
:10F6800009F487C0993150F4953109F4EFC09531F0
:10F6900008F4C6C1963109F040C2C2C19A3109F4DA
:10F6A0006CC09A3108F491C09B3109F45BC09D3164
:10F6B00009F033C29D81903359F48F81882311F46E
:10F6C0009EE11CC0813011F091E018C098E916C08D
:10F6D000892F807591F0903539F4E0E0F0E089E011
:10F6E0008093570094910AC0983539F4E3E0F0E034
:10F6F00089E080935700949101C090E01A821B82A8
:10F700008D818C831D829E831F8227E030E009C299
:10F710001A8288E08B8381E48C8386E58D8382E581
:10F720008E8389E48F8383E5888780E589878FE5E9
:10F730008A8782E38B872BE030E0F3C18A818139AD
:10F7400041F0823941F0803911F48FE005C080E04A
:10F7500003C082E001C08AE01A828B8344C0772410
:10F76000739482C08D81882311F48EE12CC0813086
:10F7700011F081E028C088E926C01A82E1E0F0E0BB
:10F7800089E08093570084918B831C8224E030E0D1
:10F79000C8C18B81803589F48C81883039F4E2E0EE
:10F7A000F0E089E08093570084910DC0E0E0F0E044
:10F7B00089E080935700849106C0E3E0F0E089E09F
:10F7C0008093570084911A82DFCF8D81836C99E0FA
:10F7D000E1E0F0E0082E90935700E89507B600FCB2
:10F7E000FDCF1A821B8223E030E09BC180EC8A832C
:10F7F000CE5CDE4F188219821A821B82C253D1401E
:10F800008EC18A8190E0A0E0B0E0582F44273327D2
:10F8100022278B8190E0A0E0B0E0DC0199278827C7
:10F82000282B392B4A2B5B2B8D8190E0A0E0B0E098
:10F83000282B392B4A2B5B2B8C8190E0A0E0B0E089
:10F84000BA2FA92F982F8827282B392B4A2B5B2BCF
:10F85000220F331F441F551FC05EDE4F288339839C
:10F860004A835B83C052D1401A8259C13A81C95C34
:10F87000DE4F3883C753D140CA5CDE4F1882C6536F
:10F88000D1408B81C82EDD24CA5CDE4F488159816E
:10F89000C653D140C42AD52A933109F082C0CE5C28
:10F8A000DE4F88819981AA81BB81C253D1408050AB
:10F8B000904CA340B04030F583E0CE5CDE4FE88052
:10F8C000F9800A811B81C253D140F70100935B008C
:10F8D00080935700E89507B600FCFDCFCE5CDE4F65
:10F8E000088119812A813B81C253D14000501F4FAA
:10F8F0002F4F3F4FCE5CDE4F088319832A833B8313
:10F90000C253D140C05EDE4F488159816A817B81FC
:10F91000C052D140DE011B9631E08C9111962C91A2
:10F9200011971296C75CDE4F2883C953D140C85C3B
:10F93000DE4F1882C853D14090E0C85CDE4FE881AA
:10F94000F981C853D1408E2B9F2B0C01FA01609393
:10F950005B0030935700E89511244E5F5F4F6F4F67
:10F960007F4F0EEFE02E0FEFF02ECE0CDF1CC114F8
:10F97000D10499F685E0C05EDE4F088119812A81A5
:10F980003B81C052D140F80120935B008093570027
:10F99000E89507B600FCFDCF81E180935700E8951C
:10F9A00035C0C05EDE4F88819981AA81BB81C0527B
:10F9B000D140B695A795979587957C018601ABE0D8
:10F9C000AA2EB12CAC0EBD1E0BC0D5016D915D01F0
:10F9D000C7010F947FFE0894E11CF11C01501040F8
:10F9E0000115110591F7A60160E070E0440F551F65
:10F9F000661F771FC05EDE4FE880F9800A811B8199
:10FA0000C052D1404E0D5F1D601F711F1A82C05E33
:10FA1000DE4F488359836A837B83C052D1407FC0C5
:10FA2000FA80C55CDE4FF882CB53D140C65CDE4F16
:10FA30001882CA53D1408B81C82EDD24C65CDE4FAC
:10FA400008811981CA53D140C02AD12A1A828981DA
:10FA5000BE016D5F7F4F843121F59601C05EDE4FA0
:10FA6000E880F9800A811B81C052D1400BBFF701A9
:10FA700087919691DB018C9311969C936E5F7F4FDB
:10FA8000D801C7010296A11DB11DC05EDE4F88835B
:10FA90009983AA83BB83C052D14022503040F1F6F3
:10FAA00036C0C05EDE4F288139814A815B81C052F9
:10FAB000D1400894C108D108760100E010E0089414
:10FAC000C11CD11C0894E11CF11C011D111DE20E8A
:10FAD000F31E041F151F21BDBB27A52F942F832FB5
:10FAE00082BD2F5F3F4F4F4F5F4FF89A80B5DB01CC
:10FAF0008D93BD012E153F054007510761F7C05E8C
:10FB0000DE4F288339834A835B83C052D1409601FC
:10FB10002D5F3F4FFB01108204C080EC8A8322E0FE
:10FB200030E08BE18093C6008091C00086FFFCCF5F
:10FB30008091C00080648093C000C15DDE4FF88179
:10FB4000CF52D140F093C6008091C00086FFFCCF19
:10FB50008091C00080648093C000432F3093C60022
:10FB60008091C00086FFFCCF8091C00080648093AC
:10FB7000C000922F2093C6008091C00086FFFCCF6A
:10FB80008091C00080648093C0008EE08093C600A6
:10FB90008091C00086FFFCCF8091C000806480937C
:10FBA000C00065E1C15DDE4FE880CF52D1406E25D7
:10FBB00069276427FE01319610C090819093C6009A
:10FBC0008091C00086FFFCCF31968091C000806498
:10FBD0008093C0006927215030402115310569F715
:10FBE0006093C6008091C00086FFFCCF8091C0006A
:10FBF00080648093C00085B1805885B9772081F4F6
:10FC0000C15DDE4F0881CF52D1400F5FC15DDE4F35
:10FC10000883CF52D14090E0A0E0B0E00D941AF4F8
:10FC200027982F9880E090E020ED37E0F901319798
:10FC3000F1F7019684369105C9F700008091C00064
:10FC40008D7F8093C00081E180935700E895EE2777
:10FC5000FF270994FFCF90E00D941AF497FB092E2B
:10FC600007260AD077FD04D02ED006D000201AF443
:10FC7000709561957F4F0895F6F7909581959F4F08
:10FC80000895A1E21A2EAA1BBB1BFD010DC0AA1FDD
:10FC9000BB1FEE1FFF1FA217B307E407F50720F0F5
:10FCA000A21BB30BE40BF50B661F771F881F991F70
:10FCB0001A9469F760957095809590959B01AC01B9
:10FCC000BD01CF010895AA1BBB1B51E107C0AA1FAC
:10FCD000BB1FA617B70710F0A61BB70B881F991FED
:10FCE0005A95A9F780959095BC01CD010895F99991
:10FCF000FECF92BD81BDF89A992780B50895262F31
:10FD0000F999FECF1FBA92BD81BD20BD0FB6F89400
:0EFD1000FA9AF99A0FBE01960895F894FFCF63
:00000001FF
