:100000000C9437010C9468010C9468010C946801FD
:100010000C9468010C9468010C9468010C946801BC
:100020000C9468010C94AD0E0C94AD0E0C94AD0EB6
:100030000C9468010C9468010C9468010C9468019C
:100040000C9468010C9468010C9468010C9468018C
:100050000C9468010C9468010C9468010C94630E74
:100060000C9468010C94390E0C940F0E0C946801DA
:100070000C9468010C9468010C9468010C9468015C
:100080000C9468010C9468010C9468010C9468014C
:100090000C9468010C9468010C9468010C94B70EE0
:1000A0000C9468010C9468010C9468010C9468012C
:1000B0000C9468010C9468010C9468010C9468011C
:1000C0000C9468010C9468010C9468010C94E50D83
:1000D0000C94BB0D0C9468010C94910D0C94670D5D
:1000E0000C9468010C94C60B0C9465030C942602C6
:1000F0000C9479030C949D0B0C94AC0B0C94690339
:100100000C9443030C9453030C9438030C94BF0BCE
:100110000C94DB0F0C9434030C945B030C94AF0130
:100120000C94E2090C9457030C941D030C94BC012D
:100130000C943C030C944D030C9449030C948809D3
:100140000C94B0010C94E20B0C9422030C94CD029D
:100150000C946F030C94BD010C9403020C94570B88
:100160000C9440030C94AE010C9434020C94800265
:100170000C94D10B0C9473030C9461030C94120235
:1001800000002200250028002B002E003100340042
:1001900002010000050108010B0105050505070521
:1001A00008080808020202020A0A080804040404F3
:1001B000010101010101010103030303030303031F
:1001C000040707070C0C0C0C0C0C0C0C02020202AE
:1001D00006060606060606060B0B0B0B0B0B0B0B97
:1001E0000102102020080810204010204080020149
:1001F000020108040201010204081020408080402E
:10020000201008040201800402018040201008042C
:1002100002010804020101020408102040800102CA
:1002200004081020408000000A0B02090C0D0E0883
:1002300007030401000000000000000000000000AF
:1002400000000000000000000000000000000000AE
:10025000000012111000000000000000000000006B
:10026000000000000000000000000000DB0F11246F
:100270001FBECFEFD1E2DEBFCDBF00E00CBF2AE052
:10028000AAE6B4E001C01D92A732B207E1F714E07C
:10029000A0E0B2E0E2E7FCE200E00BBF02C00790A2
:1002A0000D92AA36B107D9F711E0C7E3D1E000E01B
:1002B00006C021970109802FFE010E941216C63345
:1002C000D10780E00807A9F70E94BF100C943716E9
:1002D0000C940000CF93DF93EC019A01AB01E88905
:1002E000F98982E08083211581EE380741055105A7
:1002F00081F160E079E08DE390E00E94F0152150FB
:100300003109410951095695479537952795EC854F
:10031000FD851082EE85FF852083188EEC89FD898E
:1003200086E08083EA89FB89808180618083EA8915
:10033000FB89808188608083EA89FB89808180686D
:100340008083EA89FB8980818F7D8083DF91CF91D3
:100350000895E889F989108220E1D9CF0895089598
:10036000E0919D07F0919E07309729F010929A072F
:1003700010929907199408950895AF92BF92CF9261
:10038000DF92EF92FF920F931F93CF93DF936C0155
:100390007B018B01040F151FEB015E01AE18BF0836
:1003A000C017D10759F06991D601ED91FC910190E8
:1003B000F081E02DC6011995892B79F7C501DF91F0
:1003C000CF911F910F91FF90EF90DF90CF90BF9052
:1003D000AF900895FC01A089B1898C91A689B78955
:1003E00082FD0FC09C91818D8F5F8F73228D82174C
:1003F00049F0A18DAE0FBF2FB11D5D969C93818FEB
:1004000008958C910895FC01538D448D252F30E083
:10041000842F90E0821B930B541710F0CF96089511
:1004200001970895FC01918D828D981761F0A28D3E
:10043000AE0FBF2FB11D5D968C91928D9F5F9F7304
:10044000928F90E008958FEF9FEF0895FC01918DBA
:10045000828D981731F0828DE80FF11D858D90E027
:1004600008958FEF9FEF0895FC01918D228D892FC4
:1004700090E0805C9F4F821B91098F7399270895AC
:1004800089EC97E00E94340221E0892B09F420E0F6
:10049000822F089586E698E00E94340221E0892B9D
:1004A00009F420E0822F089583E099E00E9434024D
:1004B00021E0892B09F420E0822F0895FC01A48D0E
:1004C000A80FB92FB11DA35ABF4F2C91848D90E076
:1004D00001968F739927848FA689B7892C93A08959
:1004E000B1898C91837080648C93938D848D9813E3
:1004F00006C00288F389E02D80818F7D8083089576
:10050000EF92FF920F931F93CF93DF93EC0181E063
:10051000888F9B8D8C8D98131AC0E889F98980810A
:1005200085FF15C09FB7F894EE89FF896083E8893D
:10053000F98980818370806480839FBF81E090E02F
:10054000DF91CF911F910F91FF90EF900895F62EBC
:100550000B8D10E00F5F1F4F0F731127E02E8C8D56
:100560008E110CC00FB607FCFACFE889F98980819B
:1005700085FFF5CFCE010E945E02F1CFEB8DEC0F2F
:10058000FD2FF11DE35AFF4FF0829FB7F8940B8FB8
:10059000EA89FB8980818062CFCFCF93DF93EC0122
:1005A000888D8823B9F0AA89BB89E889F9898C915B
:1005B00085FD03C0808186FD0DC00FB607FCF7CF17
:1005C0008C9185FFF2CF808185FFEDCFCE010E9417
:1005D0005E02E9CFDF91CF910895282F30E0F90135
:1005E000EA5DFD4F9491F901E052FE4F4491265689
:1005F0003E4FF9012491222309F435C0992311F1CA
:1006000091509231F8F4E92FF0E08827E55FFC4F34
:100610008F4F0C9412163C0340031D033403380320
:100620002203430349034D03530357035B03610351
:100630006503220369036F037303809180008F7742
:1006400080938000E22FF0E0EE0FFF1FE058FE4F96
:10065000A591B4918FB7F894EC91611148C0409581
:100660004E234C938FBF0895809180008F7DE8CFFB
:1006700080918000877FE4CF84B58F7784BDE2CFFF
:1006800084B58F7DFBCF8091B0008F778093B000D1
:10069000D9CF8091B0008F7DF9CF809190008F7776
:1006A00080939000CFCF809190008F7DF9CF809183
:1006B0009000877FF5CF8091A0008F778093A00076
:1006C000C1CF8091A0008F7DF9CF8091A000877F5E
:1006D000F5CF809120018F7780932001B3CF809157
:1006E00020018F7DF9CF80912001877FF5CF4E2BA0
:1006F000B8CF60916A0481E0682760936A048DE056
:100700000C94ED0290917B00977F90937B00865331
:10071000806480937C0080917A00806480937A006A
:1007200080917A0086FDFCCF8091780090917900CD
:1007300008953FB7F8948091080790910907A09118
:100740000A07B0910B0726B5A89B05C02F3F19F0EB
:100750000196A11DB11D3FBFBA2FA92F982F882741
:10076000BC01CD01620F711D811D911D42E0660F1C
:10077000771F881F991F4A95D1F708958F929F92EE
:10078000AF92BF92CF92DF92EF92FF924B015C014A
:100790000E9499036B017C010E9499036C197D09E9
:1007A0008E099F09683E734081059105A8F321E0F9
:1007B000821A9108A108B10888EEC80E83E0D81EFD
:1007C000E11CF11C81149104A104B10429F7FF90EC
:1007D000EF90DF90CF90BF90AF909F908F90089553
:1007E0002FB7F89460910407709105078091060770
:1007F000909107072FBF08958F929F92AF92BF925B
:10080000EF92FF920F931F93CF93DF9300D01F922D
:10081000CDB7DEB719821A821B821C8284E690E073
:10082000A0E0B0E08093CD079093CE07A093CF07D0
:10083000B093D0078E010F5F1F4F7E0185E0E80E59
:10084000F11C0E94F0036093D1077093D20780934C
:10085000D3079093D40789EC97E00E94120297FF88
:1008600038C00E94F0038090D1079090D207A090EA
:10087000D307B090D407681979098A099B09809039
:10088000CD079090CE07A090CF07B090D007681505
:1008900079058A059B05F8F28981813051F48A81B6
:1008A0008F3F39F48B818F3F21F481E09C819F3F02
:1008B00009F080E00F900F900F900F90DF91CF9193
:1008C0001F910F91FF90EF90BF90AF909F908F90EE
:1008D0000895F80181938F01EE16FF0609F0B1CF5C
:1008E000DBCF2091FB04211109C021E02093FB0400
:1008F0003091A0092091A1093CBD2DBD60E0FC0113
:1009000084810C94ED0261E0FC0184810E94ED027F
:100910008091FB0481111092FB0408958EBD0000AC
:100920000DB407FEFDCF8EB508958FEF0C948E04A5
:100930000F931F93CF93DF93EC010E94F0038B0181
:100940000E9495048F3F69F00E94F003601B710BB9
:100950006C177D07A8F380E0DF91CF911F910F9175
:10096000089581E0F9CFCF92DF92EF92FF920F933B
:100970001F93CF93DF93EC01162F69017A018E81CB
:10098000882389F08F8198859C012F5F3F4F38879E
:100990002F838230924018F40E949504F3CFCE0149
:1009A0000E9483041E82CE010E9471048CE291E0B9
:1009B0000E949804812F80640E948E0408E110E058
:1009C000D701C601002E04C0B695A79597958795C7
:1009D0000A94D2F70E948E0408501109083F8FEF45
:1009E000180771F78FEF0E948E0410E00E949504A3
:1009F0008A8787FF04C01F3F11F01F5FF7CFDF9189
:100A0000CF911F910F91FF90EF90DF90CF900895BD
:100A1000CF92DF92EF92FF920F93CF93DF93EC018F
:100A2000690182E1411551056105710599F08B85D8
:100A3000833039F089E0440F551F661F771F8A9570
:100A4000D1F79A01AB0168E1CE010E94B30488237B
:100A500019F084E08D832DC08EEF0E948E04760104
:100A60008EEFD81AF70181917F010E948E04EC1459
:100A7000FD04C1F78FEF0E948E048FEF0E948E0459
:100A80000E9495048A878F71853071F4011116C018
:100A9000CE010E94830481E0DF91CF910F91FF90FE
:100AA000EF90DF90CF90089581E18D83CE010E9479
:100AB0008304CE010E94830480E0EECF88E592E0BB
:100AC0000E949804811102C085E1C4CF20E030E08B
:100AD000A9016DE0CE010E94B304882311F084E1E6
:100AE000B9CF0E9495048111FACFD2CF0F934091D4
:100AF000FD045091FE046091FF04709100054115C2
:100B000051056105710589F0082F21E035E090E07D
:100B100080E00E940805882349F01092FD0410929D
:100B2000FE041092FF041092000581E00F910895D9
:100B30000F93CF93C82F8091FC04811105C0C1E0B1
:100B40008C2FCF910F910895409100025091010296
:100B500060910202709103020C2F21E035E090E0D9
:100B600080E00E940805811102C0C0E0E9CFCC23DB
:100B700031F381E00E9476058823B9F31092FC04DA
:100B8000DFCFAF92BF92CF92DF92EF92FF921F938F
:100B9000CF93DF936B017C01142F80910002909121
:100BA0000102A0910202B09103028C159D05AE05D1
:100BB000BF0509F4ADC081E00E9498058823E1F1EA
:100BC000809106008823A1F080910000909101009F
:100BD000A0910200B0910300C816D906EA06FB06F0
:100BE00039F48091070090910800892B09F44FC0D7
:100BF000C0920000D0920100E0920200F092030047
:100C000080910B00A7019601833039F099E0220F03
:100C1000331F441F551F9A95D1F761E190E080E0A2
:100C20000E94B304882391F083E08093050090E054
:100C300080E00E94830480E0DF91CF911F91FF90BC
:100C4000EF90DF90CF90BF90AF9008950E94F00397
:100C5000EB010E94950480930A008F3F79F40E9473
:100C6000F0036C1B7D0B6D32714098F38FE0809325
:100C7000050090E080E00E948304D9CF8E3FC1F54B
:100C8000109208001092070081E080930600C1E0F6
:100C9000D5E081E0A82E87E0B82E0E9495048993C4
:100CA000AC16BD06D1F780910700909108009E5FB9
:100CB000909308008093070020910900222319F0E7
:100CC00081159240E8F0809106008823C9F0809158
:100CD0000700909108009C012F5F3F4F3093080060
:100CE000209307008230924028F40E949504EFCFB1
:100CF0008DE0BDCF90E080E00E948304109206005A
:100D0000C0920002D0920102E0920202F09203022D
:100D10004091FC04412B4093FC0481E08DCF4F9225
:100D20005F926F927F928F929F92AF92BF92CF927B
:100D3000DF92EF92FF920F931F93CF93DF93EC011B
:100D4000423051056105710590F480E0DF91CF914B
:100D50001F910F91FF90EF90DF90CF90BF90AF90D9
:100D60009F908F907F906F905F904F9008958985AE
:100D70009A85AB85BC850196A11DB11D8417950789
:100D8000A607B70710F3CB88DC88ED88FE888F892B
:100D9000803109F042C0BB27A72F962F852F48012D
:100DA00059012A013B01C80ED91EEA1EFB1E809183
:100DB000000290910102A0910202B0910302C816B4
:100DC000D906EA06FB0699F58F898031C1F5B30192
:100DD000A201552766277727440F551F4F5F5A4FAB
:100DE000FA01918280828091FC0481608093FC04EE
:100DF0008A89823080F08D819E81AF81B8858C0D8B
:100E00009D1DAE1DBF1D8093FD049093FE04A09315
:100E1000FF04B093000581E099CFDB01CA01E7E050
:100E2000B695A79597958795EA95D1F7B8CF40E005
:100E3000C701B6010E94C1058111C6CF86CFB3019B
:100E4000A2014F77552766277727440F551F440F78
:100E5000551F4F5F5A4FFA0180829182A282B3825E
:100E6000C2CF8F929F92AF92BF92CF92DF92EF92BA
:100E7000FF920F931F93CF93DF93FC01818592859F
:100E8000A385B4850196A11DB11D84179507A607FA
:100E9000B70770F480E0DF91CF911F910F91FF9021
:100EA000EF90DF90CF90BF90AF909F908F9008957C
:100EB00083889488A588B6888789803189F5BB277F
:100EC000A72F962F852FE9016A017B018F01BC01B5
:100ED000CD01680D791D8A1D9B1D809000029090A8
:100EE0000102A0900202B090030286169706A8069F
:100EF000B90601F5F8018789803111F5DD24EE246A
:100F0000FF24F601EE0FFF1FEF5FFA4F8081918102
:100F1000B0E0A0E088839983AA83BB8381E0BBCF44
:100F2000DB01CA01C7E0B695A79597958795CA9545
:100F3000D1F7C9CF40E00E94C1058111DBCFAACF14
:100F4000E894C7F8DD24EE24FF24F601EE0FFF1F1E
:100F5000EE0FFF1FEF5FFA4F80819181A281B38175
:100F6000BF70D8CF8F929F92AF92BF92CF92DF92F5
:100F7000EF92FF920F931F93CF93DF93EC018D813C
:100F800081110EC080E0DF91CF911F910F91FF90F2
:100F9000EF90DF90CF90BF90AF909F908F9008958B
:100FA0000B891C892D893E890417150726073707E9
:100FB00048F34A015B01823031F48A869B86AC8615
:100FC000BD8681E0E0CF81149104A104B10449F40D
:100FD0001E821F82188619861A861B861C861D860D
:100FE000F0CF0A851B852C853D85EB8DFC8D858595
:100FF00090E00996B901A8014150510961097109B0
:10100000082E04C076956795579547950A94D2F7B0
:1010100075016401E1E0CE1AD108E108F10804C0CD
:10102000F694E794D794C7948A95D2F7C416D50658
:10103000E606F70620F0012B022B032B11F58F8912
:10104000988DA98DBA8D8E839F83A887B9878E01CD
:101050000A5F1F4FC114D104E104F10409F4ADCFBC
:101060004E815F816885798598018B8D9C8D0E946A
:10107000310791E0C91AD108E108F1088111EACFDE
:1010800081CFC41AD50AE60AF70AE1CF3F924F9200
:101090005F926F927F928F929F92AF92BF92CF9208
:1010A000DF92EF92FF920F931F93CF93DF93CDB711
:1010B000DEB72C970FB6F894DEBF0FBECDBF5C0134
:1010C000DC015B968D909C905C9716964D905D90A0
:1010D0006D907C901997411451046104710409F4D6
:1010E00068C0BFEF4B1A5B0A6B0A7B0A312CF40114
:1010F00081859285A385B4859C01AD012F5F3F4F0B
:101100004F4F5F4F29873A874B875C877301620196
:101110001D821E821F821886F40181859285A38517
:10112000B4852D813E814F815885281739074A079C
:101130005B0708F056C089859A85AB85BC858C1500
:101140009D05AE05BF0550F482E0C82ED12CE12CE0
:10115000F12C92E0492E512C612C712C9E012F5FB5
:101160003F4FB701A601C4010E9431078823C9F18E
:1011700089819A81AB81BC81892B8A2B8B2B09F1C8
:10118000260137019FEF491A590A690A790A2D8108
:101190003E814F8158852F5F3F4F4F4F5F4F2D83CB
:1011A0003E834F8358873FEFC31AD30AE30AF30AFB
:1011B000B3CFF40140805180628073803324339434
:1011C00096CFC414D504E604F70409F70FEF1FEF18
:1011D0002FEF3FE0B701A601C4010E948F068111E5
:1011E00019C080E02C960FB6F894DEBF0FBECDBFBD
:1011F000DF91CF911F910F91FF90EF90DF90CF90F3
:10120000BF90AF909F908F907F906F905F904F9026
:101210003F900895D50116964D915D916D917C9109
:101220001997411551056105710539F0970186013E
:10123000C4010E948F068823A1F2D5011696CD9293
:10124000DD92ED92FC921997332051F0D701C6013F
:101250000196A11DB11DF40180839183A283B38304
:10126000F5018789908DA18DB28D892B8A2B8B2BCF
:1012700039F48481C78AD08EE18EF28E80688483AF
:10128000F50184818062848381E0ACCF1F93CF938A
:10129000DF93EC01162F8C8187FF2AC06E857F8536
:1012A0008889998941E00E94C105882361F1EA8912
:1012B00080E2E89FF0011124EF5FFA4F309719F1B7
:1012C0008D81823040F48B899C89AD89BE89848F61
:1012D000958FA68FB78F8F89988D938F828F8F89E7
:1012E000988DA98DBA8DB58BA48B8C818F778C83CB
:1012F000111103C08C818F7E8C83812FDF91CF9160
:101300001F910C94980580E0DF91CF911F91089573
:101310001F93CF93DF93EC018D81813031F090E00A
:1013200080E0DF91CF911F9108958C8181FFF7CFED
:1013300082FD1BC090E080E00E9471040E94950431
:10134000182F90E080E00E9483041F3F41F78C81BA
:1013500085FF1EC08D81882321F060E0CE010E94B0
:1013600046098C818F7D8C83DACF4B895C896D89AE
:101370007E898A859B85AC85BD8584179507A607E0
:10138000B707C1F2CE010E94B2078111D3CFC7CFF8
:101390004091FD045091FE046091FF04709100059E
:1013A000452B462B472B21F080E00E947605B7CFD6
:1013B00080618C832A853B85317080E092E0821BBE
:1013C000930BAFCF9F92AF92BF92CF92DF92EF92EB
:1013D000FF920F931F93CF93DF9300D01F921F9222
:1013E000CDB7DEB78C016D83DC0115968C91159716
:1013F000813009F0B9C014968C9181FFB5C082FD8F
:101400009FC0D8015B96ED91FC915C971A96AD90C8
:10141000BD90CD90DC901D9794809A94B601A50163
:1014200089E076956795579547958A95D1F79422E7
:10143000B1E0BB22992009F49FC0D8015B96ED91E1
:10144000FC915C971696CD90DD90ED90FC901997ED
:10145000B2E0CB1AD108E108F108858504C0CC0CB4
:10146000DD1CEE1CFF1C8A95D2F7468557856089E6
:101470007189C40ED51EE61EF71EC90CD11CE11CD5
:10148000F11CA114B10409F00AC1F8014285538589
:101490006485758583899489A589B6894817590714
:1014A0006A077B0708F4FBC081E00E949805882347
:1014B00009F45AC0C0920002D0920102E0920202E6
:1014C000F09203028091FC0481608093FC04F5019A
:1014D000EF5FFA4F8D818083F80182859385A48523
:1014E000B5850196A11DB11D82879387A487B58715
:1014F0004389548965897689481759076A077B07A4
:1015000038F42481838B948BA58BB68B206824833D
:10151000D80114968C9183FD9FC081E090E00F90DC
:101520000F900F900F900F90DF91CF911F910F911F
:10153000FF90EF90DF90CF90BF90AF909F90089575
:10154000F801438954896589768982859385A485C4
:10155000B585481759076A077B0709F452CFC801B8
:101560000E94B20781114DCF81E090E0D80113961F
:101570009C938E93129749C0D80116964D915D9118
:101580006D917C911997A114B10409F071C04115B6
:1015900051056105710589F557968D919D910D90C5
:1015A000BC91A02D0097A105B10509F04FC0C8015D
:1015B0000E9446088823C1F2D8015B96ED91FC9108
:1015C0005C971696CD90DD90ED90FC901997B2E067
:1015D000CB1AD108E108F108858504C0CC0CDD1CCC
:1015E000EE1CFF1C8A95D2F7468557856089718964
:1015F000C40ED51EE61EF71E48CF9E012F5F3F4F3B
:10160000CF010E943107811103C090E080E087CFB5
:1016100089819A81AB81BC81F801238D348DF901D8
:10162000278948EF5FEF60E070E0203121F048EF5C
:101630005FEF6FEF7FE084179507A607B70730F0DD
:10164000C8010E9446088111F8CE8ECFF80186832A
:101650009783A087B187F1CEF8018581882309F4AB
:1016600083CF61E0C8010E944609811156CF7CCF2B
:101670006A017B01B2E0CB1AD108E108F108858547
:1016800004C0CC0CDD1CEE1CFF1C8A95D2F74685ED
:10169000578560897189C40ED51EE61EF71E41E08C
:1016A000C701B6010E94C105811111CF5DCF089518
:1016B0002091B104260F3327331F21323105ECF47A
:1016C0002091D504FC0190E080E0243069F082E0B4
:1016D0000895A091B1042191AC014F565B4FA40F26
:1016E000B52FB11D2C930196861798F38091B10404
:1016F000680F6093B10480E0089581E0089510922E
:10170000D50481E08093D7041092D60461E084E18F
:101710000E94ED0261E085E10E94ED02E9EBF0E05C
:1017200080818E7F808380818D7F808388E4809319
:10173000B80085E48093BC000895E0919C078091F7
:101740009B07E81730F4F0E0E559FB4F808190E00B
:1017500008958FEF9FEF089590919C0780919B07CC
:101760002FEF3FEF981748F4E92FF0E0E559FB4FD2
:10177000208130E09F5F90939C07C901089580917C
:101780009B0790919C07891B990B0895CF93DF933A
:10179000CB01EA01642F0E94580BCE01DF91CF915B
:1017A0000895CF93DF931F92CDB7DEB7698361E0D1
:1017B000CE0101960E94580B81E090E00F90DF91DE
:1017C000CF91089590E080E008958091B3079091C3
:1017D000B407DC01ED91FC910084F185E02D1995B1
:1017E000892BC9F183E099E00E94120220918C07B5
:1017F00030918D072115310541F340918F0790916C
:101800008E07491750F080919307909194070196A5
:101810009093940780939307D8CFE0919007E20FBD
:10182000F32FF11D80838091900790E001966091E5
:101830008E0770E00E94DC158093900780918F07DF
:101840008F5F80938F0790919207981708F0BDCF14
:1018500080939207BACF089580E090E0892B29F019
:101860000E94540281110E94000080E090E0892BC8
:1018700049F080E090E0892B29F00E94000081115E
:101880000E9400000E944A0281110E94E50B80E044
:1018900090E0892B29F00E94400281110C940000F5
:1018A0000895CF93DF93EC0189EC97E00E94340216
:1018B000892B29F089EC97E00E941202F5CFFE01F6
:1018C00001900020E9F73197AF014C1B5D0BBE0181
:1018D00089EC97E00E94BD016FEF89EC97E00E94D0
:1018E00080026FEF89EC97E00E9480026FEF89EC35
:1018F00097E0DF91CF910C948002CF93DF9385ED39
:101900008093BC0080918D0490918E04A0918F04EF
:10191000B09190040796A11DB11D23E0B695A7953F
:10192000979587952A95D1F72091BC0024FD03C097
:101930001092D50436C040918D0450918E04609170
:101940008F0470919004452B462B472B69F3009729
:10195000A105B10541F025E32A95F1F700000197B3
:10196000A109B109E1CF80918C0491E090938B049F
:101970008823B9F0C091B800D091BA008091BC0022
:101980008A7B8093BC0060E084E10E94ED0260E00D
:1019900085E10E94ED020E947F0BD093BA00C093B4
:1019A000B800DF91CF910895EF92FF920F931F93AC
:1019B000CF93DF937C018B01EA0182E08883698306
:1019C000AB01B701CE0102960E942E16C801029605
:1019D000A7010E0D1F1DB0E0A0E02B2F33274017ED
:1019E000510771F4C80FD91F2883A98323E02A83E4
:1019F0000396DF91CF911F910F91FF90EF90089583
:101A0000FA016191AF01BA2FAA27F901E627EE0F7B
:101A1000FF1FE45FFD4F0190F081E02DAE27BF274F
:101A2000DCCF0F931F93CF93DF93CDB7DEB72F9704
:101A30000FB6F894DEBF0FBECDBF26E02B8720E0A7
:101A400030E04AE754E40E9404140E94A1159C87E8
:101A50008D877E876F87AE014F5F5F4F65E070E0D7
:101A6000CE010B960E94D40C8C018091B30790910B
:101A7000B407DC01ED91FC910480F581E02D19950E
:101A800080179107D0F08091B3079091B407DC01E3
:101A9000ED91FC910280F381E02DA801BE016F5F02
:101AA0007F4F19952F960FB6F894DEBF0FBECDBFAE
:101AB000DF91CF911F910F9108958091B10790917F
:101AC000B20701969093B2078093B107EBCF1F92B4
:101AD0000F920FB60F9211240BB60F922F933F93D4
:101AE0004F935F936F937F938F939F93AF93BF9326
:101AF000EF93FF9389EC97E00E945E02FF91EF91D4
:101B0000BF91AF919F918F917F916F915F914F9115
:101B10003F912F910F900BBE0F900FBE0F901F9013
:101B200018951F920F920FB60F9211240BB60F92B9
:101B30002F933F934F935F936F937F938F939F93D5
:101B4000AF93BF93EF93FF9389EC97E00E94EA0174
:101B5000FF91EF91BF91AF919F918F917F916F9185
:101B60005F914F913F912F910F900BBE0F900FBE41
:101B70000F901F9018951F920F920FB60F9211247D
:101B80000BB60F922F933F934F935F936F937F9377
:101B90008F939F93AF93BF93EF93FF9386E698E065
:101BA0000E945E02FF91EF91BF91AF919F918F9143
:101BB0007F916F915F914F913F912F910F900BBE4D
:101BC0000F900FBE0F901F9018951F920F920FB697
:101BD0000F9211240BB60F922F933F934F935F9365
:101BE0006F937F938F939F93AF93BF93EF93FF93E5
:101BF00086E698E00E94EA01FF91EF91BF91AF91D4
:101C00009F918F917F916F915F914F913F912F9114
:101C10000F900BBE0F900FBE0F901F9018951F9244
:101C20000F920FB60F9211240BB60F922F933F9382
:101C30004F935F936F937F938F939F93AF93BF93D4
:101C4000EF93FF9383E099E00E945E02FF91EF9192
:101C5000BF91AF919F918F917F916F915F914F91C4
:101C60003F912F910F900BBE0F900FBE0F901F90C2
:101C700018951F920F920FB60F9211240BB60F9268
:101C80002F933F934F935F936F937F938F939F9384
:101C9000AF93BF93EF93FF9383E099E00E94EA0133
:101CA000FF91EF91BF91AF919F918F917F916F9134
:101CB0005F914F913F912F910F900BBE0F900FBEF0
:101CC0000F901F9018951F920F920FB60F9211242C
:101CD0002F933F938F939F93AF93BF93809104076C
:101CE00090910507A0910607B0910707309103076F
:101CF00023E0230F2D3758F50196A11DB11D209328
:101D000003078093040790930507A0930607B093F9
:101D100007078091080790910907A0910A07B091E1
:101D20000B070196A11DB11D809308079093090729
:101D3000A0930A07B0930B07BF91AF919F918F912A
:101D40003F912F910F900FBE0F901F90189526E88E
:101D5000230F0296A11DB11DD2CF1F920F920FB675
:101D60000F9211240F900FBE0F901F9018951F9285
:101D70000F920FB60F9211240BB60F922F933F9331
:101D80004F935F936F937F938F939F93AF93BF9383
:101D9000EF93FF938091B900887F803609F44DC09E
:101DA00008F040C0883209F4A9C028F5803109F450
:101DB0009DC0C8F4882309F4FBC0883009F496C09C
:101DC000FF91EF91BF91AF919F918F917F916F9113
:101DD0005F914F913F912F910F900BBE0F900FBECF
:101DE0000F901F901895883109F488C0803241F710
:101DF0008093D40414C0803409F49DC040F480332F
:101E0000B9F38833E9F68093D40485ECB0C080350B
:101E100009F485C0883509F496C0883489F60E9493
:101E20007D0CCECF883909F48CC038F5883729F07D
:101E300050F4883611F0803719F683E08093D5048A
:101E40001092D30457C0883809F47BC0803919F048
:101E5000803809F0B5CF8091D304803208F071C08A
:101E6000E091D30481E08E0F8093D3048091BB0076
:101E7000F0E0ED54FB4F80833DC0803B39F0E0F44F
:101E8000803A09F479C0883A09F09ACF84E08093C7
:101E9000D5041092B2041092B104E0919707F0912A
:101EA000980719958091B10481110FC081E080934A
:101EB000B1041092910409C0803C09F4A6CF883C7B
:101EC00009F4A3CF883B09F07BCFE091B20481E015
:101ED0008E0F8093B204F0E0EF56FB4F8081809329
:101EE000BB009091B2048091B10429C08091FA04A2
:101EF0008093BB0085EC8093BC0062CF9091F90485
:101F00008091F804981758F5E091F90481E08E0F5C
:101F10008093F904F0E0E852FB4F8081E9CFE09133
:101F2000F90481E08E0F8093F9048091BB00F0E00A
:101F3000E852FB4F80839091F9048091F804981740
:101F4000C8F285E8D8CFE091F90481E08E0F809344
:101F5000F9048091BB00F0E0E852FB4F8083809150
:101F6000D70481115CCF81E08093D60484EA80930A
:101F7000BC001092D50424CF85EC8093BC00109255
:101F8000D5048091D304803230F4E091D304F0E0A2
:101F9000ED54FB4F10826091D30470E0E0919507FF
:101FA000F091960783EB94E019951092D30408CF33
:101FB0001092D40434CFE9ECF7E01382128288EE59
:101FC00093E0A0E0B0E084839583A683B78320E10B
:101FD00034E03183208345E351E05587448744E36F
:101FE00051E05787468740E351E0518B408B41E3F6
:101FF00051E0538B428B42E351E0558B448B46E3D7
:1020000051E0578B468B118E128E138E148EE6E69E
:10201000F8E01382128284839583A683B783318389
:10202000208345ED50E05587448744ED50E05787C5
:10203000468740ED50E0518B408B41ED50E0538B93
:10204000428B42ED50E0558B448B46ED50E0578B70
:10205000468B118E128E138E148EE3E0F9E01382FC
:10206000128284839583A683B7833183208325ECF2
:1020700030E03587248724EC30E03787268720EC52
:1020800030E0318B208B21EC30E0338B228B22EC43
:1020900030E0358B248B26EC30E0378B268B118E8D
:1020A000128E138E148EE0EAF9E020E5208311826F
:1020B000E2EAF9E0158216821186138642E050E0CA
:1020C00060E070E0448755876687778713A215A67E
:1020D00014A622E234E033A722A717A6EBEEF9E01C
:1020E0001382128284839583A683B7838EE294E061
:1020F00091838083EBE1FAE0108282E081838CE3BC
:1021000094E093838283158214821186108613864D
:10211000128617821682EFE0FAE0108283E0818354
:1021200084E494E09383828315821482118610865E
:102130001386128617821682E3E0FAE0108286E0A8
:1021400081838BE494E093838283158214821186C9
:1021500010861386128617821682E7EFF9E0108246
:1021600081E0818381E594E09383828315821482E8
:102170001186108613861286178216820895CF93D1
:10218000DF93CDB7DEB72F970FB6F894DEBF0FBE43
:10219000CDBF789484B5826084BD84B5816084BDF0
:1021A00085B5826085BD85B5816085BD80916E00F5
:1021B000816080936E001092810080918100826026
:1021C0008093810080918100816080938100809163
:1021D00080008160809380008091B1008460809352
:1021E000B1008091B00081608093B0008091910037
:1021F0008260809391008091910081608093910032
:10220000809190008160809390008091A100826015
:102210008093A1008091A10081608093A1008091B2
:10222000A00081608093A000809121018260809352
:102230002101809121018160809321018091200101
:1022400081608093200180917A00846080937A007D
:1022500080917A00826080937A0080917A00816018
:1022600080937A0080917A00806880937A0010923F
:10227000C10040E855E260E070E089EC97E00E9420
:102280006A0188E694E00E94510C8AE594E00E947D
:10229000510C0E94FC0382E694E00E94510C0E94C3
:1022A000FC0389E793E09093000A8093FF0987EF8E
:1022B00099E09093020A8093010A40E052EC61E0B9
:1022C00070E083E099E00E946A0140E052EC61E036
:1022D00070E086E698E00E946A018CE097E09093B7
:1022E0008D0780938C0780E880938E0786E698E0C0
:1022F0009093B4078093B3077AE0E72EF12C10E0B7
:1023000000E087E30E948203080F191F63E070E07A
:1023100080E090E00E94BE0381E0E81AF10889F7AE
:10232000C8016AE070E00E94DC156D5F7F4F70931A
:102330000702609306026AE0E62EF12C10E000E04E
:1023400087E30E948203080F191F63E070E080E0BA
:1023500090E00E94BE0391E0E91AF10889F7C801F4
:102360006AE070E00E94DC156D5F7F4F709305029C
:102370006093040210929C0710929B0710929A0798
:10238000109299070E947F0B80EB91E09093980741
:10239000809397078CEB91E0909396078093950735
:1023A00080E18093BA008FEA91E090939E0780933A
:1023B0009D0745E0242E312C54ED852E53E0952EBB
:1023C000A12CB12CE090A507F090A60787E30E940E
:1023D0008203F701EE0FFF1FE154F84F91838083D2
:1023E0000091A3071091A4078BE30E948203F801D8
:1023F000EE0FFF1FEB54F84F918380830F5F1F4F49
:10240000053011050CF0BEC01093A4070093A3077C
:10241000AFEFEA1AFA0AB5E0EB16F1040CF0B7C018
:10242000F092A607E092A5078091A1079091A207DC
:1024300001969093A2078093A10780919F079091A6
:10244000A00701969093A00780939F0789EC97E0DF
:102450000E943402181619060CF49EC08091B5072C
:102460009091B6072091B7073091B807820F931F5C
:102470002091B9073091BA07820F931F2091BB07B3
:102480003091BC07820F931FC0900402D0900502C8
:102490000D2C000CEE08FF082091BD073091BE07FF
:1024A000820F931FB1010E94DC15072E000C880BD0
:1024B000990B6C197D098E099F090E94A51320E0D4
:1024C00030E040E252E40E9404142B013C016CE530
:1024D00073E080E090E06C197D098E099F090E94ED
:1024E000A5139B01AC01C301B2010E942F1520E08E
:1024F00030E0A9010E94C3146B017C0120E030E0B0
:1025000040E05FE30E94D71518160CF0BEC097E0BC
:102510009B8720E030E04AE754E4C701B6010E94FF
:1025200004140E94A1159C878D877E876F87AE015A
:102530004F5F5F4F65E070E0CE010B960E94D40CB8
:102540008C018091B3079091B407DC01ED91FC916F
:102550000480F581E02D19958017910708F48BC050
:102560008091B3079091B407DC01ED91FC9102805A
:10257000F381E02DA801BE016F5F7F4F19950E9486
:102580002C0C20CF1092A4071092A30741CF1092D9
:10259000A6071092A50748CF6AE070E080E090E0BF
:1025A0000E94BE0389EC97E00E941202182F853624
:1025B00009F04CCF89EC97E00E94340206970CF4A6
:1025C00045CF1093A70708EA17E089EC97E00E942F
:1025D0001202F80181938F018EEA97E08E179F0710
:1025E000A1F71092AE078091AB078F3F09F02ECF75
:1025F0008091AC078F3F09F029CF8091AD078F3FC5
:1026000009F024CF9091A9072091A807E8E0F2E013
:10261000A191B191109709F419CF8C912813F8CF9B
:1026200011968C9111979813F3CF4091AA0750E01F
:1026300070E060E0413051056105710561F4149668
:10264000ED91FC911597309709F400CF16968D9176
:102650009C911995FBCE452B462B472B09F0F6CEC6
:102660001896ED91FC911997309709F4EFCE1A96D0
:102670008D919C91EECF8091B1079091B207019618
:102680009093B2078093B1077ACFC0900602D090A2
:1026900007020D2C000CEE08FF088091BF079091F7
:1026A000C0072091C1073091C207820F931F20916C
:1026B000C3073091C407820F931F2091C507309143
:1026C000C607820F931F2091C7073091C807820F5A
:1026D000931FB1010E94DC15072E000C880B990B8B
:1026E0006C197D098E099F090E94A51320E030E036
:1026F00040E552E40E9404142B013C01C501B401E1
:102700006C197D098E099F090E94A5139B01AC01DC
:10271000C301B2010E942F1520E030E0A9010E9400
:10272000C3146B017C0120E030E0A9010E94D715A1
:1027300018162CF4C701B6010E94110D20CF60E0DD
:1027400070E0CB01F9CFE89409C097FB3EF4909577
:102750008095709561957F4F8F4F9F4F9923A9F07A
:10276000F92F96E9BB279395F69587957795679509
:10277000B795F111F8CFFAF4BB0F11F460FF1BC04D
:102780006F5F7F4F8F4F9F4F16C0882311F096E9E0
:1027900011C0772321F09EE8872F762F05C066238E
:1027A00071F096E8862F70E060E02AF09A95660F47
:1027B000771F881FDAF7880F9695879597F9089500
:1027C000990F0008550FAA0BE0E8FEEF1616170642
:1027D000E807F907C0F012161306E407F50798F0AA
:1027E000621B730B840B950B39F40A2661F0232BC3
:1027F000242B252B21F408950A2609F4A140A6953F
:102800008FEF811D811D08950E9417140C94881468
:102810000E947A1438F00E94811420F0952311F060
:102820000C9471140C94771411240C94BC140E9411
:10283000991470F3959FC1F3950F50E0551F629F57
:10284000F001729FBB27F00DB11D639FAA27F00D09
:10285000B11DAA1F649F6627B00DA11D661F829F30
:102860002227B00DA11D621F739FB00DA11D621F15
:10287000839FA00D611D221F749F3327A00D611D32
:10288000231F849F600D211D822F762F6A2F112414
:102890009F5750409AF0F1F088234AF0EE0FFF1F47
:1028A000BB1F661F771F881F91505040A9F79E3F9E
:1028B000510580F00C9471140C94BC145F3FE4F348
:1028C000983ED4F3869577956795B795F795E795F4
:1028D0009F5FC1F7FE2B880F911D9695879597F9FD
:1028E000089597F99F6780E870E060E008959FEF92
:1028F00080EC089500240A94161617061806090697
:10290000089500240A941216130614060506089565
:10291000092E0394000C11F4882352F0BB0F40F4ED
:10292000BF2B11F460FF04C06F5F7F4F8F4F9F4F2D
:10293000089557FD9058440F551F59F05F3F71F0AF
:102940004795880F97FB991F61F09F3F79F0879516
:102950000895121613061406551FF2CF4695F1DF9F
:1029600008C0161617061806991FF1CF869571052F
:10297000610508940895E894BB2766277727CB0163
:1029800097F908955058BB27AA270E94DA140C948F
:1029900088140E947A1438F00E94811420F039F4CF
:1029A0009F3F19F426F40C9477140EF4E095E7FB9E
:1029B0000C947114E92F0E94991458F3BA17620706
:1029C00073078407950720F079F4A6F50C94BB14DF
:1029D0000EF4E0950B2EBA2FA02D0B01B90190013A
:1029E0000C01CA01A0011124FF27591B99F0593F7E
:1029F00050F4503E68F11A16F040A22F232F342FC6
:102A00004427585FF3CF469537952795A795F04013
:102A10005395C9F77EF41F16BA0B620B730B840B28
:102A2000BAF09150A1F0FF0FBB1F661F771F881FE0
:102A3000C2F70EC0BA0F621F731F841F48F4879538
:102A400077956795B795F7959E3F08F0B0CF93952A
:102A5000880F08F09927EE0F9795879508950E94A3
:102A600043150C9488140E94811458F00E947A1423
:102A700040F029F45F3F29F00C94711451110C942B
:102A8000BC140C9477140E94991468F39923B1F341
:102A9000552391F3951B550BBB27AA276217730784
:102AA000840738F09F5F5F4F220F331F441FAA1F18
:102AB000A9F335D00E2E3AF0E0E832D091505040D4
:102AC000E695001CCAF72BD0FE2F29D0660F771F82
:102AD000881FBB1F261737074807AB07B0E809F068
:102AE000BB0B802DBF01FF2793585F4F3AF09E3FED
:102AF000510578F00C9471140C94BC145F3FE4F30E
:102B0000983ED4F3869577956795B795F7959F5F2F
:102B1000C9F7880F911D9695879597F90895E1E07B
:102B2000660F771F881FBB1F621773078407BA07DA
:102B300020F0621B730B840BBA0BEE1F88F7E09535
:102B400008950E94A8156894B1110C94BC140895BE
:102B50000E94A11488F09F5798F0B92F9927B75178
:102B6000B0F0E1F0660F771F881F991F1AF0BA9531
:102B7000C9F714C0B13091F00E94BB14B1E00895C0
:102B80000C94BB14672F782F8827B85F39F0B93FB2
:102B9000CCF3869577956795B395D9F73EF49095E4
:102BA0008095709561957F4F8F4F9F4F08950E943C
:102BB000E01308F48FEF089597FB072E16F40094A6
:102BC00007D077FD09D00E941A1607FC05D03EF405
:102BD000909581959F4F0895709561957F4F0895C9
:102BE000A1E21A2EAA1BBB1BFD010DC0AA1FBB1F11
:102BF000EE1FFF1FA217B307E407F50720F0A21B83
:102C0000B30BE40BF50B661F771F881F991F1A94EF
:102C100069F760957095809590959B01AC01BD0119
:102C2000CF010895EE0FFF1F881F8BBF0790F6910D
:102C3000E02D1994AA1BBB1B51E107C0AA1FBB1FA3
:102C4000A617B70710F0A61BB70B881F991F5A9538
:102C5000A9F780959095BC01CD010895FB01DC0199
:102C600002C001900D9241505040D8F70895F89459
:022C7000FFCF94
:102C7200FFFFFFFFAA00D200F709000000002110A9
:102C8200422063308440A550C660E77008812991D4
:102C92004AA16BB18CC1ADD1CEE1EFF1311210027C
:102CA20073325222B5529442F772D6623993188324
:102CB2007BB35AA3BDD39CC3FFF3DEE36224433448
:102CC20020040114E664C774A44485546AA54BB574
:102CD20028850995EEE5CFF5ACC58DD5533672261C
:102CE20011163006D776F6669556B4465BB77AA7C4
:102CF20019973887DFF7FEE79DD7BCC7C448E55868
:102D02008668A7784008611802282338CCC9EDD913
:102D12008EE9AFF9488969990AA92BB9F55AD44ABB
:102D2200B77A966A711A500A333A122AFDDBDCCB63
:102D3200BFFB9EEB799B588B3BBB1AABA66C877C87
:102D4200E44CC55C222C033C600C411CAEED8FFDB3
:102D5200ECCDCDDD2AAD0BBD688D499D977EB66E5B
:102D6200D55EF44E133E322E511E700E9FFFBEEF03
:102D7200DDDFFCCF1BBF3AAF599F788F8891A981C5
:102D8200CAB1EBA10CD12DC14EF16FE18010A100AF
:102D9200C230E3200450254046706760B98398939F
:102DA200FBA3DAB33DC31CD37FE35EF3B1029012FF
:102DB200F322D2323542145277625672EAB5CBA56B
:102DC200A89589856EF54FE52CD50DC5E234C3244F
:102DD200A01481046674476424540544DBA7FAB73F
:102DE2009987B8975FE77EF71DC73CD7D326F2369F
:102DF2009106B01657667676154634564CD96DC98B
:102E02000EF92FE9C899E9898AB9ABA944586548EE
:102E120006782768C018E1088238A3287DCB5CDBDE
:102E22003FEB1EFBF98BD89BBBAB9ABB754A545A3E
:102E3200376A167AF10AD01AB32A923A2EFD0FEDAA
:102E42006CDD4DCDAABD8BADE89DC98D267C076C8E
:102E5200645C454CA23C832CE01CC10C1FEF3EFF7E
:102E62005DCF7CDF9BAFBABFD98FF89F176E367EDE
:102E7200554E745E932EB23ED10EF01E000000003D
:102E82008002BD010302CD023402120226020000BA
:102E92000000E209BD018809570B00000000D10BB8
:102EA200C60BE20BAE01BF0BAC0B9D0B6E5F7370DA
:102EB20065656400785F766F6C7400785F616D7031
:102EC2000062745F6C6967687400626B636D643D75
:0A2ED20031007061676520300000D8
:00000001FF
