:100000000C94EC0A0C94140B0C94140B0C94140B1D
:100010000C94140B0C94140B0C94140B0C94140BE4
:100020000C94140B0C94140B0C94140B0C94140BD4
:100030000C94140B0C948B0E0C94140B0C94140B4A
:100040000C94410E0C94140B0C9448130C94221332
:100050000C94140B0C94140B0C94140B0C94140BA4
:100060000C94B00E0C94140BFFE0FFD1AFFF32FFE5
:10007000D0FFFEFFE0FFD1AEFFD0FFFEFFE0FFD1DB
:100080001002FFFEFFD0FFE0FFC1FFD1AED580A878
:100090003FD300408D142002A1C8DA1281CFD9F1DC
:1000A000DB402EA4A6AFFFD0FFFE001A1AFFFB0E06
:1000B000033B06FA20FFFC15FB0EFC0000000600C7
:1000C00000020E0E080300C0C0C0C0C0C0C0C0C047
:1000D000C0C00000C0060606090108CCCC4C4C4448
:1000E000440C0E1C0E01000660044004400CC07F4E
:1000F000F0088019801900FFE0130033002200226D
:100100000066000912240B01FE080008003E006B87
:1001100000C980C800C800F8007E000F00098009EF
:1001200080C980C9806B003E0008000800100E1CCA
:1001300012010078106C10C620C660C640CC807CCE
:1001400080013C03660263066304630866083C0C96
:100150000E1C0E01001E0033006100630033003CE2
:10016000003C606C60C660C360C1C0C0C063E03E5C
:10017000300106060703088080808080800311110B
:100180000702FD20606040C0C0C0C0C0C0C0C0C089
:10019000406060200311110702FD8080C0C0404014
:1001A00060606060606040C0C080800807070C022B
:1001B00007242418FF183C660B0C181304000600D3
:1001C00006000600060006000600FFE00600060026
:1001D0000600060006000305050501FE6060C0C0BC
:1001E00080050101070104F8020202050200C0C0F7
:1001F000060F0F0801FF0C080818101030302020DF
:10020000604040C080090E1C0B01003C00670043A9
:1002100000C100C180C180C180C180C180C180C1D6
:1002200000430077003C00050E0E0B02003878F802
:100230009818181818181818181818080E0E0B0106
:10024000003C66C3C30303060C1C383060C0FF09C2
:100250000E1C0B01003E0077006180C1800180030D
:10026000001C00070003000180C180C18063003EC4
:1002700000090E1C0B0100070007000F001B0013F4
:1002800000330063006300C300FF80FF80030003AE
:10029000000300090E1C0B0100FF00C000C000C0DD
:1002A00000DE00F300C100C18001800180C180C375
:1002B0000066003C00090E1C0B01001E006300419B
:1002C00080C000C000DE00FF00C300C180C180C14B
:1002D00080410067001E00080E0E0B0100FF0303A3
:1002E0000206060C0C0C1818183030090E1C0B01F5
:1002F000003E006300C180C180C18063003E006396
:1003000000C180C180C180C18063003E00090E1C15
:100310000B01003E006300C100C180C180C1806349
:10032000807D8001800180C100430066003C0002A6
:100330000A0A050200C0C0000000000000C0C0039F
:100340000C0C0501FE60600000000000606040C011
:10035000C00C0A14130401003000E007001C00E088
:1003600000C00038000E0001C000300B050A130465
:1003700004FFE0000000000000FFE00C0A1413047A
:1003800001800070001C0003800060007001C00E3E
:10039000007000C000080E0E0900003C7EC303037D
:1003A00002060C1818180000181112361301FC0769
:1003B000F0001C3C0030060060030063F300C671CF
:1003C00000C43180CC3180CC3180CC3180CC3180C4
:1003D000C43300465F00639E006000003000001ED2
:1003E000100007F0000E0E1C0E000003000780072F
:1003F0008004C00CC00CC0186018601FF03FF030C3
:100400001860186018C00C0A0E1C0D0200FF00C115
:1004100080C0C0C0C0C0C0C180FE00C380C0C0C01A
:10042000C0C0C0C0C0C380FF000B0E1C0D01001F68
:100430008039C060604060C000C000C000C000C023
:1004400000C0004060606031C01F000B0E1C0E0237
:1004500000FE00C380C0C0C0C0C060C060C060C03B
:1004600060C060C060C0C0C0C0C380FE00090E1C78
:100470000C0200FF80C000C000C000C000C000FF30
:1004800080C000C000C000C000C000C000FF8008E5
:100490000E0E0B0200FFC0C0C0C0C0FFC0C0C0C075
:1004A000C0C0C00C0E1C0E01000F8038E060304050
:1004B00000C000C000C1F0C030C030C0306030604B
:1004C0003038700FE00A0E1C0E0200C0C0C0C0C061
:1004D000C0C0C0C0C0C0C0FFC0C0C0C0C0C0C0C0DD
:1004E000C0C0C0C0C0C0C0020E0E050200C0C0C067
:1004F000C0C0C0C0C0C0C0C0C0C0C0080E0E0B018C
:100500000003030303030303030303C3C3663C0A9B
:100510000E1C0D0200C180C300C600CC00D800F044
:1005200000F000D800DC00CE00C700C300C180C0CE
:10053000C0080E0E0B0200C0C0C0C0C0C0C0C0C00A
:10054000C0C0C0FFFF0E0E1C120200E01CE01CF039
:100550003CF03CD86CD86CD86CCCCCCCCCC48CC720
:100560008CC78CC30CC30C0B0E1C0E0200E060E0A9
:1005700060F060F860D860DC60CC60C660C660C3C4
:1005800060C360C1E0C1E0C0E00C0E1C0E01001FA2
:100590008039C060604020C030C030C030C030C042
:1005A00030C0304020606039C00F00090E1C0C02C2
:1005B00000FE00C300C180C180C180C180C300FEB5
:1005C00000C000C000C000C000C000C0000E0E1C73
:1005D0000F01001F8039C060604020C030C030C0B3
:1005E00030C030C030C0304020606039C00FFC09DE
:1005F0000E1C0C0200FE00C300C180C180C180C37C
:1006000000FE00C300C300C100C180C180C180C121
:10061000800A0E1C0C01003F006180C0C0C000C0F9
:1006200000F0007F001F8001C000C0C0C0C0C061DA
:10063000803E000B0E1C0D0100FFE00C000C000CB6
:10064000000C000C000C000C000C000C000C000C4A
:10065000000C000C000B0E1C0F0200C060C060C03C
:1006600060C060C060C060C060C060C060C060C08A
:100670006060C071C01F000C0E1C0C0000E03060F8
:100680007060603060306030C018C018C019800DD4
:10069000800D000F0007000600120E2A120000C095
:1006A000E0C060E0C061E18061A18021B1803131B2
:1006B000803333003313001B1B001A1A001E1E0068
:1006C0000E0E000C0E000C0C000C0E1C0D0100E0B8
:1006D0006060C031C039801B000F000E000F001B8E
:1006E00000198031C060C0E0E0C0700C0E1C0C002E
:1006F00000E070606070C030C0198019800F000E7B
:10070000000600060006000600060006000A0E1C91
:100710000C01007FC000C001800380030006000EB2
:10072000001C001800380070006000E000FFC004EA
:1007300012120802FCF0C0C0C0C0C0C0C0C0C0C01F
:10074000C0C0C0C0C0C0F0050F0F0801FF80C0408E
:1007500040406020203010101018080804121208C1
:1007600002FCF0303030303030303030303030302B
:10077000303030F0090C1813050008000800140090
:10078000140022002200220041004100C18080802C
:1007900080800A01020A00FEFFC003040404000C6A
:1007A00080C06020080A0A0A01003E67C3033F6355
:1007B000C3C3E77B090E1C0B0100C000C000C000D2
:1007C000C000DE00E300C180C180C180C180C18063
:1007D000C100E300DE00080A0A0A01003E67C3C048
:1007E000C0C0C0C3673C090E1C0B01000180018022
:1007F000018001803D806780C380C180C180C1804D
:10080000C180418063801D80090A140B01003E00F5
:100810006300C100C180FF80C000C00043006700CA
:100820003E00060E0E0801001C303030FC30303027
:10083000303030303030090E1C0B01FC3D806380BD
:10084000C180C180C180C180C180C18063803D8082
:100850000180418073003E00080E0E0A0100C0C0F6
:10086000C0C0DEE7C3C3C3C3C3C3C3C3020E0E0409
:100870000100C0000000C0C0C0C0C0C0C0C0C0C037
:100880000312120501FC600000006060606060609F
:1008900060606060606060C0070E0E090100C0C04B
:1008A000C0C0C6CCD8F0F0F8D8CCC6C6020E0E0434
:1008B0000100C0C0C0C0C0C0C0C0C0C0C0C0C0C0B7
:1008C0000E0A14110100DE78E79CC30CC30CC30CA4
:1008D000C30CC30CC30CC30CC30C080A0A0A0100E6
:1008E000DEE7C3C3C3C3C3C3C3C3090A140B0100F8
:1008F0003E006300C180C180C180C180C180C180D1
:1009000063003E00090E1C0B01FCDE00E300C18009
:10091000C180C180C180C180C180E300DE00C00011
:10092000C000C000C000090E1C0B01FC3D806380AC
:10093000C180C180C180C180C180C18063803D8091
:100940000180018001800180050A0A070100F8E0AA
:10095000C0C0C0C0C0C0C0C0080A0A0A01007CE70D
:10096000C3C07C1E03C3E67C060D0D0801001030D9
:1009700030FC30303030303030301C080A0A0A0188
:1009800000C3C3C3C3C3C3C3C3E77B0A0A140A00BB
:1009900000C0C0608061803180330033001A001EC7
:1009A000000E000C000F0A140F0000C3866386635C
:1009B000C462CC264C364834781C781C3018300978
:1009C0000A140A0100C300630076003C0018001CF2
:1009D000003C006600C300C3800A0E1C0A00FCC075
:1009E000C0618061803180330013001A001E000E48
:1009F000000C000C000C0018001800070A0A09017E
:100A000000FE060C1C18306060C0FE0613130A02BC
:100A1000FB0C1810303030303060E0E030303030D7
:100A20001010181C0115150703FB80808080808042
:100A30008080808080808080808080808080800630
:100A400013130A02FBE070303030303010180C1CE9
:100A500010303030303030E00A02040A000478C030
:100A6000CF80FFFFFFFFFFFFFFFFFFFFFFFFFFFF45
:100A7000FFFFFFFFFFFFFFFFFFFFFFFFFFFFFFFF86
:100A8000FFFFFF000000060000020E0E0703FCC07F
:100A9000C00000C0C0C0C0C0C0C0C0C0C0080E0EF2
:100AA0000A01FE02043C66CBC8C8D0D0D3663C2005
:100AB000400A0E1C0B01001F00318060C060006006
:100AC00000FC00600060006000600060006000608A
:100AD00000FF800A0A140C010380405E803300414D
:100AE0008040804080408021005E8080400A0E1C53
:100AF0000C0100C0C0608061803100F3C01B001E8B
:100B000000FFC00C000C000C000C000C000C0001DD
:100B100012120703FC80808080808080800000802B
:100B2000808080808080800711110901FD3C64C0B5
:100B3000C060387CC6C6CE7C3C0E06068CF806012A
:100B40000106000DCC0E0E1C1001000FC01CE0278A
:100B5000904CC8D86C98049804980498648CCC473E
:100B6000C8201010200FC0070A0A08010478CC041E
:100B70007CC4847C0000FE0708080B02012664CCBC
:100B8000D898CC64260A050A0C0103FFC000400077
:100B90004000400040FF0E0E1C1001000FC01CE082
:100BA0002FD04C68CC6C8C648F848C448C64CC6C5F
:100BB0004C6820101CE00FC006010106000DFC046B
:100BC000050506010960F09090600B0C18130400F5
:100BD0000600060006000600FFE00600060006000C
:100BE000000000000000FFE006080807010678DCAE
:100BF0000C0C1830C0FC06080807010678CC0C3035
:100C0000188CCC7804040404010C306040C0FF0947
:100C100012240B01FC3F807900F900F900F900F97A
:100C200000790019000900090009000900090009FC
:100C3000000900090009000900020202050205C0BE
:100C4000C00605050500FB40780C0CF804070706F4
:100C5000010770F03030303030060A0A080104789D
:100C60004884848484CC7800FC0708080B0201982F
:100C7000CC64666664CC980D0E1C0F01007040F0C9
:100C8000C03080318031003300323036700C700853
:100C9000B019B011F8303020300D0E1C0F0100706B
:100CA00040F0C03080318031003200327034D80CD6
:100CB0001808181830106030C020F80E0E1C1001F3
:100CC000007830CC200C6030C00C808D8079180307
:100CD00038027804580C9808FC18181018080E0EE2
:100CE0000A01FC0C0C000C0C0C183060C0C0C17F59
:100CF0003E0E14280E00000C000600020003000047
:100D000000000003000780078004C00CC00CC0185E
:100D10006018601FF03FF0301860186018C00C0EAB
:100D200014280E000000C0008001800100000000B7
:100D30000003000780078004C00CC00CC0186018B6
:100D4000601FF03FF0301860186018C00C0E1428B7
:100D50000E000003000380068004C00000000003B2
:100D6000000780078004C00CC00CC0186018601F0A
:100D7000F03FF0301860186018C00C0E12240E00FE
:100D80000007C00000000000000300078007800487
:100D9000C00CC00CC0186018601FF03FF030186025
:100DA000186018C00C0D12240F01000CC0000000C8
:100DB000000000070007000D800D800CC018C0184F
:100DC000C030603FE03FF060306018C018C0180DC0
:100DD000152A0E010006000D00090009000600009A
:100DE000000000060007000F000D00198019801098
:100DF000C030C03FE07FE06020C030C030C018117C
:100E00000E2A13010001FF8003C00002C00006C0CB
:100E1000000EC0000CC0001CFF8018C00038C000CD
:100E20003FC00060C00060C000C0C000C0FF800BB9
:100E300012240D01FC1F8039C060604060C000C0FA
:100E400000C000C000C000C0004060606031C01F32
:100E5000000400070001800F800914280C020060C4
:100E60000030001800080000000000FF80C000C033
:100E700000C000C000C000FF80C000C000C000C0B3
:100E800000C000C000FF800914280C020006000406
:100E9000000C00180000000000FF80C000C000C06F
:100EA00000C000C000FF80C000C000C000C000C083
:100EB00000C000FF800914280C020018001C003438
:100EC00000260000000000FF80C000C000C000C07D
:100ED00000C000FF80C000C000C000C000C000C053
:100EE00000FF800912240C020066000000000000D0
:100EF00000FF80C000C000C000C000C000FF80C074
:100F000000C000C000C000C000C000FF8004141476
:100F1000050000C06020300000303030303030300C
:100F2000303030303030300414140502003060406E
:100F3000800000C0C0C0C0C0C0C0C0C0C0C0C0C071
:100F4000C0051414050000307058C800003030305F
:100F50003030303030303030303030061212060051
:100F600000CC0000003030303030303030303030A5
:100F70003030300D0E1C0E00007F8061E06070602C
:100F80003060106018FE18601860186010603060E3
:100F90006061E07F800B12240E02001F0000000041
:100FA000000000E060E060F060F860D860DC60CCD9
:100FB00060C660C660C360C360C1E0C1E0C0E00C51
:100FC00014280E010018000C0006000200000000AA
:100FD000001F8039C060604020C030C030C030C0C9
:100FE00030C030C0304020606039C00F000C142881
:100FF0000E01000180030006000400000000001F35
:101000008039C060604020C030C030C030C030C0C7
:1010100030C0304020606039C00F000C14280E0131
:101020000006000F0009001080000000001F80393A
:10103000C060604020C030C030C030C030C030C060
:10104000304020606039C00F000C13260E01000CE8
:10105000801F000000000000001F8039C060604059
:1010600020C030C030C030C030C030C03060607090
:10107000E03FC00F000C12240E01000D80000000A4
:101080000000001F8039C060604020C030C030C008
:1010900030C030C030C0304020606039C00F000B1D
:1010A0000A14130401C06060C031801B000E000EE2
:1010B000001B00318060C040600C10200E01FF005A
:1010C000301FE038E060E041B0C1B0C330C630C688
:1010D00030CC30DC305820706039C07F00C0000B4D
:1010E00014280F0200180008000400060000000089
:1010F00000C060C060C060C060C060C060C060C050
:1011000060C060C060C06060C07FC01F000B14285A
:101110000F02000300020004000C0000000000C0E9
:1011200060C060C060C060C060C060C060C060C0BF
:1011300060C060C06060C07FC01F000B14280F0239
:10114000000E000E001B00110000000000C060C077
:1011500060C060C060C060C060C060C060C060C08F
:1011600060C06060C07FC01F000B12240F02001916
:1011700080000000000000C060C060C060C060C0AF
:1011800060C060C060C060C060C060C06060C071AE
:10119000C01F000C14280C00000180030002000492
:1011A0000000000000E070606070C030C01980195D
:1011B000800F000E0006000600060006000600066E
:1011C00000090E1C0C0200C000C000C000FE00C3DD
:1011D00000C180C180C180C380FE00C000C000C0CB
:1011E00000C0000A0E1C0B01003E006700C300C3D4
:1011F00000C600CC00CC00CE00C780C180C0C0D8E3
:10120000C0DC80C780080F0F0A01003018080000FA
:101210003E67C3033F63C3C3E77B0810100A0100A6
:10122000060C181000003E67C3033F63C3C3E77B8F
:101230000810100A0100181C242600003E67C30392
:101240003F63C3C3E77B080E0E0A01003E000000A7
:101250003E67C3033F73C3C3E77B080E0E0A01005A
:10126000660000003E67C3033F63C3C3E77B08100B
:10127000100A01001C22221C00003E63C1013F71C4
:10128000C1C1E73D100A141201003E7CE3C6C183D0
:1012900001833FFFE180C180C383E6EE7C3C080E02
:1012A0000E0A01FC3E67C3C0C0C0C0C3663C101C30
:1012B000063E0910200B0100300030001800080025
:1012C000000000003E006300C100C180FF80C0003C
:1012D000C000430067003E000910200B010006001B
:1012E0000C0008001800000000003E006300C10070
:1012F000C180FF80C000C000430067003E000910AD
:10130000200B010018001C00340022000000000027
:101310003E006300C100C180FF80C000C0004300E8
:1013200067003E00090E1C0B010066000000000073
:1013300000003E006300C100C180FF80C000C0000B
:10134000430067003E00030F0F04000080C06020D0
:101350000060606060606060606060030F0F0401A7
:10136000006040C08000C0C0C0C0C0C0C0C0C0C01D
:10137000060F0F04FF0030784884003030303030E2
:101380003030303030060E0E050000CC000000304A
:10139000303030303030303030090E1C0B010066F8
:1013A0000018006C0006003F006300C180C180C1CE
:1013B00080C180C180C18063003E00080E0E0A011A
:1013C00000347C0000DEE7C3C3C3C3C3C3C3C30987
:1013D00010200B0100300010001800080000000071
:1013E000003E006300C180C180C180C180C180C156
:1013F0008063003E000910200B0100060004000C71
:10140000000800000000003E006300C180C180C1F0
:1014100080C180C180C18063003E000910200B01A3
:101420000008001C0014002200000000003E0063C1
:1014300000C180C180C180C180C180C18063003E85
:1014400000090E1C0B01003E000000000000003EE1
:10145000006300C180C180C180C180C180C1806340
:10146000003E00090E1C0B010033000000000000CC
:10147000003E007300C180C080C080C080C080C1B9
:101480008073003E000B08101304020600060000E3
:10149000000000FFE0000006000600090C180B0128
:1014A0000001803F006300C780C580C980D980D11A
:1014B00080E1806300FE0080000810100A010060D7
:1014C0003010080000C3C3C3C3C3C3C3C3E77B0852
:1014D00010100A0100040C08100000C3C3C3C3C3EA
:1014E000C3C3C3E77B0810100A0100181834240096
:1014F00000C3C3C3C3C3C3C3C3E77B080E0E0A0143
:101500000066000000C3C3C3C3C3C3C3C3E77B0AF1
:1015100013260A00FC03000600040008000000C0B7
:10152000C0618061803180330013001A001E000EFC
:10153000000C000C000C00780078000912240B014C
:10154000FCC000C000C000C000DE00E300C180C1DC
:1015500080C180C180C180C180E300DE00C000C0C6
:1015600000C000C0000A12240A00FC330000000082
:10157000000000C0C0618061806100330033001E44
:10158000001E001E000C000C0018001800180000BF
:10159000000000250028002B0004040404040404B7
:1015A0000402020202020203030303030301020412
:1015B00008102040800102040810200102040810D5
:1015C00020000000080002010000030407000000E2
:1015D0000000000000008F1811241FBECFEFD8E0DC
:1015E000DEBFCDBF11E0A0E0B1E0EEE4F7E302C062
:1015F00005900D92A635B107D9F723E0A6E5B1E035
:1016000001C01D92A937B207E1F71AE0CCEEDAE08B
:1016100004C02197FE010E949A1BCB3ED107C9F757
:101620000E94FE150C94A51B0C940000FC01918DEA
:10163000228D892F90E0805C9F4F821B91098F73D0
:101640009927089580E090E0892B29F00E94AF123D
:1016500081110C940000089585ED8093BC00809169
:10166000BC0084FDFCCF1092D001089540917A0116
:10167000262F30E0240F311D21323105DCF420917A
:10168000D0012430C9F4FC0180E090E0861758F4C2
:1016900030917A012191DC01A85ABE4FA30FB11DF0
:1016A0002C930196F3CF80917A01680F60937A01B1
:1016B00080E0089581E0089582E008950895E09122
:1016C000D2018091D101E81730F4F0E0ED52FE4FE5
:1016D000808190E008958FEF9FEF08959091D2015F
:1016E0008091D101981750F4E92FF0E0ED52FE4FB0
:1016F000208130E09F5F9093D20102C02FEF3FEF37
:10170000C90108958091D10190E02091D201821BFE
:1017100091090895CF93DF9300D0CDB7DEB7CB0109
:10172000642F49835A830E94360B4981842F5A8142
:10173000952F0F900F90DF91CF910895CF93DF9366
:101740001F92CDB7DEB7698361E0CE0101960E949A
:10175000360B81E090E00F90DF91CF9108950895CE
:10176000DC011696ED91FC91179712968C91481B0F
:10177000477081E090E001C0880F4A95EAF7E60FD4
:10178000F11D3081222311F0832B02C08095832329
:1017900080830895FB014181DC0112962C91129700
:1017A000421768F013962C911397241740F060812C
:1017B00015962C91621718F424810C94B00B08959F
:1017C000FC0180819281980F92832181921760F4AD
:1017D00094819F5F94839381890F821710F08FEF1C
:1017E000820F838381E0089580E00895FC011282D6
:1017F0008081815083831482089580E008950B9640
:10180000FC01849108950A96FC0184910895FC01DD
:10181000849108950E94070C882321F0823011F0F2
:1018200083E0089586E00895FC01E60FF11D8491A0
:1018300090E0982F88273196E4918E0F911D08959E
:1018400068E00C94140C66E00C94140C2EE93FE054
:10185000009729F0F9013197F1F70197F9CF089531
:101860001092570110925601089580931102109220
:10187000B90084FF02C08CE001C088E48093B80006
:101880000C94300CDB011496ED91FC91159720E03F
:1018900030E065E00994DB011496ED91FC91159719
:1018A00020E030E062E00994DB011496ED91FC91B8
:1018B000159720E030E063E00994CF92DF92EF9239
:1018C000FF920F931F93CF93DF938C017B016A01EB
:1018D00080E0F601C49181110BC0CF3F09F44CC0E8
:1018E0004C2FB701C8010E94420C811143C049C06E
:1018F000CF3F11F44FEFF5CFCE3F09F444C0C03FC6
:10190000C8F5C03E38F04C2F4F70B701C8010E9497
:101910004B0C30C0C03D38F04C2F4F70B701C801A0
:101920000E94540C27C0C03CF8F0D7011496ED91EA
:10193000FC91159720E030E040E064E0C801099593
:10194000C295C07FCE5FD0E0CE010E94260CD701A9
:101950001496ED91FC91159720E030E041E064E0B1
:10196000C8010995CE0104C0C7FD04C08C2F90E0CA
:101970000E94260C80E001C081E0BFEFCB1ADB0A99
:10198000A8CF80E001C081E0DF91CF911F910F913E
:10199000FF90EF90DF90CF9008958F929F92AF923B
:1019A000BF92CF92DF92FF920F931F93CF93DF935B
:1019B00000D0CDB7DEB76C018B01F42E490120E1D8
:1019C000421709F467C0241700F13AE0431729F1E0
:1019D0008FE0481369C041E0C6010E94540C40E00A
:1019E000B801C6010E944B0C41E8B801C6010E9433
:1019F000420CF4014081B801C6010E94420C40E053
:101A0000B801C6010E94540C08C1A1E14A1709F4AB
:101A100044C0B5E14B1791F047C0DB011496ED913E
:101A2000FC91159720E030E042E061E0099544E840
:101A300050E0B801C6010E945D0C36C0FB01A280D7
:101A4000B3804CE750E00E945D0CD50114964C9198
:101A5000406BB801C6010E94420C41E0B801C601CA
:101A60000E944B0CF50126813781D8011496ED9127
:101A7000FC911597D50115964C9166E0C601099524
:101A8000811102C080E0CAC040E0B801C6010E94D6
:101A9000540C0AC043E750E002C048E650E0B801E9
:101AA000C6010E945D0CB9C0D80112960D911C911F
:101AB0001397B2E3FB1609F474C0BF15B8F0E5E163
:101AC000FE1609F47BC0F7E1FF1609F48DC024E18E
:101AD000F212A3C0D8011696ED91FC9117971596B6
:101AE0008C919F01280F311DC90160C036E4F316A7
:101AF00009F48AC087E4F81609F48AC0ABE3FA1245
:101B00008CC0F40181819381913029F0933031F4BC
:101B1000482F885004C048E0480F01C0482F21E0FA
:101B2000D80113963C91381708F420E031E0F80111
:101B30005281451708F430E051E0481708F050E0B2
:101B4000822F852B382319F4252309F466C0D4018C
:101B50001296FC90913051F030F0923049F0933071
:101B600051F42FEF09C020E031E007C021E004C0AC
:101B700020E03FEF02C020E030E0F7FE08C0B401F3
:101B8000C8012A8339830E94CA0B39812A81F40152
:101B90008081830F80838181820F8183FF0C69F7AD
:101BA0003CC0B401C8010E94CA0B37C01192E817AB
:101BB000F907E1F7C8010E94F60B2FC0C8010E9487
:101BC000E00B882309F45ECFD8011696ED91FC91C5
:101BD000179715968C919F01280F311DC9011192FD
:101BE000E817F907E1F719C0D4011C92F8018281C6
:101BF00011968C9311978581815012968C93129730
:101C0000838113968C9309C0D80115968C9103C0DB
:101C1000D80111968C91F401808381E00F900F9090
:101C2000DF91CF911F910F91FF90DF90CF90BF90E8
:101C3000AF909F908F900895089580E090E0089570
:101C4000FC01848DDF01A80FB11DA35ABF4F2C9159
:101C5000848D90E001968F739927848FA689B78928
:101C60002C93A089B1898C9180648C93938D848D01
:101C7000981306C00288F389E02D80818F7D8083D0
:101C800008951F920F920FB60F9211242F933F9336
:101C90008F939F93AF93BF938091A4019091A501DF
:101CA000A091A601B091A7013091A30123E0230FD9
:101CB0002D3720F40196A11DB11D05C026E8230F84
:101CC0000296A11DB11D2093A3018093A4019093BE
:101CD000A501A093A601B093A70180919F019091C7
:101CE000A001A091A101B091A2010196A11DB11D79
:101CF00080939F019093A001A093A101B093A201B2
:101D0000BF91AF919F918F913F912F910F900FBEF7
:101D10000F901F9018951F920F920FB60F921124DB
:101D20002F933F934F935F936F937F938F939F93E3
:101D3000AF93BF93EF93FF93E0E0F0E00995FF913D
:101D4000EF91BF91AF919F918F917F916F915F9133
:101D50004F913F912F910F900FBE0F901F901895AC
:101D60001F920F920FB60F9211242F933F934F9310
:101D70005F936F937F938F939F93AF93BF93EF93F3
:101D8000FF938091B900887F803609F49CC068F584
:101D9000883209F45BC090F4803109F454C038F4FF
:101DA000882309F4F6C0883009F44DC0F6C08831A4
:101DB00009F44CC0803209F45DC0EFC0803409F4EE
:101DC00068C048F4803309F455C0883309F0E5C091
:101DD0008093CE01D8C0803509F44FC0883509F40E
:101DE0005DC0883409F0D9C0D6C0883909F4C7C0AD
:101DF000A8F4883709F467C038F4883609F463C05A
:101E0000803709F460C0C9C0883809F4B8C0803987
:101E100009F45FC0803809F0C0C05BC0803B09F4A2
:101E200086C038F4803A09F466C0883A09F47FC065
:101E3000B4C0803C09F4A7C0883C09F4A4C0883B26
:101E400009F48AC0AAC08091CB0110C09091CD0145
:101E50008091CC01981770F5E091CD0181E08E0F53
:101E60008093CD01F0E0E655FE4F80818093BB006A
:101E700085EC86C08093CE018EC0E091CD0181E0DB
:101E80008E0F8093CD018091BB00F0E0E655FE4FB0
:101E900080839091CD018091CC016EC0E091CD0105
:101EA00081E08E0F8093CD018091BB00F0E0E6557C
:101EB000FE4F80838091CF0181116DC081E08093BE
:101EC000CA0184EA61C083E08093D00110929E0130
:101ED000CFCF80919E01803208F051C0E0919E01E9
:101EE00081E08E0F80939E018091BB00F0E0E2586C
:101EF000FE4F8083BDCF85EC8093BC001092D00153
:101F000080919E01803230F4E0919E01F0E0E25831
:101F1000FE4F108260919E0170E0E0917C01F09193
:101F20007D018EE791E0099510929E0136C084E014
:101F30008093D00110927B0110927A01E091780198
:101F4000F0917901099580917A01811105C081E0B4
:101F500080937A0110925801E0917B0181E08E0F0D
:101F600080937B01F0E0E85AFE4F80818093BB00B4
:101F700090917B0180917A01981708F479CF85E8D8
:101F80008093BC000AC085EC8093BC001092D00105
:101F900004C01092CE010E942C0BFF91EF91BF91D3
:101FA000AF919F918F917F916F915F914F913F91F1
:101FB0002F910F900FBE0F901F901895DB01ED91A0
:101FC000FC910994EF92FF920F931F93CF93DF93AD
:101FD0001F92CDB7DEB78C01DC011296ED90FC901C
:101FE0001397D196ED91FC91D29782E0099520E06C
:101FF00030E04AE0B701C8010E94DE0FF82ED80198
:10200000D196ED91FC91D29783E00995D801D196B4
:10201000ED91FC91D29780E00995FF20A1F1F801A4
:10202000628173819E012F5F3F4F46E4C8010E9489
:10203000DE0F8981D8018C9312966D917C91139754
:102040009E012F5F3F4F47E4C8010E94DE0F898148
:10205000F80181836281738120E030E048E4C801A7
:102060000E94DE0FD8011B968C931B9798012D5C64
:102070003F4F12966D917C91139747E1C8010E94E2
:10208000DE0F81E001C080E00F90DF91CF911F91C2
:102090000F91FF90EF90089590915701911104C016
:1020A000809357016093560108951F93CF93DF9358
:1020B00000D0CDB7DEB720ED37E03A832983909189
:1020C000BC00982399F429813A81232B51F4809103
:1020D0001102182F127081FD09C081E00E944C107E
:1020E00006C029813A8121503109E7CF11E0812FC3
:1020F0000F900F90DF91CF911F91089584E9809305
:10210000BC0064E080E10C945510CF938093BB0039
:1021100084E88093BC0063E080E80E945510C82FDB
:10212000882389F080911102C82FC27081FD0AC0F6
:102130008091B900887F883229F063E082E00E94B4
:102140004C1001C0C1E08C2FCF910895CF93DF9345
:10215000FC0123A5222379F0EC010E94C71581110F
:1021600002C080E009C08EA1811180E40E94851028
:102170008823B9F31BA681E0DF91CF9108950F93D7
:102180001F93CF93C42F89016330C1F050F46130A5
:1021900081F0623009F048C0FC0146A321E023A78A
:1021A00043C0663011F1673079F1653009F03CC009
:1021B0000EC0FC0186A50E94350C36C0FC0116A29B
:1021C00021E023A7411130C00E947E102DC00E9443
:1021D000A610811104C00E947E1080E026C08C2FC2
:1021E0000E948510811120C0F6CF0E94A61088237E
:1021F00091F3CC23C9F0F80181918F010E948510E1
:10220000882349F3C150F5CF0E94A610882319F303
:10221000CC2351F0F80184910E948510882329F085
:102220000F5F1F4FC150F4CF81E0CF911F910F91ED
:1022300008950F93FC010150040F84A996A99417E7
:1022400018F0081728F402C0081750F0041740F4DB
:102250002150260F83A995A9961720F4281720F45A
:1022600080E007C0281720F481E0261710F0F8CF8F
:1022700081E00F9108953F924F925F926F927F920B
:102280008F929F92AF92BF92CF92DF92EF92FF9286
:102290000F931F93CF93DF93EC01062FDCACCBACF5
:1022A0005C0184E0A80EB11CE98DFA8DC501099589
:1022B000182FE884F984C7010E94070C982E88859E
:1022C00099850E940A0C682EE1E09E1203C02FE05F
:1022D000922E02C099249A94888599850E94030CB5
:1022E000882E888599850E94FF0B782E8885998590
:1022F0000E94200C013638F0009729F0E80EF91EF4
:1023000091E6892E10C0888599850E94230C01349E
:1023100038F0009729F0E80EF91E81E4882E03C0FA
:10232000F1E1EF0EF11C701630F41C8A1F8A188E32
:102330001D8A1E8A9AC07814C0F3262D30E0F7015A
:1023400084918F3F21F4FFEFEF1AFF0A43C0801200
:1023500038C0888599850E94070C97012F5F3F4FF1
:10236000F701882311F0823091F484918F8BF90169
:102370002491288FF7013396E491EC8BF701349682
:10238000E491ED8BF7013596E491EE8B16C08491C4
:10239000982F9F7092509E8B82958F708D8BF90134
:1023A0002491822F8F70888F22952F702F8BF701A9
:1023B0003296E491E295EF70EC8BE114F10479F43C
:1023C00054C0F7013296E491E921C9018E0F911DA5
:1023D000E80EF91E871409F4A8CF8394B0CF88853E
:1023E00099850E940A0C882E4F88988C5D885C0C19
:1023F000D9188E89D81A1D0D092D242D412F652D30
:10240000C5010E941911882371F1E80CF11C87E0C5
:10241000840D482E469446944694312E390C4E0134
:10242000F0E28F0E911C642C712C1315E1F0052D38
:1024300067018C2D8E19841590F4F60184916E81BC
:102440007F8108A319A31BA28AA394014BE3C501B2
:102450000E94DE0FFFEFCF1ADF0A085FEACFE60C1B
:10246000F71C1F5FE2CF8C8901C080E02BAD082EE6
:10247000000C990B820F911D8BAF81E090E0DF91F2
:10248000CF911F910F91FF90EF90DF90CF90BF9071
:10249000AF909F908F907F906F905F904F903F9004
:1024A0000895CF92DF92EF92FF920F931F93CF93F5
:1024B000DF936C017A018B01C0E0D0E0CE15DF051F
:1024C00089F0D8016D918D01D601ED91FC910190BB
:1024D000F081E02DC6010995892B11F47E0102C01F
:1024E0002196ECCFC701DF91CF911F910F91FF9003
:1024F000EF90DF90CF900895FC01538D448D252FF0
:1025000030E0842F90E0821B930B541710F0CF968D
:10251000089501970895FC01918D828D981761F0BF
:10252000828DDF01A80FB11D5D968C91928D9F5F0A
:102530009F73928F90E008958FEF9FEF0895FC01B5
:10254000918D828D981731F0828DE80FF11D858D68
:1025500090E008958FEF9FEF08950E94A01B82E105
:1025600092E00E94160B21E0892B09F420E0822FD3
:102570000895EF92FF920F931F93CF93DF93EC0197
:1025800081E0888F9B8D8C8D981305C0E889F9892F
:10259000808185FD24C0F62E0B8D10E00F5F1F4F4C
:1025A0000F731127E02E8C8DE8120CC00FB607FCBC
:1025B000FACFE889F989808185FFF5CFCE010E94A5
:1025C000200EF1CF8B8DFE01E80FF11DE35AFF4F76
:1025D000F0820B8FEA89FB898081806207C0EE89D7
:1025E000FF896083E889F98980818064808381E044
:1025F00090E0DF91CF911F910F91FF90EF900895A0
:10260000CF93DF93EC01888D8823C9F0EA89FB8999
:10261000808185FD05C0A889B9898C9186FD0FC090
:102620000FB607FCF5CF808185FFF2CFA889B98965
:102630008C9185FFEDCFCE010E94200EE7CFDF9178
:10264000CF9108951F920F920FB60F9211242F93DE
:102650003F934F935F936F937F938F939F93AF932A
:10266000BF93EF93FF9382E192E00E94200EFF91CF
:10267000EF91BF91AF919F918F917F916F915F91FA
:102680004F913F912F910F900FBE0F901F90189573
:102690001F920F920FB60F9211242F938F939F9337
:1026A000EF93FF93E0912202F09123028081E09169
:1026B0002802F091290282FD12C0908180912B02A4
:1026C0008F5F8F7320912C02821751F0E0912B02C3
:1026D000F0E0EE5EFD4F958F80932B0201C080816C
:1026E000FF91EF919F918F912F910F900FBE0F90BF
:1026F0001F901895E091BB02F091BC020190F0810F
:10270000E02D682F8BEB92E00994009769F0FC01B3
:1027100001900020E9F73197AF01481B590BBC012C
:102720008BEB92E00C94511280E090E008958F9230
:102730009F92AF92BF920F931F93CF93DF93CDB72A
:10274000DEB7A1970FB6F894DEBF0FBECDBF19A2BA
:10275000423008F44AE08E010F5D1F4F842E912C09
:10276000A12CB12CA50194010E94781BE62FB90180
:10277000CA0101501109EA3014F4E05D01C0E95CBE
:10278000D801EC93232B242B252B61F7C8010E9441
:102790008513A1960FB6F894DEBF0FBECDBFDF91B3
:1027A000CF911F910F91BF90AF909F908F90089500
:1027B000DF92EF92FF920F931F93CF93DF93082F37
:1027C000887FE82E802F8770F82E97E098279F5FEC
:1027D00097701FEF01C0110F9A95EAF7C0E0DD2452
:1027E000DA94D0E0802F8D1B8830A8F06091C10270
:1027F0007091C202D093DB02C093DC021092DE0221
:10280000D092DD022BED32E04BE38FEB92E00E94A1
:10281000DE0FD85FE7CFFF2099F06091C102709181
:10282000C202E092DB02C093DC021092DE0210933F
:10283000DD022BED32E04BE38FEB92E00E94DE0FE6
:10284000CF5FCC3071F6DF91CF911F910F91FF9048
:10285000EF90DF9008954F925F926F927F928F92E8
:102860009F92AF92BF92CF92DF92EF92FF926B0155
:102870007C01B42E9B01AC010E94731B882319F0CC
:102880008AE491E027C026013701E89477F82FEF1A
:102890003FEF4FE75FE7C301B2010E94731B811155
:1028A0000DC02FEF3FEF4FE75FE7C301B2010E947A
:1028B000A91918161CF48EE491E00CC02FEF3FEF1D
:1028C0004FE75FE4C701B6010E94011B181684F4AC
:1028D00082E591E0FF90EF90DF90CF90BF90AF90B6
:1028E0009F908F907F906F905F904F900C94851386
:1028F0002FEF3FEF4FE75FECC701B6010E94A91928
:1029000087FDE6CF20E030E0A901C701B6010E94B3
:10291000A91987FF09C08DE20E947A134C01F7FACA
:10292000F094F7F8F09402C0812C912CA12C60E077
:1029300070E080E09FE3AB1441F020E030E040E243
:1029400051E40E94AE19A394F6CF9B01AC01C701DC
:10295000B6010E943D192B013C010E94201A6B0117
:102960007C010E944F1A9B01AC01C301B2010E947D
:102970003C192B013C014AE0C701B6010E949713A4
:102980007C01E80CF91CBB2029F08EE20E947A132E
:10299000E80EF91EDB2CDD2021F120E030E040E2E2
:1029A00051E4C301B2010E94061B2B013C010E94AD
:1029B000201A4B01A12CB12C4AE0C501B4010E94A0
:1029C0009713E80EF91EC501B4010E944F1A9B012E
:1029D000AC01C301B2010E943C192B013C01DA9405
:1029E000DACFC701FF90EF90DF90CF90BF90AF900C
:1029F0009F908F907F906F905F904F9008958091FF
:102A0000C3029091C402009709F437C02091D60206
:102A1000FC01211107C03596E491E093D702FC0137
:102A20003C960FC0213039F43F96E491E093D702F1
:102A3000FC01709606C03D96E491E093D702FC013C
:102A40003E96E491E093D8028091D702082E000CC4
:102A5000990B2091D802821B910927FD9395209113
:102A6000D902203441F0829FC001112426E09695BE
:102A700087952A95E1F78093DA020895CF92DF9245
:102A8000EF92FF92CF93DF936C01990FEE08FF084E
:102A9000F7FE17C08DE20E947A13EC0166277727B4
:102AA000CB016C197D098E099F094AE00E9497139A
:102AB0008C0F9D1FDF91CF91FF90EF90DF90CF9013
:102AC00008954AE0C701B601DF91CF91FF90EF90E2
:102AD000DF90CF900C9497130F93CF93C82F0CE0F7
:102AE000282F40E060E08FEB92E00E9419118823CC
:102AF00029F08C2FCF910F910C94D813CF910F9177
:102B0000089590E0FC01EF53FA4E2491FC01E35547
:102B1000FA4E3491FC01E756FA4EE491EE23B1F1FE
:102B2000222339F1233091F038F42130A9F02230FA
:102B300001F584B58F7D12C0273091F02830A1F0C7
:102B40002430B9F4809180008F7D03C08091800093
:102B50008F77809380000DC084B58F7784BD09C0C6
:102B60008091B0008F7703C08091B0008F7D8093FB
:102B7000B000F0E0EE0FFF1FE157FA4EA591B491BF
:102B80008FB7F894EC913E2B3C938FBF0895CF9371
:102B900084EA8093BC0061E080E80E94551088239D
:102BA00059F08091B900887F883041F0803131F050
:102BB00061E082E00E944C10C0E01DC088E7809375
:102BC000BB0084E88093BC0062E080E80E9455105E
:102BD000882391F380911102C82FC27081FD0AC031
:102BE0008091B900887F883129F062E082E00E94FC
:102BF0004C1001C0C1E08C2FCF910895789484B51A
:102C0000826084BD84B5816084BD85B5826085BDE8
:102C100085B5816085BD80916E00816080936E0076
:102C20001092810080918100826080938100809168
:102C30008100816080938100809180008160809319
:102C400080008091B10084608093B1008091B000D9
:102C500081608093B00080917A00846080937A00D4
:102C600080917A00826080937A0080917A008160FE
:102C700080937A0080917A00806880937A00109225
:102C8000C10081E08093DF021092D2011092D10145
:102C90001092A9011092A8011092D0018093CF0147
:102CA0001092CA0182E10E94811583E10E94811580
:102CB0008091B9008E7F8093B9008091B9008D7F9B
:102CC0008093B90088E48093B80085E48093BC00C9
:102CD000E0912202F091230282E08083E0911E02C3
:102CE000F0911F021082E0912002F091210280E118
:102CF000808310922A02E0912602F091270286E05A
:102D00008083E0912402F09125028081806180839C
:102D1000E0912402F0912502808188608083E09117
:102D20002402F0912502808180688083E091240252
:102D3000F091250280818F7D8083C1E093EDC92EC3
:102D400091E0D92E0AEA10E02DEFE22E2BE0F22ED0
:102D500030E2B32EDCE340E3A42E80910F02909189
:102D6000100201969093100280930F0202970CF4C8
:102D7000EEC080910D0290910E02019690930E028A
:102D800080930D028091D0018111FCCFC093D001BE
:102D9000C093CF018FEF8093CE011092CD0189E1D6
:102DA0008093CC01C093CB018091CB018061809353
:102DB000CB018091CA01813061F41092CA018091E7
:102DC000CB018093BB008091BC0083FDF8CF85ECE4
:102DD00001C085EE8093BC008091D0018130E1F389
:102DE0008091CD018A3118F48091CD0101C08AE132
:102DF000AAEAB1E0E3EDF1E09E2F9C19981718F4D0
:102E00009D919193F9CF1092D2018093D1018FEAD5
:102E100092E00E946E0B80930B028FEA92E00E9478
:102E20006E0B80930C028FEA92E00E946E0B8093EF
:102E300007028FEA92E00E946E0B809308028FEAED
:102E400092E00E946E0B809309028FEA92E00E944A
:102E50006E0B80930A028FEA92E00E946E0B8093C1
:102E600003028FEA92E00E946E0B809304028FEAC5
:102E700092E00E946E0B809305028FEA92E00E941E
:102E80006E0B809306028FEA92E00E946E0B809395
:102E9000FF018FEA92E00E946E0B809300028FEA9E
:102EA00092E00E946E0B809301028FEA92E00E94F2
:102EB0006E0B809302028FEA92E00E946E0B809369
:102EC000FB018FEA92E00E946E0B8093FC018FEA77
:102ED00092E00E946E0B8093FD018FEA92E00E94C7
:102EE0006E0B8093FE018FEA92E00E946E0B80933E
:102EF000F7018FEA92E00E946E0B8093F8018FEA4F
:102F000092E00E946E0B8093F9018FEA92E00E949A
:102F10006E0B8093FA018FEA92E00E946E0B809311
:102F2000F3018FEA92E00E946E0B8093F4018FEA26
:102F300092E00E946E0B8093F5018FEA92E00E946E
:102F40006E0B8093F6011092100210920F02809186
:102F5000F802811106C0C093F8028FEB92E00E9444
:102F6000E20F8090C1029090C202E091F002F091D5
:102F7000F10282E00995E091F002F091F10281E026
:102F8000099520E030E044E1B4018FEB92E00E942B
:102F9000DE0F22EF32E047E1B4018FEB92E00E94B6
:102FA000DE0FE091F002F091F10280E0099580E4FB
:102FB000682E609103027091040280910502909145
:102FC00006020E94201A862F0E946C158091C3026F
:102FD0009091C4028A5A904051F01093C402009319
:102FE000C3020E94FF14F092D502E092D402109224
:102FF000F602B092F70280910B0290910C020E94AF
:103000003E15D093F602B092F70280910D02909196
:103010000E020E943E158091C3029091C4028A5A0A
:10302000904051F01093C4020093C3020E94FF1419
:10303000F092D502E092D4021092F602A092F7022A
:103040006091FF0170910002809101029091020253
:1030500042E00E942B14D093F602A092F7026091F6
:10306000F7017091F8018091F9019091FA0142E025
:103070000E942B141092F6026092F7026091FB01FD
:103080007091FC018091FD019091FE0142E00E944F
:103090002B14D093F6026092F7026091F3017091C5
:1030A000F4018091F5019091F60142E00E942B1409
:1030B000E091CD02F091CE02309719F08FEB92E0C3
:1030C00009958090C1029090C202E091F002F091C7
:1030D000F10282E00995E091F002F091F10281E0C5
:1030E000099520E030E045E1B4018FEB92E00E94C9
:1030F000DE0F782E882341F022EF32E047E1B40161
:103100008FEB92E00E94DE0FE091F002F091F1026D
:1031100080E0099571104DCF0E94220B1ECE1092B7
:1031200015021092140288EE93E0A0E0B0E08093C4
:10313000160290931702A0931802B093190222E18D
:1031400031E0309313022093120225EC30E03093EB
:103150001F0220931E0224EC30E0309321022093C2
:10316000200220EC30E0309323022093220221EC55
:1031700030E0309325022093240222EC30E030939B
:1031800027022093260226EC30E030932902209378
:10319000280210922B0210922C0210922D021092F3
:1031A0002E021092B2021092B1028093B302909359
:1031B000B402A093B502B093B60284E291E090937A
:1031C000B0028093AF021092BE021092BD0286E35D
:1031D00091E09093BC028093BB021092F602109291
:1031E000F7021092F8021092C4021092C3021092D9
:1031F000C6021092C5021092C80281E08093C702F5
:1032000082E28093C9021092CE021092CD02E2EEC9
:10321000F2E09FEF8EE08E0F91938E13FDCF81E051
:103220008093DF022DEF3BE03093D5022093D40250
:103230008093D6021092D7021092D80280E4809335
:10324000D9021092DA028FEA9BE09093F102809308
:10325000F00288E091E09093C2028093C102109244
:10326000ED028FEB92E00E94E20F82E491E09093F6
:10327000BC028093BB0208955058BB27AA270E9426
:1032800054190C94C71A0E94B91A38F00E94C01A37
:1032900020F039F49F3F19F426F40C94B61A0EF47A
:1032A000E095E7FB0C94B01AE92F0E94D81A58F366
:1032B000BA17620773078407950720F079F4A6F51B
:1032C0000C94FA1A0EF4E0950B2EBA2FA02D0B01D8
:1032D000B90190010C01CA01A0011124FF27591B5B
:1032E00099F0593F50F4503E68F11A16F040A22F61
:1032F000232F342F4427585FF3CF469537952795D2
:10330000A795F0405395C9F77EF41F16BA0B620BD0
:10331000730B840BBAF09150A1F0FF0FBB1F661F17
:10332000771F881FC2F70EC0BA0F621F731F841F5A
:1033300048F4879577956795B795F7959E3F08F080
:10334000B0CF9395880F08F09927EE0F9795879542
:1033500008950E948C1A08F481E008950E94C21911
:103360000C94C71A0E94C01A58F00E94B91A40F073
:1033700029F45F3F29F00C94B01A51110C94FB1AF8
:103380000C94B61A0E94D81A68F39923B1F3552306
:1033900091F3951B550BBB27AA2762177307840768
:1033A00038F09F5F5F4F220F331F441FAA1FA9F3FE
:1033B00035D00E2E3AF0E0E832D091505040E695EC
:1033C000001CCAF72BD0FE2F29D0660F771F881F4D
:1033D000BB1F261737074807AB07B0E809F0BB0B40
:1033E000802DBF01FF2793585F4F3AF09E3F510554
:1033F00078F00C94B01A0C94FB1A5F3FE4F3983EFB
:10340000D4F3869577956795B795F7959F5FC9F73C
:10341000880F911D9695879597F90895E1E0660FBD
:10342000771F881FBB1F621773078407BA0720F036
:10343000621B730B840BBA0BEE1F88F7E09508959F
:103440000E94E01A88F09F5798F0B92F9927B7513A
:10345000B0F0E1F0660F771F881F991F1AF0BA9538
:10346000C9F714C0B13091F00E94FA1AB1E0089582
:103470000C94FA1A672F782F8827B85F39F0B93F74
:10348000CCF3869577956795B395D9F73EF49095EB
:103490008095709561957F4F8F4F9F4F0895E89469
:1034A00009C097FB3EF490958095709561957F4F8C
:1034B0008F4F9F4F9923A9F0F92F96E9BB2793953A
:1034C000F695879577956795B795F111F8CFFAF44A
:1034D000BB0F11F460FF1BC06F5F7F4F8F4F9F4F7B
:1034E00016C0882311F096E911C0772321F09EE8D9
:1034F000872F762F05C0662371F096E8862F70E03F
:1035000060E02AF09A95660F771F881FDAF7880F18
:103510009695879597F90895990F0008550FAA0B6E
:10352000E0E8FEEF16161706E807F907C0F01216D6
:103530001306E407F50798F0621B730B840B950BD9
:1035400039F40A2661F0232B242B252B21F408952E
:103550000A2609F4A140A6958FEF811D811D0895CB
:1035600097F99F6780E870E060E008959FEF80EC36
:10357000089500240A9416161706180609060895D9
:1035800000240A9412161306140605060895092E3F
:103590000394000C11F4882352F0BB0F40F4BF2BAE
:1035A00011F460FF04C06F5F7F4F8F4F9F4F0895EE
:1035B00057FD9058440F551F59F05F3F71F04795E4
:1035C000880F97FB991F61F09F3F79F087950895C9
:1035D000121613061406551FF2CF4695F1DF08C0E8
:1035E000161617061806991FF1CF86957105610505
:1035F00008940895E894BB2766277727CB0197F9AD
:1036000008950E948C1A08F48FEF08950E94191BE8
:103610000C94C71A0E94B91A38F00E94C01A20F000
:10362000952311F00C94B01A0C94B61A11240C9432
:10363000FB1A0E94D81A70F3959FC1F3950F50E0C2
:10364000551F629FF001729FBB27F00DB11D639F54
:10365000AA27F00DB11DAA1F649F6627B00DA11DFA
:10366000661F829F2227B00DA11D621F739FB00DA0
:10367000A11D621F839FA00D611D221F749F332710
:10368000A00D611D231F849F600D211D822F762FA9
:103690006A2F11249F5750409AF0F1F088234AF086
:1036A000EE0FFF1FBB1F661F771F881F91505040F2
:1036B000A9F79E3F510580F00C94B01A0C94FB1AA8
:1036C0005F3FE4F3983ED4F3869577956795B79579
:1036D000F795E7959F5FC1F7FE2B880F911D969593
:1036E000879597F908950E948C1A880B990B089575
:1036F000A1E21A2EAA1BBB1BFD010DC0AA1FBB1FF6
:10370000EE1FFF1FA217B307E407F50720F0A21B67
:10371000B30BE40BF50B661F771F881F991F1A94D4
:1037200069F760957095809590959B01AC01BD01FE
:10373000CF010895EE0FFF1F0590F491E02D09943D
:0E37400081E090E0F8940C94A51BF894FFCF64
:10374E00084000000080F902CD0C0001BF100000FF
:10375E000000B91251127C120013160B8B129F121D
:10376E00000000009E0B8A0B1D0E5E0B820B6E0B73
:10377E005F0B000000003B1151121D0E1C0E0000CD
:10378E0000003B1151121D0E1C0E6E616E00696E13
:06379E0066006F76660074
:107800000C94343C0C94513C0C94513C0C94513CE1
:107810000C94513C0C94513C0C94513C0C94513CB4
:107820000C94513C0C94513C0C94513C0C94513CA4
:107830000C94513C0C94513C0C94513C0C94513C94
:107840000C94513C0C94513C0C94513C0C94513C84
:107850000C94513C0C94513C0C94513C0C94513C74
:107860000C94513C0C94513C11241FBECFEFD8E036
:10787000DEBFCDBF11E0A0E0B1E0ECE9FFE702C060
:1078800005900D92A230B107D9F712E0A2E0B1E065
:1078900001C01D92AD30B107E1F70E942D3D0C945F
:1078A000CC3F0C94003C982F959595959595959582
:1078B000905D8F708A307CF0282F295A8091C0000B
:1078C00085FFFCCF9093C6008091C00085FFFCCF60
:1078D0002093C6000895282F205DF0CF982F809127
:1078E000C00085FFFCCF9093C6000895EF92FF92F1
:1078F0000F931F93EE24FF2487018091C00087FD22
:1079000017C00894E11CF11C011D111D81E4E8164B
:1079100082E4F8068FE0080780E0180770F3E09132
:107920000401F091050109958091C00087FFE9CF1E
:107930008091C6001F910F91FF90EF9008950E94D3
:10794000763C982F8091C00085FFFCCF9093C600B5
:1079500091362CF490330CF09053892F089597555D
:10796000892F08951F930E949F3C182F0E949F3CCF
:107970001295107F810F1F9108951F93182F882350
:1079800021F00E94763C1150E1F71F9108951F935A
:10799000182F0E94763C803249F0809103018F5F5E
:1079A000809303018530C1F01F9108958091C0003C
:1079B00085FFFCCF84E18093C6008091C00085FFE5
:1079C000FCCF1093C6008091C00085FFFCCF80E102
:1079D0008093C6001F910895E0910401F091050184
:1079E00009951F9108950E94763C803241F0809164
:1079F00003018F5F80930301853081F008958091AA
:107A0000C00085FFFCCF84E18093C6008091C00058
:107A100085FFFCCF80E18093C6000895E0910401CA
:107A2000F09105010995089540E951E08823A1F0FE
:107A30002D9A28EE33E0FA013197F1F721503040CA
:107A4000D1F72D9828EE33E0FA013197F1F7215064
:107A50003040D1F7815061F708953F924F925F9285
:107A60006F927F928F929F92AF92BF92CF92DF924E
:107A7000EF92FF920F931F93CF93DF93000080E16B
:107A80008093C4001092C50088E18093C10086E015
:107A90008093C2005098589A259A81E00E94143D24
:107AA00024E1F22E9EE1E92E85E9D82E0FE0C02ECA
:107AB00010E1B12EAA24A394B1E49B2EA6E58A2E50
:107AC000F2E57F2EE0E26E2E79E4572E63E5462E36
:107AD00050E5352E0E94763C8033B1F18133B9F107
:107AE000803409F46FC0813409F476C0823409F41B
:107AF00085C0853409F488C0803531F1823521F1A3
:107B0000813511F1853509F485C0863509F48DC0BC
:107B1000843609F496C0843709F403C1853709F423
:107B200072C1863709F466C0809103018F5F80932C
:107B30000301853079F6E0910401F0910501099582
:107B40000E94763C803351F60E94F33CC3CF0E94E2
:107B5000763C803249F78091C00085FFFCCFF092DF
:107B6000C6008091C00085FFFCCF9092C600809136
:107B7000C00085FFFCCF8092C6008091C00085FFC9
:107B8000FCCF7092C6008091C00085FFFCCF609250
:107B9000C6008091C00085FFFCCF5092C600809146
:107BA000C00085FFFCCF4092C6008091C00085FFD9
:107BB000FCCF3092C6008091C00085FFFCCFB09210
:107BC000C60088CF0E94763C863808F4BDCF0E945C
:107BD000763C0E94F33C7ECF0E94763C803809F4CC
:107BE0009CC0813809F40BC1823809F43CC1883942
:107BF00009F48FC080E00E94C73C6CCF84E10E94F2
:107C0000BD3C0E94F33C66CF85E00E94BD3C0E94D3
:107C1000F33C60CF0E94763C809306010E94763C44
:107C2000809307010E94F33C55CF0E94763C80333D
:107C300009F41DC183E00E94BD3C80E00E94C73C66
:107C400049CF0E94763C809309020E94763C809343
:107C5000080280910C028E7F80930C020E94763C79
:107C6000853409F415C18091080290910902892B8D
:107C700089F000E010E00E94763CF801E85FFE4FDA
:107C800080830F5F1F4F80910802909109020817AF
:107C9000190788F30E94763C803209F045CF809125
:107CA0000C0280FF01C16091060170910701660F0F
:107CB000771F7093070160930601A0910802B091AD
:107CC00009021097C9F0E8E0F1E09B01AD014E0F09
:107CD0005F1FF999FECF32BD21BD819180BDFA9A17
:107CE000F99A2F5F3F4FE417F50799F76A0F7B1F4B
:107CF00070930701609306018091C00085FFFCCF5F
:107D0000F092C6008091C00085FFFCCFB092C60003
:107D1000E1CE83E00E94C73CDDCE82E00E94C73CFA
:107D2000D9CE0E94763C809309020E94763C8093D3
:107D300008028091060190910701880F991F909386
:107D40000701809306010E94763C853409F4A6C0A1
:107D500080910C028E7F80930C020E94763C8032D0
:107D600009F0B8CE8091C00085FFFCCFF092C6002C
:107D7000609108027091090261157105B9F140E046
:107D800050E080910C02A82FA170B82FB27011C0E2
:107D9000BB2309F45CC0E0910601F0910701319624
:107DA000F0930701E09306014F5F5F4F46175707B7
:107DB000E8F4AA2369F3F999FECF209106013091E6
:107DC000070132BD21BDF89A90B58091C00085FFB2
:107DD000FCCF9093C6002F5F3F4F30930701209355
:107DE00006014F5F5F4F4617570718F38091C00099
:107DF00085FDE5CE8091C00085FFF8CFE0CE81E023
:107E00000E94C73C67CE0E94763C803209F08CCE3F
:107E10008091C00085FFFCCFF092C6008091C00029
:107E200085FFFCCFE092C6008091C00085FFFCCFAB
:107E3000D092C6008091C00085FFFCCFC092C600E2
:107E40008091C00085FFFCCFB092C60043CEE09188
:107E50000601F091070194918091C00085FFFCCF4D
:107E60009093C6009CCF80E10E94C73C33CE0E9415
:107E7000763C0E94763C182F0E94763C112309F430
:107E800083C0113009F484C08FE00E94C73C22CE29
:107E900080910C02816080930C02E5CE80910C02EF
:107EA000816080930C0259CF809107018823880F4D
:107EB000880B8A2180930B02809106019091070123
:107EC000880F991F90930701809306018091080203
:107ED00080FF09C080910802909109020196909359
:107EE000090280930802F894F999FECF1127E091D6
:107EF0000601F0910701C8E0D1E08091080290915D
:107F00000902103091F40091570001700130D9F34B
:107F100003E000935700E89500915700017001308D
:107F2000D9F301E100935700E89509901990009169
:107F3000570001700130D9F301E000935700E89534
:107F40001395103498F011270091570001700130FB
:107F5000D9F305E000935700E895009157000170B0
:107F60000130D9F301E100935700E895329602976A
:107F700009F0C7CF103011F00296E5CF112480919F
:107F8000C00085FFB9CEBCCE8EE10E94C73CA2CD19
:0C7F900085E90E94C73C9ECDF894FFCF0D
:027F9C00800063
:040000030000780081
:00000001FF
